S018000073693931785F68656C6C6F5F776F726C642E73333724
S31500000000010000000D900D90D414010001000000C5
S31500000010001020009AB5CB3200000000000000005E
S3150000002000000000000000000000000000000000CA
S315000000300000000000000000000000000D900D9080
S31500000040A55A0000002020080000008000000000E3
S31500000050000000000000000000000000000000009A
S31500000060000000000000000000000000000000008A
S31500000070000000000000000000000000000000007A
S31500000080000000000000000000000000000000006A
S31500001000106C0000694020081D4020081D40200883
S315000010101D4020081D4020081D402008000000003B
S31500001020000000000000000000000000413A200817
S315000010301D40200800000000D13A2008572920084A
S315000010401D4020081D4020081D4020081D40200886
S315000010501D4020081D4020081D4020081D40200876
S315000010601D4020081D402008CD050000196F2008EE
S31500001070C54D20081D4020081D4020081D402008A1
S31500001080194B20081D402008B5B7200859B820087C
S315000010901D4020084DB720084D9B20081D40200804
S315000010A01D4020081D4020081D4020081D40200826
S315000010B01D4020081D402008106C00001D4020081F
S315000010C069402008250500001D4020081D40200815
S315000010D01D4020081D402008AD4D2008B94D2008B0
S315000010E0993F20081D4020081D4020081B94B06928
S315000010F00D4B20081D4020081D402008014B2008EC
S315000011001D4020081D4020081DB7200835B72008BF
S315000011105DB6200875B620088DB62008A5B620084D
S31500001120BDB62008D5B62008EDB6200805B72008BC
S315000011301D4020081D4020081D4020081D40200895
S315000011401D4020081D4020081D4020081D40200885
S315000011501D4020081D4020081D4020081D40200875
S315000011601D4020081D4020081D40200800000000EA
S315000011700000000000000000000000000000000069
S315000011800348044B834202D0034B03B11847704710
S315000011901817000018170000000000000548064B4D
S315000011A01B1AD90F01EBA301491002D0034B03B15F
S315000011B018477047181700001817000000000000B5
S315000011C010B5064C237843B9FFF7DAFF044B13B189
S315000011D00448AFF300800123237010BD18170000E8
S315000011E0000000006806210808B5054B1BB105493B
S315000011F00548AFF30080BDE80840FFF7CFBF00BF4A
S31500001200000000001C1700006806210807B500F062
S315000012103FF80F480BF0F4FC03220021012000F0F8
S315000012204EFE0C4B186018B90B480BF0E9FCFEE7B4
S3150000123000230522CDE90023084909484FF400722E
S315000012400DF046FD03B05DF804EB00F0E5B800BF15
S3150000125068FD20083417000076FD200899FD200857
S31500001260B525200808B5084B1B7883420BD1012908
S3150000127009D1064B187802F0ABFE00F003F9BDE881
S31500001280084000F043B808BDE6FE2008EBFE200843
S3150000129010B51A481A4C0BF0B3FC0D200BF052FC9B
S315000012A0002009F0DBFE0120212820701ED92E2007
S315000012B009F0BEFE0022012310462E2109F0D4FDBE
S315000012C0002210460F4C2E2109F04EFE0123C4F8D1
S315000012D0E432D4F8E4120C48C9B20BF021FC0D201C
S315000012E00BF030FC0023C4F8E43210BD092801D00D
S315000012F009F02CFC20780130C0B2D5E7A0FD20080B
S315000013001000000000001346BDFD2008064AD2F872
S31500001310E43283F00103C2F8E432044B00BF013B20
S31500001320FCD103480BF06CBC00001346C0304600ED
S31500001330D2FD200808B500F0FFFAFFF767FF00F0BE
S3150000134008FB002008BD0000054A064913889BB229
S31500001350C8541388013303F07F031380704700BF1E
S3150000136044180000C1170000C30737B525D5164835
S315000013700BF046FC154B1B780BBB1548154D0BF0B7
S315000013803FFC432415F8010B013CFFF7DDFF14F089
S31500001390FF04F7D1002301930F4B01A9186800F051
S315000013A004FF019B4BB14FF0E0234FF08052C3F88E
S315000013B0042DBFF34F8FBFF36F8F03B030BD0748C7
S315000013C00BF01EFCE6E700BFDFFD20081100000061
S315000013D0F2FD20087E1700003417000007FE2008E3
S315000013E00A4B0B4A1988138889B29BB299420BD0D3
S315000013F0138808499BB2CB5C03701388013303F052
S315000014007F031380012070470020704744180000B6
S3150000141042180000C117000010B512480BF0F0FB8F
S315000014201149022009F090FA10B110480BF0E8FBC0
S315000014300D4C0F492068002209F0D2FA10B10D4870
S315000014400BF06EFB0C49206809F054FB002002F0FB
S3150000145051FB0A4A0023137082F84430084A13707D
S3150000146010BD00BF19FE20084818000039FE2008EC
S315000014703403000045FE20086923200839170000C0
S315000014801100000007480849084A006808B54323C8
S3150000149009F006FB014620B1BDE8084004480BF000
S315000014A03FBB08BD48180000120000007E17000070
S315000014B05AFE200830B5044693B00146432201A8DF
S315000014C00BF03EFD6178237894F842004B400DF115
S315000014D005040022D5B2A94204D81B1A5842584125
S315000014E013B030BD14F8015F01326B40F2E7000023
S315000014F070B5054690B000243C22214601A8009410
S315000015000BF05EFC6A780A4EA91C68460BF018FDC3
S315000015106A78E3B29A4201D810B070BD40336B448A
S31500001520304613F8401C0BF0FBFA0134F0E700BF1D
S315000015306FFE200838B51B4C05461B480BF060FBB8
S315000015402378032B08D8DFE803F002081622B62D0D
S3150000155002D165700123237038BD0DB90023FAE767
S31500001560002384F844300223A5702370BDE8384078
S315000015700E480BF045BB94F84420531CDBB22244C2
S315000015803F2B84F84430D570E6D90323E3E70848B7
S3150000159084F84350FFF78EFF0028DFD00448FFF79A
S315000015A0A7FFDBE73917000086FE20089AFE200811
S315000015B03A17000007B5114E114C124D30684FF026
S315000015C0FF3100F0EDFE0128F8D123786BB90DF15B
S315000015D00700FFF705FF0028F0D09DF80700FFF78A
S315000015E0A9FF09480BF00CFBF1E700232B702370D1
S315000015F0FFF748FF05480BF003FBDFE73417000051
S315000016001100000038170000ABFE2008CAFE2008B3
S3150000161008B501F035FD02F097F807F0B5F901F0CD
S315000016207FFB01F05FFEBDE8084000F0A1B900F0C5
S31500001630C9B908B500F008F8BDE8084000F00AB8D6
S3150000164000F0ACB870477047014802F0C3BB00BF5A
S31500001650E6FE2008014802F0A2BC00BFEBFE20080F
S31500001660EFF3108072B6704710B962B6BFF36F8F92
S315000016707047EFF311800C2383F31188704780F3D2
S315000016801188BFF36F8F704730B50E4C41612368E8
S315000016908BB9206083600DE0891A9A6841611D4606
S315000016A06AB113465A698A42F6D935B1A860521A08
S315000016B083605A6130BD0025F4E72060F7E7986043
S315000016C08260F7E75C18000038B507F0CDF9094CE1
S315000016D0094B1A6823680025C31A2AB123B1516938
S315000016E0994203D3C91A5161206038BD55615B1A0E
S315000016F09268F2E7581800005C18000038B5154DDE
S315000017002B682BB35B69A3B1134A146802201C44EF
S3150000171007F0B4F9204607F0BBF910492A68002300
S315000017200B7022B1D08880070AD501230B700020E8
S3150000173038BD022007F0A2F9022007F0FDF9ECE718
S315000017409268002AF3D050690344012BEAD9EEE7E8
S315000017502220EDE75C18000058180000541800001D
S315000017600D490B6898B100229BB1834203D183686F
S3150000177022B90B6003E01A469B68F5E7936083681D
S315000017801BB15A6941690A445A61002070472220F8
S3150000179070470220704700BF5C18000070B5154EF8
S315000017A0FFF767FF34780546FCB9134B1C60134BF3
S315000017B01C60134B1C6007F011F9012007F05EF95D
S315000017C007F0E2F90F4B0246186020B92846FFF7EA
S315000017D056FF232070BD23460B4840F2E7310AF03E
S315000017E03DFA0A4B1860012333702846FFF747FF7E
S315000017F00020EFE7551800005C180000581800009C
S31500001800641800006018000018FCFFFF5018000064
S31500001810C2072DE9F843044607D5444A1368013345
S315000018201360FFF751FFFFF769FFA3077CD5FFF7AA
S3150000183020FF0546FFF748FF4FF000083C4F46469D
S315000018403C680CB16369A3B13A4B0022012E1A70B1
S3150000185003D118F0020F18BF1E70FFF74FFF2228A2
S3150000186002D1022007F052F92846BDE8F843FFF7F7
S3150000187006BF23465A693AB91A792179914288BF37
S315000018801C469B68002BF5D12846FFF7F8FE256914
S31500001890DDB107F0E9F8A269A0EB02084FEAE873A8
S315000018A0A84573F1000311DB23691344A361E368C0
S315000018B013B1216820469847B4F80680FFF7D9FE91
S315000018C001360546FFF700FFBAE7A846FFF7D1FE47
S315000018D081462046FFF744FF4846FFF7D0FE2369BE
S315000018E0002BE4D0A38BB5EB080533B1E28B134490
S315000018F09BB2B3F57A7F0FD2E383FFF7BAFE294690
S3150000190080462046FFF7C0FEA36922691344A361FF
S315000019104046FFF7B4FECAE7A3F57A73E383A369EB
S31500001920013B013DA361E8E7BDE8F88364180000C8
S315000019305C1800004C18000008B5FFF769FEFFF7B9
S3150000194078FEFFF77DFEFFF77DFEBDE80840FFF756
S315000019507ABEFFF76CBE08B54FF0E0231B690DF0A9
S31500001960CFF9012803D0BDE8084001F0E3B808BD6F
S31500001970EFF3058373B9EFF31082094B12B9EFF356
S31500001980118212B11A68022A04D0186828B90122F5
S315000019901A6070476FF0050070474FF0FF307047D0
S315000019A05825000008B50DF0ABF938B1022804D06F
S315000019B0034B1868431E5842584108BD0320FCE7F4
S315000019C05825000010B5EFF30583ABB9EFF310828D
S315000019D00C4B12B9EFF3118212B11A68022A0BD01E
S315000019E01A68012A0BD1084A0024D47702221A6009
S315000019F00DF072F9204610BD6FF00500FBE74FF0C1
S31500001A00FF30F8E75825000000ED00E038B5054640
S31500001A10EFF3058313B10024204638BDEFF310839E
S31500001A2013B9EFF311831BB11C4B1B68022BF2D0C9
S31500001A302DB36B681A07EED4D5E9021203F0010341
S31500001A4071B14F2AE7D993B1042000F000FB044698
S31500001A500028E0D0296800F081FD44F00104DBE7AE
S31500001A60002AD8D1ABB1042000F025FBEFE7012016
S31500001A7000F0EDFA04460028CDD0296806E00120E2
S31500001A8000F019FB04460028C5D0294600F066FD83
S31500001A90C2E7012000F00FFBECE700BF582500006D
S31500001AA0034610B520F001000C4603F00102EFF3E7
S31500001AB00581E9B9EFF3108111B9EFF3118119B17D
S31500001AC00E490968022913D0012B14D9214662B1A7
S31500001AD000F023FD012801D1002010BD002C14BF09
S31500001AE06FF001006FF00200F7E700F059FCF1E734
S31500001AF06FF00500F1E76FF00300EEE758250000F0
S31500001B00024608B520F0010002F00103EFF305815B
S31500001B10C9B9EFF3108111B9EFF3118119B10D496C
S31500001B20096802290FD0012A10D93BB100F0A4FAA6
S31500001B3001280CBF00206FF0020008BD1A461946A6
S31500001B4000F0C9F9F4E76FF00500F6E76FF003005F
S31500001B50F3E700BF58250000034B0360034B0B60FF
S31500001B604FF4807313607047E0240000E02000000B
S31500001B70034B0360034B0B604FF400731360704715
S31500001B80682000006818000000F108034FF0FF32DB
S31500001B90C0E902234360036100230360704700230A
S31500001BA00361704743684B609A688A605160996028
S31500001BB00368086101330360704730B50C68631C25
S31500001BC00AD103695A684A6091608B60596003685C
S31500001BD008610133036030BD00F108021346526804
S31500001BE01568A542FAD9EDE7D0E9011203698A60C2
S31500001BF051605968814208BF5A60002202611A6822
S31500001C00013A1A601868704710B5044600F02AFFBA
S31500001C10A46B00F047FFB4FA84F0400910BD70B51C
S31500001C201646026C856B044642B906689EB9806802
S31500001C300DF092F8A6600135A56370BD6EB94068D7
S31500001C400BF07EF96368226C1344A26863609342CA
S31500001C5024BF236863600020EDE7C0680BF070F9CD
S31500001C60226CE36851429B1A2268E36093423EBFAE
S31500001C70A3685B18E360022EEDD10DB1013DEAE7E2
S31500001C802846D8E7034610B41A6C08466AB1DC68E1
S31500001C90996814448C4228BF1968DC6028BFD96053
S31500001CA0D9685DF8044B0BF04BB95DF8044B7047EF
S31500001CB070B5044600F0D6FE94F8455004F12406AB
S31500001CC06DB2002D14DCFF2384F8453000F0EAFEE7
S31500001CD000F0C8FE94F8445004F110066DB2002DD1
S31500001CE012DCFF2384F84430BDE8704000F0DABE11
S31500001CF0636A002BE7D030460DF00AF808B10DF004
S31500001D001FF8013D6DB2DCE72369002BE9D03046B0
S31500001D100CF0FEFF08B10DF013F8013D6DB2DEE7E1
S31500001D2038B50D46044640B94FF0140383F31188C5
S31500001D30BFF36F8FBFF34F8FFEE700F093FED4E93A
S31500001D400F31226862604B43D0185B1A1A44A060B8
S31500001D50FF230020A063E26084F8443084F8453015
S31500001D60A5B9236973B104F110000CF0D1FF48B195
S31500001D704FF0E0234FF08052C3F8042DBFF34F8F8E
S31500001D80BFF36F8F00F08EFE012038BD04F1100006
S31500001D90FFF7FAFE04F12400FFF7F6FEF2E7F8B5C6
S31500001DA0064617460D46C9B14843B0FBF1F39E42BD
S31500001DB008D04FF0140383F31188BFF36F8FBFF37E
S31500001DC04F8FFEE710F1510F19D94FF0140383F32B
S31500001DD01188BFF36F8FBFF34F8FFEE7502000F0DF
S31500001DE085FF88B180F8465004462060C4E90F6537
S31500001DF001212046FFF794FF84F84C7005E050302F
S31500001E0000F074FF044610B900242046F8BD0023F4
S31500001E1080F846305030E8E737B50D461C4640B9E5
S31500001E204FF0140383F31188BFF36F8FBFF34F8F07
S31500001E30FEE743B94FF0140383F31188BFF36F8FA6
S31500001E40BFF34F8FFEE74AB191BB4FF0140383F304
S31500001E501188BFF36F8FBFF34F8FFEE741B14FF08D
S31500001E60140383F31188BFF36F8FBFF34F8FFEE721
S31500001E7050230193019B502B08D04FF0140383F39A
S31500001E801188BFF36F8FBFF34F8FFEE7019B22468A
S31500001E900121C4E90F0584F8461022602046FFF7A9
S31500001EA03FFF9DF8183084F84C30204603B030BD13
S31500001EB050230193019B502BDFD1019BE8E740B9EA
S31500001EC04FF0140383F31188BFF36F8FBFF34F8F67
S31500001ED0FEE7FFF764BFF0B585B00E4601921D46DA
S31500001EE0044640B94FF0140383F31188BFF36F8F94
S31500001EF0BFF34F8FFEE751B9036C43B14FF01403A4
S31500001F0083F31188BFF36F8FBFF34F8FFEE7022D68
S31500001F100BD1E36B012B08D04FF0140383F3118828
S31500001F20BFF36F8FBFF34F8FFEE70CF0E9FE08B9E2
S31500001F30019B03BB00F096FDA26BE36B9A4223D292
S31500001F402A4631462046FFF76AFE636A1BB104F152
S31500001F5024000CF0DDFE48B14FF0E0234FF0805234
S31500001F60C3F8042DBFF34F8FBFF36F8F00F09AFDB8
S31500001F70012005B0F0BD4FF0140383F31188BFF3C1
S31500001F806F8FBFF34F8FFEE7022DD9D000231F4678
S31500001F9037E013B902A80CF0C7FE00F083FD0CF081
S31500001FA0DFFE00F05FFD94F84430FF2B08BF84F895
S31500001FB0447094F84530FF2B08BF84F8457000F054
S31500001FC071FD01A902A80CF0B7FE002839D100F076
S31500001FD049FDA26BE36B9A421AD100F063FD0199A9
S31500001FE004F110000CF088FE2046FFF761FE0CF0AD
S31500001FF097FED8B100F036FDA36BE26B9A429FD8EC
S315000020000123019A002AC4D100F04CFD0020B0E75C
S3150000201000F048FD2046FFF74BFE0CF081FE00F075
S3150000202021FDA26BE36B9A42EAD289E74FF0E023E7
S315000020304FF08052C3F8042DBFF34F8FBFF36F8F5D
S31500002040EDE72046FFF734FE0CF06AFEDEE713B537
S3150000205000220B46009011460120FFF7DDFE0446E4
S3150000206038B1002383600360C3601A461946FFF740
S3150000207032FF204602B010BD38B5044640B94FF0D5
S31500002080140383F31188BFF36F8FBFF34F8FFEE7FF
S3150000209085680CF059FE85420BD1E368013BE3608D
S315000020A00BB1012038BD1A4619462046FFF713FF2B
S315000020B0F7E70020F6E710B5024600210120FFF7FA
S315000020C06EFE044638B1002383600360C3601A467F
S315000020D01946FFF700FF204610BD2DE9F843894653
S315000020E017461E46044640B94FF0140383F3118881
S315000020F0BFF36F8FBFF34F8FFEE751B9036C43B148
S315000021004FF0140383F31188BFF36F8FBFF34F8F24
S31500002110FEE7022E0BD1E36B012B08D04FF0140320
S3150000212083F31188BFF36F8FBFF34F8FFEE700F085
S31500002130AFFDEFF311884FF0140383F31188BFF35B
S315000021406F8FBFF34F8FA26BE36B9A4201D3022EC0
S3150000215029D194F84550A36B6DB2324649462046C4
S31500002160FFF75DFD6B1C0ED1636A3BB104F12400E1
S315000021700CF0CEFD10B10FB101233B60012088F3B6
S315000021801188BDE8F8837F2D08D14FF0140383F33F
S315000021901188BFF36F8FBFF34F8FFEE701356DB226
S315000021A084F84550EAE70020E9E770B50D46044695
S315000021B040B94FF0140383F31188BFF36F8FBFF359
S315000021C04F8FFEE7036C43B14FF0140383F311887E
S315000021D0BFF36F8FBFF34F8FFEE7036853B9836872
S315000021E043B14FF0140383F31188BFF36F8FBFF32E
S315000021F04F8FFEE700F04CFDEFF311864FF014030E
S3150000220083F31188BFF36F8FBFF34F8FA26BE36B1E
S31500002210934224D994F845100132FF294BB2A263A8
S315000022200DD1636A3BB104F124000CF071FD10B1CD
S315000022300DB101232B60012086F3118870BD7F2B21
S3150000224008D14FF0140383F31188BFF36F8FBFF3E8
S315000022504F8FFEE701335BB284F84530EBE7002091
S31500002260EAE7F0B585B00E460192044640B94FF054
S31500002270140383F31188BFF36F8FBFF34F8FFEE70D
S3150000228051B9036C43B14FF0140383F31188BFF3C4
S315000022906F8FBFF34F8FFEE70CF032FD50B9019BF5
S315000022A043B14FF0140383F31188BFF36F8FBFF36D
S315000022B04F8FFEE700F0D6FBA56BDDB13146204619
S315000022C0013DFFF7DFFCA563236973B104F110003C
S315000022D00CF01EFD48B14FF0E0234FF08052C3F8DA
S315000022E0042DBFF34F8FBFF36F8F00F0DBFB012090
S315000022F005B0F0BD019B1BB900F0D4FB0020F7E749
S3150000230002A80CF011FD2F4600F0CCFB0CF028FDC6
S3150000231000F0A8FB94F84430FF2B08BF84F8447003
S3150000232094F84530FF2B08BF84F8457000F0BAFBDF
S3150000233001A902A80CF000FD38BB2046FFF764FC9B
S31500002340E8B1019904F124000CF0D6FC2046FFF711
S31500002350AFFC0CF0E5FC48B94FF0E0234FF080529B
S31500002360C3F8042DBFF34F8FBFF36F8F00F07AFBD6
S31500002370A56B002DA2D1019B002BC5D1BCE7204641
S31500002380FFF796FC0CF0CCFCF0E72046FFF790FC3C
S315000023900CF0C6FC2046FFF737FC0028E6D0ADE778
S315000023A0F0B585B00446019140B94FF0140383F3AC
S315000023B01188BFF36F8FBFF34F8FFEE7056C45B1F2
S315000023C04FF0140383F31188BFF36F8FBFF34F8F62
S315000023D0FEE70CF095FC064620B32E46002700F0DB
S315000023E041FBA36B53B3013BA363236813B90CF002
S315000023F09FFCA060236973B104F110000CF088FC07
S3150000240048B14FF0E0234FF08052C3F8042DBFF3DC
S315000024104F8FBFF36F8F00F045FB012005B0F0BD75
S315000024203546DBE7019B002BFAD04FF0140383F30C
S315000024301188BFF36F8FBFF34F8FFEE7019B53B930
S31500002440002D66D04FF0140383F31188BFF36F8F0E
S31500002450BFF34F8FFEE716B902A80CF065FC00F03B
S3150000246021FB0CF07DFC00F0FDFA94F84430FF2BC4
S3150000247008BF84F8447094F84530FF2B08BF84F8F1
S31500002480457000F00FFB01A902A80CF055FC50BBEB
S315000024902046FFF7B9FB00B323683BB900F0E2FA28
S315000024A0A0680CF021FC054600F0FCFA019904F145
S315000024B024000CF021FC2046FFF7FAFB0CF030FC60
S315000024C048B94FF0E0234FF08052C3F8042DBFF314
S315000024D04F8FBFF36F8F012681E72046FFF7E8FB9A
S315000024E00CF01EFCF7E72046FFF7E2FB0CF018FCA9
S315000024F02046FFF789FB0028EDD065B100F0B2FA5F
S31500002500616A19B1236B1968C1F13801A0680CF032
S31500002510DBFB00F0C7FA002080E770B50D460446E5
S3150000252040B94FF0140383F31188BFF36F8FBFF3E5
S315000025304F8FFEE786680CF007FC864204D1E368FD
S315000025400133E360012070BD29462046FFF728FFCE
S315000025500028F8D0E3680133E360F4E730B5074AB2
S31500002560002352F8335002EBC3041DB942F833106E
S31500002570606030BD0133082BF3D1FAE75C2500001B
S3150000258070B504460D46164600F06CFA94F84430D1
S31500002590FF2B04BF002384F8443094F84530FF2B0A
S315000025A004BF002384F8453000F07CFAA36B2BB9F6
S315000025B03246294604F124000CF0A6FB2046BDE86D
S315000025C07040FFF775BB0000914208B5416000619D
S315000025D00AD8D21A83699A420DD2084B011D18688F
S315000025E0FFF7EBFA002008BD9A4201D2994202D2C7
S315000025F0034B011DF3E70120F5E700BF482B000060
S315000026004C2B0000F7B5114C00F02CFA2568BDB92B
S315000026100F4F104E3846FFF7B7FA3046FFF7B4FAB9
S315000026200D4B0E4A1F600E4B10211E6005200D4BF0
S315000026300095FFF7F1FB206010B10B49FFF78EFF05
S3150000264003B0BDE8F04000F02DBA00BF442B0000F7
S31500002650642B0000502B00004C2B0000EC2A0000DD
S31500002660482B00009C2A0000F3FE200810B588B015
S31500002670FFF7C8FF124B1B68B3B1002407AA06A9CF
S3150000268005A8CDE90544FFF773FA059B0293069B5F
S31500002690019337230093079A0A490B4823460CF007
S315000026A03BFB0A4B186040B94FF0140383F31188C3
S315000026B0BFF36F8FBFF34F8FFEE7012008B010BD49
S315000026C0442B0000F8FE2008CD372008402B0000E0
S315000026D07FB5164604461A4640B94FF0140383F3F5
S315000026E01188BFF36F8FBFF34F8FFEE70D4D28683C
S315000026F080B10529CDE9001602940DDC0CF000FB33
S315000027000023022808BF089A286818BF1A46694697
S31500002710FFF7E1FB04B070BD00236946FFF7DDFC5F
S31500002720F8E700BF442B00002DE9F347DFF8988057
S3150000273006460CF0DDFAD8F800308342054609D982
S315000027401F4F3B681A686AB91E4A116839601360E0
S31500002750012300E0002328463360C8F8005002B089
S31500002760BDE8F087DB68DC68D3F8009004F1040A62
S315000027705046FFF739FA236A2046984794F82830DE
S315000027805B07DED5A3694B44994506D2386863607A
S3150000279024615146FFF711FAD3E7002300934A4616
S315000027A019462046FFF794FF0028CAD14FF01403BC
S315000027B083F31188BFF36F8FBFF34F8FFEE700BF20
S315000027C04C2B0000482B00003C2B00002DE9F04369
S315000027D06E4D6F4E89B02B68D3F80080B8F1000FAC
S315000027E035D0DB68D3F8008000240CF0B9FA04A8D1
S315000027F0FFF79AFF049B8146002B69D1002C4CD130
S31500002800404550D30CF08CFA2B68DB68DF68381D26
S31500002810FFF7EAF997F8283058071AD5B9694346F9
S315000028204A4641443846FFF7CFFEB0B100942346EE
S31500002830424621463846FFF74BFF70B94FF0140366
S3150000284083F31188BFF36F8FBFF34F8FFEE7012429
S31500002850CBE723F0010387F828303B6A38469847D0
S315000028603068002204A9FFF7FCFC0028B3D0049BC3
S315000028700698002B2FDB069C6369002B32D103A838
S31500002880FFF752FF049B0246092BE9D8DFE803F065
S315000028902E2E2E575E762E2E575E3E4B1B681C68DC
S315000028A0B4FA84F4640930682246A8EB0901FFF7FC
S315000028B067FE0CF035FA0028D2D14FF0E0234FF036
S315000028C08052C3F8042DBFF34F8FBFF36F8FC7E756
S315000028D00CF026FAC4E7059B07999847049B002B42
S315000028E0BEDBC8E7201DFFF77FF9C8E794F828305C
S315000028F0A16943F0010384F82830059B204619445A
S31500002900FFF762FE0028ABD0236A2046984794F86A
S3150000291028305907A4D5A269059900230A440093D3
S3150000292019462046FFF7D4FE002899D14FF014032C
S3150000293083F31188BFF36F8FBFF34F8FFEE794F8D1
S31500002940283023F0010384F8283089E794F82830EA
S3150000295043F0010384F828300599A16141B94FF08D
S31500002960140383F31188BFF36F8FBFF34F8FFEE716
S31500002970034601442046FFF727FE71E794F8283006
S315000029809A07DED4204600F0BDF969E74C2B00001B
S31500002990442B0000482B000008480068006880F3BC
S315000029A008884FF0000080F3148862B661B6BFF362
S315000029B04F8FBFF36F8F00DF00BF000008ED00E010
S315000029C0DFF80C00016841F47001016070470000F7
S315000029D088ED00E082B0002301930D4B1B680133A4
S315000029E008D04FF0140383F31188BFF36F8FBFF342
S315000029F04F8FFEE74FF0140383F31188BFF36F8FF9
S31500002A00BFF34F8F019B002BFCD002B0704700BF75
S31500002A105C0000004FF0807340F8043C074B40F820
S31500002A200C3C21F001016FF0020340F8081C40F84D
S31500002A30202C40F8243C4438704700BFD539200884
S31500002A40074B19680868B0E8F04F80F30988BFF3B0
S31500002A506F8F4FF0000080F311887047AFF300804E
S31500002A60982A00004FF0140383F31188BFF36F8F89
S31500002A70BFF34F8F0A4A13680133012B13600ED13F
S31500002A804FF0E023D3F8043DDBB243B14FF014031B
S31500002A9083F31188BFF36F8FBFF34F8FFEE7704745
S31500002AA05C000000084A136843B94FF0140383F32F
S31500002AB01188BFF36F8FBFF34F8FFEE7013B1360A3
S31500002AC00BB983F3118870475C000000000000001A
S31500002AD0EFF30980BFF36F8F154B1A681EF0100FC6
S31500002AE008BF20ED108A20E9F04F10602DE909009B
S31500002AF04FF0140080F31188BFF34F8FBFF36F8F31
S31500002B000CF0EEF84FF0000080F3118809BC19684C
S31500002B100868B0E8F04F1EF0100F08BFB0EC108A3E
S31500002B2080F30988BFF36F8F704700BFAFF3008053
S31500002B30982A000008B54FF0140383F31188BFF3F9
S31500002B406F8FBFF34F8F0CF003F928B14FF0E023DE
S31500002B504FF08052C3F8042D002383F3118808BD7B
S31500002B604FF0E022002313619361054B4FF47A7115
S31500002B701B68B3FBF1F3013B5361072313617047F5
S31500002B80E02B00004FF0E02337B5D3F8001D3A4A9A
S31500002B90914208D14FF0140383F31188BFF36F8F6E
S31500002BA0BFF34F8FFEE7D3F8002D344B9A4208D17E
S31500002BB04FF0140383F31188BFF36F8FBFF34F8F6A
S31500002BC0FEE72F4B1A78D2B20192FF221A701B78B9
S31500002BD02C4ADBB28DF803309DF8033003F0140362
S31500002BE01370294A0723136000219DF8030000068D
S31500002BF003F1FF340CD411B1012B136011D04FF047
S31500002C00140383F31188BFF36F8FBFF34F8FFEE773
S31500002C109DF803305B00DBB28DF8033001212346BB
S31500002C20E3E74FF480731360019B154A4FF0E024ED
S31500002C30DBB21370D4F8203D43F47C03C4F8203D86
S31500002C40D4F8203D43F07C43C4F8203DFFF788FFCD
S31500002C500E4B00251D60FFF7B3FED4F8343F43F05A
S31500002C604043C4F8343FFFF797FE0CF039F8FFF7FE
S31500002C70B1FE284603B030BD71C20F4170C20F418C
S31500002C8000E400E07C2B0000782B00005C000000D4
S31500002C90EFF305830F2B0ED9114A9B5C114A12786C
S31500002CA09A4208D94FF0140383F31188BFF36F8F4C
S31500002CB0BFF34F8FFEE74FF0E0230B4AD3F80C3DEE
S31500002CC0126803F4E063934208D94FF0140383F3C8
S31500002CD01188BFF36F8FBFF34F8FFEE7704700BFBA
S31500002CE0F0E300E07C2B0000782B000010B50446D2
S31500002CF00CF036F8204609F029F904460CF010F8D5
S31500002D00204610BD10B5044640B10CF029F8204607
S31500002D1009F024F9BDE810400CF002B810BD00001F
S31500002D2070B5134C134D23685E6C00231946284674
S31500002D300222B04723681E6800231946022228464D
S31500002D40B04723680C4DD3F8C03005209847236858
S31500002D505E6C0023194628460A22B04723681C6881
S31500002D6000232846A4460A22BDE87040194660475B
S31500002D700001300000C004240000134630B5114B9A
S31500002D8093F85830013BDBB2FD2B8FB018D80E4DAF
S31500002D900FCD6C460FC40FCD0FC40FCD0FC495E8F1
S31500002DA0030084E80300094C6846D4F844370CF065
S31500002DB05BFC05F05FFFD4F8443700200FB030BD50
S31500002DC00120FBE700021F0858021F0800800524A7
S31500002DD0134B0168D3F84437F0B50127013900D207
S31500002DE0F0BDD0F808C04668CCF38455C5EBDC626C
S31500002DF0346801320023013A0CD203FA05F203EAE1
S31500002E000C03C3F3150324EA0202AB4013433360F9
S31500002E100830E3E707FA02FE43EA0E03EBE700BFDA
S31500002E200080052408B51848FFF7D2FF1748FFF7BA
S31500002E30CFFF06F015FA06F027FA06F031FA06F08B
S31500002E4043FA06F04DFA1248FFF7C2FF1148FFF7A2
S31500002E50BFFF1148FFF7BCFF1048FFF7B9FF104846
S31500002E60FFF7B6FF0F48FFF7B3FF0F48FFF7B0FFB6
S31500002E700E48FFF7ADFF0E48FFF7AAFFBDE8084072
S31500002E800C48FFF7A5BF00BFC416000028160000B7
S31500002E9064120000301300002413000044130000E5
S31500002EA004120000F8110000EC11000040120000AE
S31500002EB0881200007C12000010B5254CFFF7B2FF07
S31500002EC094F8040600F00100FFF758FF4FF4C02302
S31500002ED0C4F86C34D4F840311E4843F40023C4F8D7
S31500002EE04031D4F8403143F00103C4F84031D4F8FE
S31500002EF0403143F00203C4F84031FFF769FF164939
S31500002F001648D1F8103543F00203C1F8103563694D
S31500002F1023F400336361636943F480336361D0F85B
S31500002F204027D0F87837C2F34342023A23F4F073CD
S31500002F3043EA4213C0F87837D1F8943443F40023B7
S31500002F40C1F89434236943F46013236110BD00BFB4
S31500002F50008004245014000000A0052400800524ED
S31500002F6008B550B10748FFF733FF0748FFF730FFB2
S31500002F700648BDE80840FFF72BBF0548FFF728FFC6
S31500002F800448F6E7981400004015000034150000C8
S31500002F900C150000B81400000B48D0F800D05DF8FE
S31500002FA004EB5DF804CB5DF804BB5DF804AB5DF89B
S31500002FB0049B5DF8048B80BC40BC20BC10BC08BCE4
S31500002FC004BC02BC01BC70478C2B0000114AD2F82D
S31500002FD0103623F48073C2F810360F4B596B41F04C
S31500002FE001015963596B41F0020159630423C2F888
S31500002FF0383482B000238DF807309DF80730092B4E
S3150000300001D902B0704700BF9DF807300133DBB22B
S31500003010F1E700BF0080042400840424FEE7FEE7F5
S31500003020054B064A06498B4200D3704752F8040BFB
S3150000303043F8040BF7E700BF100000008C082108D6
S3150000304018170000064B0748DA1C121AC11E22F098
S315000030500302994288BF0022002109F0B1BE00BFD9
S31500003060103C00001817000008B5FFF7D9FFFFF75E
S31500003070E9FF00F0B3F8BDE80840FEF75BB90000D1
S3150000308038B5374B374A1A60374B384A93F8063605
S31500003090374C03F00F030F2B15BF364B4FF0006371
S315000030A0D3F89312D3F837140CBF11601160324A6B
S315000030B00CBFD3F83634D3F89232136005F05AFFBA
S315000030C005F05AFF2D4BDB694FF08061D3F8803055
S315000030D04FF08C409847E369022060F30E33E361BA
S315000030E0274BDA696FF30202DA6105F0BFFF1E4B68
S315000030F01A6A042161F302021A621A6A1207FCD5DF
S31500003100A369022262F38403A361A3691B04FCD5AD
S315000031101C4B1D4D5A6E6FF341025A665A6E6FF381
S3150000312000025A66FFF752FF184B19480D4A1861FC
S315000031304FF4FA44D86117485C6200211C624FF4D0
S315000031400044C3E90022C3E90B05C3E90F229960D5
S315000031505961DA609C625A635864996138BD00BF50
S31500003160E02B0000005A620200800424882B000035
S315000031700081042400001F08842B00000001300099
S315000031800086042400840424002D3101902B0000C5
S3150000319000B4C4040048E8014FF0E02384B0D3F83B
S315000031A0402F0192D3F8442F02920199094A914285
S315000031B00DD10299084A914209D1D3F8882D03927C
S315000031C0039A42F470020392039AC3F8882D04B05E
S315000031D0704700BF210011101100001113B5002324
S315000031E0009301932F4BD3F810250092009A00927A
S315000031F02D4A116821F00F01116011681160D3F892
S315000032009C1421F46071C3F89C14D3F8041701913F
S315000032100199C3F80415D3F8001701910199C3F871
S315000032200015D3F8101541F01C01C3F81015D2F89B
S31500003230024014F48074FAD11C48436943F4803385
S315000032404361436964F351434361FFF7A5FF184B9C
S315000032504FF080725A60174BC0F84031164B5A68CF
S3150000326064F3C3025A60036A0E4A43F4803303626E
S31500003270036A43F400330362D2F8943443F4002320
S31500003280C2F89434036943F4601303610B4B1A6864
S3150000329042F400221A601A6842F480221A6002B0D0
S315000032A010BD00BF00A005240000052400800424F2
S315000032B00000304103000800008104240084042437
S315000032C020F04040012802D0022805D07047034A6A
S315000032D01368013313607047014AF9E7E82B0000D1
S315000032E0E42B000010B5124CE3689847A368114818
S315000032F09847236902209847A46A01211520A04710
S3150000330001211620A0474FF4E1310120A0470A4CC5
S31500003310206810B9FEF77AFB2060084B4FF4805204
S31500003320C3F88020BFF34F8FBFF36F8F10BD00BF70
S3150000333078002108C1422008EC2B000000E100E0E3
S3150000334013B5094C00238DF804302360074B012187
S315000033509B6901A8984723681BB19DF8040002B039
S3150000336010BD00F035FDF6E7E42B000078002108DB
S3150000337013B5094C8DF8070000232360074B012184
S315000033805B690DF10700984723680BB102B010BDC9
S3150000339000F01EFDF8E700BFE82B000078002108CA
S315000033A003681B780022202B04D0093B042B01D98B
S315000033B0D0B270470368591C01605B780132F2E7AE
S315000033C00120704708B509F05DFD162303604FF034
S315000033D0FF3008BD08B509F055FD16230360FEE76A
S315000033E070B50D461446FEF7DDFA022805D10C4BE2
S315000033F04FF0FF311868FEF753FB2E46731BA342AE
S3150000340009DBFEF7CFFA022803D1054B1868FEF751
S3150000341077FB204670BD16F8010BFFF7A9FFEDE715
S31500003420EC2B00004FF0FF3070474FF400534B6019
S315000034300020704701207047002070470FB42DE927
S31500003440F0438BB012AB002453F8046B01938DF854
S315000034501040FFF775FF0D288DF81000F7D00A28E9
S31500003460F5D0002425460134142C2ED0FFF768FF32
S3150000347004F128036B440D2803F8180C01D00A2820
S31500003480F0D105F128030DEB0305002305F8163CE2
S3150000349004AB03939DF81030019F0296002B00F0B9
S315000034A04E810025029B1B78002B3BD0DDF80C904B
S315000034B099F80060002E35D002A8FFF771FF044688
S315000034C038B103A8FFF76CFFECE700238DF8243032
S315000034D0DEE7029A1346517813F8010B029325286A
S315000034E001D1252907D18E421CD109F101030232EF
S315000034F003930292D6E726462046A0461A7806F09F
S315000035007C01002A67D100B10293002967D109E046
S31500003510692A51D01ED8632A53D011D8392A07D820
S315000035202F2A35D8E8B20BB0BDE8F04304B0704797
S31500003530582AF7D146F0200601334FF0100833E041
S31500003540642AEFD146F4005646F0200601334FF0C8
S315000035500A0829E06F3AD1B20929E3D8092AE1D845
S3150000356001A151F822F000BFAD45200825452008ED
S315000035702545200825452008D14520082545200851
S3150000358049452008254520082545200835452008B9
S31500003590002CC7D10A211A78303A01FB042413F80B
S315000035A0012F303A092AF6D90120A7E746F020066E
S315000035B001334FF00808F7E746F020060133884646
S315000035C0F2E7012C46F0040638BF01240133EBE78D
S315000035D046F00806FAE700299AD000B10293002CBB
S315000035E008BF632408291BD0202940D0042999D17B
S315000035F057F8042B4946144400200E780B46013137
S315000036000EB938B94EE702F8016B94424FF001004B
S31500003610F3D10B46994503933FF444AF013541E797
S3150000362003A8FFF7BDFEDDF80CC057F8042B66466D
S3150000363014440021307810F0DF0F334606F10106FE
S3150000364001D161B92EE7A0F1090EBEF1040FF8D938
S3150000365002F8010BA2424FF00101EBD133469C4523
S3150000366003933FF41FAF374B00221A70D6E703A827
S31500003670FFF796FE039BB8F1000F10D0B8F1100FBC
S3150000368017D11A78302A14D15A7802F0DF02582A54
S315000036900FD102330393023C4FF0100809E01A7869
S315000036A0302A16D15A7802F0DF02582AF1D04FF0AC
S315000036B00808039B1A782B2A0ED02D2A0FD1013326
S315000036C00393013C4FF0FF31039A002014448446D3
S315000036D014E04FF00A08ECE701330393013C0121A3
S315000036E0F2E7A9F14103052B02D910B3039220E0BA
S315000036F0A9F1370315E00CFB083C012092F8009075
S315000037009646B9F1000FF0D0A242EED0A9F13003EF
S31500003710DBB2092B06D9A9F16103052BE1D8A9F182
S315000037205703DBB2984502F10102E4D808B1CDF89F
S315000037300CE057F8043B0CFB01F119606EE74FF003
S31500003740FF35EFE6F02B0000044802231421C218CF
S3150000375001334B2B82F80013F9D1704700E100E0EA
S31500003760064B1868002382B262F30F03000C60F365
S315000037701F4382B0184602B0704700BF740021088C
S315000037800E207047014803F04BBA00BF2400210801
S31500003790014803F045BA00BFD4FF2008014803F0F2
S315000037A03FBA00BF84FF200807B50023034A0093F1
S315000037B003F02CF803B05DF804FB00BFD4FF20082B
S315000037C037B5044602200D4600F0A2FCE2B2132AE9
S315000037D00346084A02D11178A52908D0127800922A
S315000037E02946054A204603F011F803B030BD6FF0B4
S315000037F00600FAE7600000002400210837B50446F9
S3150000380009200D4600F084FCE2B2132A0346084A5A
S3150000381002D11178A52908D0127800922946054AC6
S31500003820204602F0F3FF03B030BD6FF00600FAE762
S315000038306000000084FF2008014802F0DDBF00BFE1
S3150000384024002108014802F0D7BF00BFD4FF20089A
S31500003850014802F0D1BF00BF84FF20081FB5064B08
S315000038601B680293054B0193054B0093054B02F031
S31500003870B5FE05B05DF804FBE03000006C2D0000DD
S3150000388070000000240021081FB5064B1B68029338
S31500003890054B0193054B0093054B02F09FFE05B0C7
S315000038A05DF804FBE03000006C2D000070000000A5
S315000038B0D4FF20081FB5064B1B680293054B0193E6
S315000038C0054B0093054B02F089FE05B05DF804FB3D
S315000038D0DC3000007C2C00006400000084FF20081F
S315000038E007B5064B064A1B680193064B0093064B29
S315000038F003F06CFB03B05DF804FB00BFE030000092
S31500003900240021086C2D00007000000007B5064B4E
S31500003910064A1B680193064B0093064B03F056FBC1
S3150000392003B05DF804FB00BFE0300000D4FF2008C0
S315000039306C2D00007000000007B5064B064A1B6898
S315000039400193064B0093064B03F040FB03B05DF872
S3150000395004FB00BFDC30000084FF20087C2C000044
S315000039606400000007B5064B064A1B680193064B28
S315000039700093064B03F066FA03B05DF804FB00BF44
S31500003980E0300000240021086C2D000070000000CB
S3150000399007B5064B064A1B680193064B0093064B78
S315000039A003F050FA03B05DF804FB00BFE0300000FE
S315000039B0D4FF20086C2D00007000000007B5064BF0
S315000039C0064A1B680193064B0093064B03F03AFA2E
S315000039D003B05DF804FB00BFDC30000084FF200864
S315000039E07C2C000064000000014902F06DBD00BFA0
S315000039F024002108014902F067BD00BFD4FF20085A
S31500003A00014902F061BD00BF84FF20080149024858
S31500003A1002F03ABD70000000240021080149024866
S31500003A2002F032BD70000000D4FF2008034B0449A9
S31500003A3004484FF480029A6402F026BD00840424F0
S31500003A406400000084FF200807B5074B07491022D1
S31500003A509A60074B0193074B0093074A074B02F006
S31500003A606FFB03B05DF804FB0084042424002108E6
S31500003A7064300000E03000007000000000FC02002E
S31500003A8007B5074B074910229A60074B0193074B6E
S31500003A900093074A074B02F053FB03B05DF804FBA3
S31500003AA000840424D4FF200864300000E0300000C5
S31500003AB07000000000FC020007B5084B08494FF4EF
S31500003AC080025A64074B0193074B0093074A084B41
S31500003AD002F036FB03B05DF804FB00BF008404244B
S31500003AE084FF2008EC2F0000DC300000640000009A
S31500003AF0001C0624014B1870704700BF60000000D0
S31500003B00014803F09DB800BF24002108014803F0D6
S31500003B1097B800BFD4FF2008014803F091B800BF52
S31500003B2084FF2008012808D1094BC9B2D3F8F02038
S31500003B3061F30702C3F8F0207047022802D1054B53
S31500003B40C9B2F3E70328F7D1034BC9B2EEE700BFCA
S31500003B50000002440000014500080424012809D1A0
S31500003B600A4B9A696FF303029A61DA696FF30302EB
S31500003B70DA6170470228FCD1054B9A69012161F38D
S31500003B8003029A61DA6961F30302F1E70000024475
S31500003B9000000145012804D1074BD87900F0010047
S31500003BA07047022801D1054BF7E7032801D1044BE2
S31500003BB0F3E70020704700BF702C0000482C00007F
S31500003BC0202C000070477047064B1868002382B20D
S31500003BD062F30F03000C60F31F4382B0184602B075
S31500003BE0704700BFEC002108014B1868704700BF02
S31500003BF07C000000014804F081BD00BF7C0000008D
S31500003C00014904F039BD00BF7C000000014804F002
S31500003C1011BD00BF7C00000037B504460B200D46E1
S31500003C2000F076FA064B1B680193064B009302469A
S31500003C30054B2946204604F08DF803B030BD00BF81
S31500003C40DC300000640000007C000000014804F045
S31500003C507DB800BF7C000000014804F074B800BFC6
S31500003C607C0000007FB5104BD3E90354B2F5806F9A
S31500003C702E883ABF02F1FF33C3F3090340F2FF3344
S31500003C8063F30D162E80258863F30D15074B2580EB
S31500003C901B680293064B0193064B0093024B04F0FC
S31500003CA019F804B070BD00BF7C000000DC300000D5
S31500003CB07C2C0000640000000D4B1A69B1F5806F82
S31500003CC013B538BF01F1FF33148834BFC3F30903BA
S31500003CD040F2FF3363F30D14064B14801B68019307
S31500003CE0054B0093024A054B03F056FF02B010BD88
S31500003CF07C000000DC3000007C2C0000640000002A
S31500003D000D4BDA68B1F5806F13B538BF01F1FF339B
S31500003D10148834BFC3F3090340F2FF3363F30D1471
S31500003D20064B14801B680193054B0093024A054B12
S31500003D3003F084FE02B010BD7C000000DC30000001
S31500003D407C2C000064000000024B034A1B680349F8
S31500003D5003F0CCBDDC300000640000007C000000F5
S31500003D60034B044904484FF400129A6403F06EBDF5
S31500003D7000840424640000007C00000007B5064BA4
S31500003D800193064B0093064A064B074903F0CEFC07
S31500003D9003B05DF804FB00BFEC2F0000DC30000030
S31500003DA064000000001C06247C000000014803F0AB
S31500003DB095BB00BF04010000014803F08FBB00BFA4
S31500003DC0C0000000014803F089BB00BF7C00000072
S31500003DD0FFF7F8BF7FB5264E03788DF80D308DF8C6
S31500003DE0093033784278234D8DF80C2001210446A2
S31500003DF08DF80E108DF80820B3B1039806F042FB3B
S31500003E0003462860A8B962782079052A13D121785B
S31500003E10194B1A4A43F8214006F0ACFBA278184920
S31500003E2001238B54337004E006F0CEFB2860002893
S31500003E30E3D004B070BD042A10D1124D124A29787D
S31500003E4042F8214000930246104B1148415C02A8FB
S31500003E5006F034FA2B7801332B70DFE70D4D0E4A4E
S31500003E60297842F82140009302460C4B0C48EDE7B6
S31500003E70903100009431000074310000594F200841
S31500003E808C3100008E3100007C310000494F200843
S31500003E90480100008F31000084310000394F2008AE
S31500003EA05001000010B5044629B1042912D0BDE81E
S31500003EB0104007F0EDB94B2804D90D4840F2DB114C
S31500003EC006F09CFE240104F18C4404F59814606805
S31500003ED0C0B210BD0B2804D905484FF4EF7106F0A7
S31500003EE08DFE240104F1105404F59824EFE700BF79
S31500003EF0F000210870B5044641780078FFF7D2FF3C
S31500003F0043B2002561782078DEB2FFF7CBFF43B2DB
S31500003F10B342F6D10135B5F5FA7FF3D10549A2785A
S31500003F2020788A5C934214BF01210021FDF79AF99B
S31500003F3070BD00BF8C310000024B53F82000FFF724
S31500003F40D9BF00BF84310000024B53F82000FFF7B1
S31500003F50D1BF00BF7C310000024B53F82000FFF7B1
S31500003F60C9BF00BF743100000278052A15D843780E
S31500003F7022B93A2B34BF002021207047511E012957
S31500003F8005D9032A05D0042A05D0062BF2E7102B03
S31500003F90F0E70A2BEEE70C2BECE72120704713B570
S31500003FA0837804468BB9012006F03AFA63788DF8D7
S31500003FB0043023788DF8053000238DF806300198FB
S31500003FC002B0BDE8104006F05DBA0020ECE7000044
S31500003FD037B5831E5D425D4104468DF80500AD0090
S31500003FE001A88DF80450FFF7BFFF80B98DB94B2C9F
S31500003FF004D90B4840F24A2106F000FE240104F1E0
S315000040008C4404F59814636883F00103636003B07D
S3150000401030BD044A536A83F001035362F7E700BFD9
S31500004020F000210800C00424354BDFED366AD3F8D2
S31500004030102242F04002C3F8102207EE900AD3F88D
S315000040401022F4EEE67A42F01002F1EE10FA07EED4
S31500004050101A82B0C3F8102206DCF0EE086AB4EE3D
S31500004060E67AF1EE10FA08D5D3F8102242F02002D3
S31500004070C3F81022002002B070479FED237AF4EEB9
S31500004080C77AF1EE10FA10D5D3F810226FF30302B7
S31500004090C3F81022D3F810226FF38612C3F8102249
S315000040A0D3F810226FF30412E2E777EEC77ADFED5A
S315000040B0176A134A87EEA67AF7EE007A77EE277A22
S315000040C0FCEEE77ACDED017A9DF80430F6EE007A43
S315000040D077EE277A07EE103AB8EE477AB4EEE77A2B
S315000040E0F1EE10FAC2BFFCEEE77ACDED017A9DF84B
S315000040F00430D2F8101263F30301C2F81012B9E7C4
S315000041000038042433333340CDCCCC3F0AD7A33D0B
S31500004110D0B50E2800F27C82DFE810F00F005A00BE
S315000041209500D00004010F01410171018101900148
S31500004130B701DC010702320254024FF08C43DB69FF
S3150000414003F00703042B41D8DFE803F0033A3437C2
S315000041503D00844B9A6C013A052A37D8DFE802F015
S31500004160032224222628586C4FF08C43DC69DB6935
S31500004170C4F3C30413F0005F60D094B107F03AFAB9
S31500004180064620460F4607F035FA774B002207F021
S31500004190F5F802460B463046394607F0CFFB07F0E6
S315000041A03DFDD0BDD86ADFE7D86BDDE7186BDBE7EE
S315000041B0586BD9E76B4BD869D6E76A4B5869D3E792
S315000041C0684B9868D0E7674BD868CDE70020CBE707
S315000041D04FF08C43DB69C3F3C213042B2CD8DFE802
S315000041E003F003251F2228005E4B9A6C013A052A2C
S315000041F022D8DFE802F0030D0F0D1113586C4FF0B3
S315000042008C43DC69DB69C4F3832413F0804FB3E786
S31500004210D86AF4E7D86BF2E7186BF0E7586BEEE76D
S31500004220504BD869EBE74F4B5869E8E74D4B986818
S31500004230E5E74C4BD868E2E70020E0E7002CB0D079
S31500004240B0FBF4F0ADE74FF08C439B69C3F3C23388
S31500004250052B31D8DFE803F0032124272A2D414B13
S315000042609A6C013A052A27D8DFE802F0030F110FEE
S315000042701315586C4FF08C439B69C3F3C32213F498
S31500004280F04F8ED0B0FBF2F08BE7D86AF2E7D86B2E
S31500004290F0E7186BEEE7586BECE7324B9868E9E706
S315000042A0304B1869E6E72F4B5869E3E72D4BD86981
S315000042B0E0E72C4BD868DDE70020DBE74FF08C43C6
S315000042C09B6AC3F34243032B2AD8DFE803F002209C
S315000042D02326244B9A6C013A052A21D8DFE802F0FE
S315000042E0030F110F1315586C4FF08C439A6AC2F3E3
S315000042F0055312F07C7F3FF454AF5B004CE0D86A64
S31500004300F2E7D86BF0E7186BEEE7586BECE7154B66
S315000043105869E9E7134B9868E6E7124BD868E3E774
S315000043200020E1E74FF08C42936903F00703032B6B
S3150000433025D8DFE803F0081B1E214FF08C42D36F0F
S31500004340C3F34223F3E7074BD86A91699369D269AD
S315000043508C05C3F3C503C2F3007212D5B2B9DBB93B
S315000043601FE700BF902B00000000E03F824BD8699A
S31500004370EBE7814B5869E8E77F4B9868E5E7002053
S31500004380E3E71AB9002BB8D140080AE7D9077FF549
S3150000439008AF022B7FF605AFB0FBF3F001E74FF055
S315000043A08C439B69C3F30263042B00F23181DFE87F
S315000043B013F0DF0005001D00200023006E4B9A6CF1
S315000043C0013A052A00F22481DFE812F0060008000F
S315000043D00B0008000D00F700586CE2E6664BD86A41
S315000043E0DFE6D86BDDE6644B186BDAE6624B98685D
S315000043F0D7E6614BD869D4E65F4B5869D1E64FF0F2
S315000044008C42936913F4802F5B4B0CBF58699868F4
S31500004410936992691202C3F3C343B3D59FE74FF082
S315000044208C439A6A12F4806F534A0CBF9069D06825
S315000044309A6AC2F3C52312F4FC3F5CE74F4A9369BC
S315000044401B0F062B1FD8DFE803F0040C0F121518FC
S315000044501B00494B58689369C3F3464213F47E0F19
S315000044600FE7454B186AF6E7434B586AF3E7424BAA
S31500004470986AF0E7404BD86AEDE73F4B186BEAE7DE
S315000044803D4BD868E7E70020E5E73C4AD369C3F32C
S315000044904303052B1CD8DFE803F0030C0F12151895
S315000044A0354B5868D369C3F34713002B7FF425AF08
S315000044B077E6314B186AF5E72F4B586AF2E72E4B31
S315000044C0986AEFE72C4BD86AECE72B4B186BE9E7B9
S315000044D00020E7E7294A136AC3F34303072B22D8D0
S315000044E0DFE803F0040C0F1215181B1E224B586848
S315000044F0136AC3F3421213F0E00FC2E61E4B186AAA
S31500004500F6E71D4B586AF3E71B4B986AF0E71A4B20
S31500004510D86AEDE7184B186BEAE7174BD868E7E758
S31500004520154B586BE4E70020E2E7144B1B6BC3F313
S315000045304303062B6CD801A252F823F059552008E4
S315000045405F552008655520086B552008DD53200867
S31500004550E753200871552008074B586821E6064B9B
S31500004560186A1EE6044B586A1BE6034B986A18E65F
S31500004570014BD86815E600BF902B000000140424F8
S31500004580244B5B6BC3F34303082B41D801A252F8BB
S3150000459023F000BF595520085F55200865552008AF
S315000045A06B552008DD532008E75320087155200875
S315000045B0B9552008BF552008174B586BF1E5164B27
S315000045C09869EEE5134AD36AC3F34303062B1DD855
S315000045D0DFE803F0040A0D10131619000E4B586895
S315000045E0D36AC3F34713BAE60B4B186AF8E70A4BCC
S315000045F0586AF5E7084B986AF2E7074BD86AEFE77F
S31500004600054B186BECE7044BD868E9E70020E7E7B1
S315000046100020C6E500140424902B0000024B1B6802
S31500004620D3F8BC30184700BF00013000024B1B68AE
S31500004630D3F8CC30184700BF00013000024B1B688E
S31500004640D3F8EC30184700BF00013000024B0121BF
S315000046509B69C0B2184700BFB8310000FFF7F6BF2C
S315000046601346054A126810B4546C0A46A446002143
S315000046705DF8044B604700BF00013000034B1B6A26
S3150000468002469B6A02480121184700BF000130001C
S3150000469000140424104B114A1B7F82B0012BADF885
S315000046A004000F4BC0B24FF400610DD9116020B960
S315000046B0D3F808220A43C3F808225A68002042F0B9
S315000046C001025A6002B0704711600028F5D1D3F894
S315000046D0082242F40062EEE7B831000000E100E093
S315000046E0003804242DE9F04F224B234893F81CE0B0
S315000046F0224B1A7800231C4602F59875D9B28E45CE
S315000047000CD8DFF880800023A8F5107902F5907C9C
S31500004710DAB2964509D80020BDE8F08F30F81510BA
S315000047208C4238BF0C460133E8E743B929F81C3000
S315000047300133EDE7B5F820B0594489B20AE0002705
S315000047401FFA83FABEB2B442F2D900220C4D1046CB
S3150000475035F8021FA14203D2B142EBD1013292B227
S31500004760013080B25045F3D30137002AEAD128F848
S315000047701360DDE7B8310000D8310000B431000025
S315000047801634000018340000012800D17047C30712
S3150000479001D44008F8E70020704703460120834211
S315000047A008DC00EBD072A3EB6203B3EBA00FB8BF3B
S315000047B0400870474000F2E707EE100ADFED087A7E
S315000047C0084837EE277AF7EE006AC6EE877AFCEEDF
S315000047D0E77A17EE903A834228BF03461846704799
S315000047E095BFD633404B4C0084B0F0B506AC84E898
S315000047F00E00DFED957A002123AC0DF16B050A461C
S315000048000B46CEB2B04200F2AF80002B00F0A38080
S31500004810B0EE007AF4EEC77AF1EE10FAB0EE047A52
S3150000482005DBF4EEC77AF1EE10FA00F1DF80F4EE64
S31500004830C77AF1EE10FAB0EE087A05DBF4EEC77A25
S31500004840F1EE10FA00F1D880F4EEC77AF1EE10FA24
S31500004850B1EE007A05DBF4EEC77AF1EE10FA00F15C
S31500004860CE80F4EEC77AF1EE10FAB1EE047A05DBEB
S31500004870F4EEC77AF1EE10FA00F1C480F4EEC77ACE
S31500004880F1EE10FA07DBB1EE087AF4EEC77AF1EE34
S3150000489010FA00F1BA80B1EE0C7AF4EEC77AF1EEB6
S315000048A010FAB2EE007A05DBF4EEC77AF1EE10FAF2
S315000048B000F1AE80F4EEC77AF1EE10FAB2EE027AAB
S315000048C005DBF4EEC77AF1EE10FA00F1A480F4EEFF
S315000048D0C77AF1EE10FA06DBB2EE047AF4EEC77A86
S315000048E0F1EE10FA6FD4B2EE087AF4EEC77AF1EE72
S315000048F010FA06DBB2EE0C7AF4EEC77AF1EE10FA95
S315000049006ED4B3EE017AF4EEC77AF1EE10FA06DB56
S31500004910B3EE027AF4EEC77AF1EE10FA63D4B3EE90
S31500004920097AF4EEC77AF1EE10FA06DBB3EE0A7AEC
S31500004930F4EEC77AF1EE10FA70D9B3EE0B7AF4EE14
S31500004940C77AF1EE10FA06DB9FED407AF4EEC77AED
S31500004950F1EE10FA74D9DFED3E7A9FED3E7A002A29
S3150000496018BFF0EE477A65E015F8016FA6F1140C52
S31500004970BCF1020F2F7C0FD894ED007AB4EEE77AE3
S31500004980F1EE10FA03DD0133DBB2F0EE477A0D2FBC
S3150000499016D00131043434E7A7F10A0CBCF1020F3A
S315000049A00CD894ED007AB4EEE77AF1EE10FA03DD56
S315000049B00133DBB2F0EE477A182EE9E7182EE6D17E
S315000049C00132D2B2E5E7DFED247A9AB39FED217A80
S315000049D0F4EEC77AF1EE10FA23D5F0EE477A29E025
S315000049E0DFED1E7AF1E7DFED1E7AEEE7DFED1D7AE9
S315000049F0BAB1DFED187A1DE0DFED1B7AF8E7DFEDDF
S31500004A001B7AF5E7DFED1A7AF2E7DFED1A7AEFE7C0
S31500004A10DFED197AECE7DFED197AE9E7DFED187AD1
S31500004A2042B19FED0B7AF4EE477AF1EE10FA48BFE9
S31500004A30F0EE477ABDE8F04017EE900A04B07047F2
S31500004A40DFED107AECE700BF0000000000004C42EA
S31500004A5095BFD6338BE16A36ACC5A735EFE6083687
S31500004A609F9D42362E5A823301A90C3437F85934A9
S31500004A702439EC3434580F35AD186335883E8A3501
S31500004A80B1B49D36F2DD1C3770B50D4616460446A8
S31500004A90D0B9FFF7D3FDAA4807222146FFF7E0FD6C
S31500004AA0002D40F0AA81012E00F09F810B2C1DD015
S31500004AB00C2C40F0F5800520FFF7C0FDA04807222A
S31500004AC00521FFF7CDFD98E0012818D10220FFF758
S31500004AD0B5FD9B4807220221FFF7C2FD002D76D1C6
S31500004AE0012E00F082810B2C40F0DA800320FFF7C4
S31500004AF0A5FD072203219248FFF7B2FD96E00228A2
S31500004B000ED10420FFF79AFD072204218C48FFF7F7
S31500004B10A7FD002D00F06681012D40F0778155E15B
S31500004B20032805D10620FFF789FD07220621EDE7B8
S31500004B30042805D10820FFF781FD07220821E5E7B3
S31500004B40052805D10A20FFF779FD07220A21DDE7AE
S31500004B5006280CD17B4B20225A601920FFF766FDF0
S31500004B601920FFF75BFD78480E221921B4E70728C4
S31500004B701ED1744B20225A601B20FFF757FD1B20C5
S31500004B80FFF74CFD0E221B216F48FFF769FD002D34
S31500004B9000F02881012D40F0D980012E00F0198106
S31500004BA00C2C21D10520FFF749FD07220521A2E79C
S31500004BB0082840F0FD80634B20225A601D20FFF735
S31500004BC035FD1D20FFF72AFD0E221D21DCE70B2CEB
S31500004BD01ED0012D40F01A81012E00F0FA800C2C17
S31500004BE0E0D00D2C00F0C1800E2C50D00F2C6FD0D1
S31500004BF0102C75D12EE0022D40D0032D52D1012E5E
S31500004C0059D00E2C70D00F2C62D0102C30D121E050
S31500004C100320FFF713FD4A4807220321FFF720FD73
S31500004C20022D2BD0032D03D1012E44D0002070BDC0
S31500004C30042D00F0A480052DDAD1012E40F0A380CA
S31500004C400720FFF7FBFC07223D481146FFF708FD4A
S31500004C50102C5ED13B4B20225A601A20FFF7E6FC4F
S31500004C601A20FFF7DBFC38480E221A21FFF7F8FC62
S31500004C70112C50D0072D5CD1012E88E0012ED5D104
S31500004C8069E0012E67D00D2C0FD00E2CBBD1092068
S31500004C90FFF7D4FC2A4807220921FFF7E1FCCAE7FF
S31500004CA00D2C62D00E2C68D1F1E70B20FFF7C6FC65
S31500004CB007220B211FE70B20FFF7C0FC2048072225
S31500004CC00B21FFF7CDFC8FE70E2CE0D00F2CB2D1D5
S31500004CD00720FFF7B3FC072219481146FFF7C0FC6F
S31500004CE0062DC5D1012E4FE00920FFF7A7FC0722AC
S31500004CF0092100E70920FFF7A1FC11480722092135
S31500004D00FFF7AEFC7FE70720FFF798FC0722114666
S31500004D10F1E6112C0DD10B4B20225A601C20FFF717
S31500004D2085FC1C20FFF77AFC07480E221C21FFF7A2
S31500004D3097FC122C2FD0082D7FF478AF012E28E097
S31500004D4000C004240000304100001346022D7FF409
S31500004D5054AF012E99D10520FFF770FC2E4807228B
S31500004D600521FFF77DFC0D2CAED10B20FFF766FC6D
S31500004D70294807220B21FFF773FC042DA6D1012E2B
S31500004D80B8D00F2CBFD0102C3FF464AF112CC2D07A
S31500004D90122C7FF44BAF214B20225A601E20FFF7C6
S31500004DA045FC1E20FFF73AFC1D480E221E21A3E6F5
S31500004DB00A287FF475AE0120FFF740FC164807224B
S31500004DC00121FFF74DFC012D7FF415AF012E7FF475
S31500004DD02DAF0320FFF732FC0F4807220321FFF710
S31500004DE03FFC65E6012E7FF421AF0120FFF726FC8C
S31500004DF0094807220121FFF733FC0B2C3FF408AFCB
S31500004E00012D3FF4E9AE0C2C3FF455AE022D3FF4D4
S31500004E1038AF0D2CA9D0F0E600C0042400003041C4
S31500004E20000013462DE9F0410F29BDF81850BDF8D2
S31500004E301C609DF820809DF824E055D845EA0604BC
S31500004E40B4F5806F50D22B4C01F1100701F1400CE4
S31500004E5044F8273001F150079A4244F8212024F8FB
S31500004E601C5024F8176041D0B8F1000F17D001F19B
S31500004E70300802EB4502C0F8D42144F8282045EA60
S31500004E80C12242F40048C0F8D881D0F8D881C0F8D1
S31500004E90D821D0F8D82144F82C8044F82720BEF138
S31500004EA0000F02D10020BDE8F08101F1600205EBA0
S31500004EB046052B44C0F8D43144F82230CB0203F522
S31500004EC08063334343F40042C0F8D82101F17002F5
S31500004ED0D0F8D85144F822508031C0F8D831D0F8F3
S31500004EE0D83144F82130DDE70120DCE742F2021038
S31500004EF0D9E700BFD83100000F2910B528D892B1E4
S31500004F00144A01F1300452F82440C0F8D44101F1AA
S31500004F10400452F82440C0F8D84101F1500452F838
S31500004F202420C0F8D8218BB10A4B01F1600253F856
S31500004F302220C0F8D42101F17002803153F82220DA
S31500004F4053F82130C0F8D821C0F8D831002010BD60
S31500004F500120FCE7D831000010B5274B27485A68D6
S31500004F605A6842F001025A60D3F8082242F480627D
S31500004F70C3F8082203F5B4331A68026852BBD3F8A3
S31500004F80402442F46752C3F840241D4AD2F8023046
S31500004F90DC05FBD41B4BD3F80427D107FBD5D3F88C
S31500004FA00427D207FBD4D3F84824174C174B2168A3
S31500004FB01A60930803F4F8530B43910001F07C0147
S31500004FC012020B4302F47832134343F08103236049
S31500004FD0012303600C4B1A680A4BC3F84424084AA1
S31500004FE0D2F8023013F48073FAD1034A516863F39E
S31500004FF00001516010BD00BF00380424A831000034
S315000050000000052400A00524B0310000AC310000EA
S315000050100F29024610B54FF001000CD8D2F8CC414A
S3150000502000FA01F32343D2F8CC119BB263F30F01CC
S31500005030C2F8CC11002010BD0F29024610B54FF062
S3150000504001000DD8D2F8CC4100FA01F343EA14432B
S31500005050D2F8CC119BB263F31F41C2F8CC110020E9
S3150000506010BD30B50F299DF80C402CD81F2A2AD820
S315000050700F2B28D8012C26D845686D060FD50901B7
S3150000508034B14518AC6B44EA835343F08063AB6399
S3150000509001448B6B43EA42438B63002030BD5CB115
S315000050A0D0F8081241F40071C0F80812D0F80812BE
S315000050B063F34811C0F80812D0F8083262F304030B
S315000050C0C0F80832E9E70120E8E7000029B9D0F87E
S315000050D0083261F3CB23C0F80832064B5B68DB0766
S315000050E041BF43686FF300034360002058BF4FF091
S315000050F0FF30704700380424C1B2024882B002B0C3
S31500005100FFF7E4BF003804240F2915D80D4B5A6861
S31500005110520603D4D3F8DC31002B0FDAD0F8DC21A9
S3150000512001238B401343D0F8DC219BB263F30F02BB
S31500005130C0F8DC2100207047012070474FF404506E
S31500005140704700BF00380424B1F5007F14D2B2F5D1
S31500005150806F11D243686FF38A234360C36861F39B
S315000051601843C360C36862F30903C360436843F42A
S315000051708063436000207047012070470F2925D8BF
S31500005180012A05D1436A6FF3D75343620020704763
S31500005190022A0BD1436A6FF300034362436A6FF33B
S315000051A004134362436A6FF3C303EEE7084BD3F875
S315000051B0DC31002BEADA436A0122C3F3CF138A40BB
S315000051C023EA0201436A61F3D613DEE70120704742
S315000051D0003804240F2903464FF0010014D81A6A38
S315000051E000FA01F189B2186AC2F30F220A4362F388
S315000051F0172018621A6AC2F30F2222EA0102196AFC
S3150000520062F31721196200207047000008B510B13B
S3150000521001280ED008BD4FF4006003F0E7FE104BE6
S315000052204FF000725A640F4A137843F0010313706B
S31500005230F0E74FF4006003F0F3FE0A4A13786FF3C9
S3150000524000031370DBB2002BE4D1074B07481B6A3F
S315000052500221DB6B9847024B4FF000729A64D9E744
S3150000526000840424083500000001300000140424E2
S3150000527084B0F0B52DED028B83B00AAC84E80F0044
S315000052805A4D709B0F9CAB61594B9DF8BD61BDF8A3
S315000052901C112E77621E9A4280F0A4800FAA012369
S315000052A09E420AD8012E40F081809DF8BC3183B120
S315000052B0012911D942F2061071E0174652F8040F7F
S315000052C03F68B84200F28E80002800F08B800133E0
S315000052D0E6E7B1F5806FEDD20020FFF797FF0420D7
S315000052E0FFF7CCF9434B44485A686FF38A225A6059
S315000052F0DA686FF31842DA60DA68042161F30902AA
S31500005300DA605A683D4942F480625A60FEF78CFEC4
S31500005310FFF722FE012E16BF7443A4006400B4F505
S31500005320FA4F46D20220FFF7A9F94FF4FA436B6011
S3150000533003F0F4FF288103F0E5FF288203F0F4FF71
S31500005340C0F30D0307EE103A9FED2D8AB8EEC77A2B
S31500005350830BC7EE086A07EE903AF8EEE77A77EE27
S31500005360A67AC5ED037A03F0D3FFC0F30D0307EE6B
S31500005370103AB8EEC77A830BC7EE086A01A807EEA3
S31500005380903AF8EEE77A002377EEA67A0193C5ED18
S31500005390057A04F0E7FC003818BF0120404203B04C
S315000053A0BDEC028BBDE8F04004B07047731E0F2BB6
S315000053B07FE7144BA4F5FA449C4204D80420FFF777
S315000053C05DF9114BB3E7114BDC6914F0080407D102
S315000053D0022004F0FFF82046FFF750F90C4BA6E731
S315000053E00C4BA4E742F20410D9E700BFB831000025
S315000053F0A02526000038042433333340CDCC4C405E
S3150000540000007A4400B80B000048E80100000812CA
S31500005410005A6202002D310184B070B52DED028B69
S3150000542082B008AC84E80F00574C9DF820206E9996
S31500005430A16108A901EB820154484969544E9DF8BF
S31500005440B531327001398142237780F09A80012B81
S315000054507AD108AB03EB4202B2F8F4309DF8B421DE
S3150000546022B1012B05D942F2061066E0B3F5806F32
S31500005470F9D20020FFF7CAFE0420FFF7FFF8454BDC
S3150000548045495A6845486FF38A225A60DA686FF3CD
S315000054901842DA60DA68042565F30902DA605A68A8
S315000054A042F480625A60FEF7BFFDFFF755FD337880
S315000054B008AA02EB830342F228325B69934246D87C
S315000054C00220FFF7DBF84FF4FA43636003F026FF90
S315000054D0208103F017FF208203F026FFC0F30D039F
S315000054E007EE103A9FED2E8AB8EEC77A830BC7EE09
S315000054F0086A07EE903AF8EEE77A77EEA67AC4EDF8
S31500005500037A03F005FFC0F30D0307EE103AB8EE79
S31500005510C77A830BC7EE086A01A807EE903AF8EE41
S31500005520E77A002377EEA67A0193C4ED057A04F0B4
S3150000553019FC003818BF0120404202B0BDEC028BB6
S31500005540BDE8704004B07047013B0F2B8AE7154A4F
S31500005550A3F50C53293B93420BD82846FFF78EF848
S31500005560114BDA6A114B9A4201D1104BADE7104B41
S31500005570ABE7104BDB691B07F9D4022004F02AF8CD
S31500005580EBE742F20410D8E7B8310000A025260068
S31500005590B431000000380424CDCC4C4033333340C2
S315000055A000007A44D6110C00902B00000048E80158
S315000055B0002D31010000081213B50D4BADF80400A3
S315000055C04FF40062C3F88020BFF34F8FBFF36F8F95
S315000055D003220121002004F099FC044628B9012089
S315000055E0FFF714FE204602B010BD4FF0FF30FAE779
S315000055F000E100E04368064A61F349234360D2F8BC
S31500005600403443EA4143C2F840340020704700BFAB
S3150000561000A0052484B02DE9F04F2DED048BEDB0EC
S315000056207AAC84E80F009DF87D3362934FF4C47220
S3150000563001237DA9684669939DF87C53DFF894A3FE
S3150000564007F07EFC94E80E006298FFF7CDF808EEAE
S31500005650900AFFF7B1F8DAF8048007EE900A07EE31
S31500005660108AF8EE677AB8EE477AB7EE008A88EEC7
S31500005670079A88EE277AC7EE097A17EE900A05F0A0
S31500005680DBFF09F04DFA06F0C9FAC8EE897A84B252
S3150000569017EE900A05F0D0FF09F042FA06F0BEFABE
S315000056A086B2B44208BF01347F9F08BFA4B2002D62
S315000056B065D1B8FBF4F3AAF80060AAF80240DFF857
S315000056C018A363930DF5FC7B5146AAF25E284FF0B2
S315000056D00209629AEBB29A4200F2C880B74DDFF82F
S315000056E0F4B2FEF7FFFF224631462846FFF72CFDAF
S315000056F001212846FFF77EFF6B68B14E43F0006339
S315000057006B606B6843F040036B606B686FF341033B
S315000057106B603323C5F8E4316B6843F004036B60B8
S31500005720D5F8DC3143F00043C5F8DC310DF2DA235D
S31500005730659306F18103A6AF06F13E0A66930DF561
S31500005740F47800246791629AE3B29A4200F2D78015
S315000057509C4B6A9300229C4B6B9369A9104604F0FC
S3150000576039FB10B1452840F0258169996AAA0020C5
S3150000577004F09EFB003818BF0120404269E0204635
S3150000578005F048FFB8FBF7F780463846894605F02E
S3150000579031FF02460B464046494606F017FA0028F6
S315000057A05ED1AAF80060AAF8024022463146834834
S315000057B0FFF7CAFC01218148FFF71CFF7F4B5A689F
S315000057C042F000625A605A686FF386125A606A1E87
S315000057D0012A5A684FF0000194BF42F0020265F3B5
S315000057E041025A60C3F8E4115A6842F004025A6052
S315000057F0D3F8DC2161F3DF72C3F8DC219DF8E921DF
S315000058009DF83C029DF84C125AB1D3F8084262F357
S315000058104924C3F80842D3F8084261F34814C3F890
S315000058200842664CD4F8083260F30403C4F8083220
S31500005830FFF72AF92A4600212046FFF79FFCBAF80F
S315000058400220DAF80430B3FBF2F3604A0020C2F813
S3150000585080326DB0BDEC048BBDE8F04F04B07047EC
S31500005860BAB2AAF80060AAF802209FE79DBB639B24
S31500005870B3FBF7F39BB2012B8CBFA8F86032A8F8F4
S315000058806092629B012B08D04A881046FEF77CFF87
S3150000589018B91046FEF781FF4880DFED4D7A524673
S315000058A000231FFA85FC32F8020F07EE100AB8EE45
S315000058B0477A0133C8EE076A9BB2634577EEA67A4C
S315000058C0F1D9F4EEC87AF1EE10FA0DDC01350231A9
S315000058D00BF1040BFDE6DBE90032B3FBF2F20B88B9
S315000058E013FB02F34B80CCE75246002332F8020F3B
S315000058F001339BB2400063451080F7D9E6E798F87C
S31500005900549098F86430649318F8013F63930093B9
S315000059104A462146649B2846FFF7A3FB36F8021F3A
S31500005920328C012A08D0A30003F1105303F5872314
S31500005930A3F83811C3F8782121462846FFF7E4FB7F
S31500005940DDE963214846FFF79FF821462846FFF721
S3150000595073FB659B33F8029F6593679BCDE90099BE
S31500005960CDE902332146D7F8A4307A6E2846FFF7F0
S3150000597059FA21462846FFF74BFB002221462846C6
S31500005980FFF7FCFBBBF80220DBF80430B3FBF2F3B5
S31500005990328CB3FBF2F34AF8043F57F8043FA6F8FB
S315000059A0D090CAF85030669B639A03F8012F0134F1
S315000059B06693C8E64FF0FF304BE700BF003804247B
S315000059C0163400004D5620085D562008D8310000D8
S315000059D000000000B83100003634000084B02DE924
S315000059E0F04F2DED048BEBB078AC84E80F00214628
S315000059F09DF87533DFF810A311F80C8B62934FF402
S31500005A00C4720123684667939DF874638AF8008020
S31500005A1007F096FA94E80E006298B44DFEF7E4FE9D
S31500005A2008EE900AFEF7C8FED5F804B007EE900A15
S31500005A3007EE10BAF8EE677AB8EE477AB7EE008A44
S31500005A4088EE079A88EE277AC7EE097A17EE900A4B
S31500005A5005F0F2FD09F064F806F0E0F8C8EE897A80
S31500005A6084B217EE900A05F0E7FD09F059F806F042
S31500005A70D5F887B2BC4204BF0134A4B2002E55D17A
S31500005A80BBFBF4F378AA649308F1040302EB8303E7
S31500005A9097492F806C800DF5F8796593629AF3B279
S31500005AA09A4200F2C180934EFEF71CFE224639460A
S31500005AB03046FFF749FB01213046FFF79BFD73682F
S31500005AC08D4C43F000637360736843F0400373606A
S31500005AD073686FF3410373603323C6F8E431736868
S31500005AE043F004037360D6F8DC3143F00043C6F894
S31500005AF0DC310027629AFBB29A4200F207817F4BA3
S31500005B00689300227E4B699367A9104604F062F9F8
S31500005B1010B1452840F07B81679968AA002004F0FF
S31500005B20C7F9003818BF0120404271E078AB03EB9B
S31500005B3088082046D8F81430BBFBF3FB05F06AFD55
S31500005B4080465846894605F055FD02460B464046B6
S31500005B50494606F03BF8002861D12F806C8022462A
S31500005B6039466448FFF7F0FA01216248FFF742FD23
S31500005B70604B5A6842F000625A605A686FF38612A8
S31500005B805A60721E012A5A684FF0000194BF42F013
S31500005B90020266F341025A60C3F8E4115A6842F001
S31500005BA004025A60D3F8DC2161F3DF72C3F8DC210A
S31500005BB09AF8002002F5F0726A4492F8540092F8BE
S31500005BC0641052785AB1D3F8084262F34924C3F8F4
S31500005BD00842D3F8084261F34814C3F80842454F17
S31500005BE0D7F8083260F30403C7F80832FEF74CFF13
S31500005BF09AF80040324621463846FFF7BFFAA034ED
S31500005C006A886B68B3FBF2F33B4A42F82430002003
S31500005C106BB0BDEC048BBDE8F04F04B070471FFAC3
S31500005C208BF22F806A809BE708F59873DFF8C8B07F
S31500005C306393002E50D1659B649A5B68B2FBF3F3C5
S31500005C409BB2639A012B98BF02232BF81230629BFA
S31500005C50012B08D04A881046FEF796FD18B9104663
S31500005C60FEF79BFD488078AB03EB4803B0B2B3F870
S31500005C70F430012B01BF08F598723BF812309B08EF
S31500005C802BF81230639B3BF8133007EE903AF8EE90
S31500005C90677A002288EE277ADFED1A7A01321FFA38
S31500005CA082FC844577EE877AF8D9F4EEC87AF1EE6D
S31500005CB010FA0CDD002201321FFA82FC5B008445DB
S31500005CC09BB2F8D90C4808F5987220F812300136C4
S31500005CD0023109F10409E1E6D9E90032B3FBF2F237
S31500005CE00B8813FB02F34B80B1E700BFB83100000D
S31500005CF03634000000380424D83100004D56200800
S31500005D005D56200800000000B43100009AF800102B
S31500005D10639101F5F0736B44304693F8548093F821
S31500005D20649093F801B0CDF800B04B464246FFF7B9
S31500005D3098F9639901F5907334F8130001F5987397
S31500005D4034F81320012A08D08B0003F1105303F511
S31500005D508723A3F83801C3F878213046FFF7D4F932
S31500005D605A4649464046FEF78FFE9AF8008030466E
S31500005D704146FFF761F978AB03EB480378AAB3F81D
S31500005D80F43002EB88000122CDE90222CDE900338E
S31500005D904146D0F85431D0F814213046FFF742F886
S31500005DA09AF8008030464146FFF732F94146002214
S31500005DB03046FFF7E3F908F1A00269886B68B3FB88
S31500005DC0F1F308F59871013734F81110B3FBF1F3CC
S31500005DD044F8223078AA02EB480208F5C473B2F8F8
S31500005DE0F42024F8132078AA02EB880208F1B40301
S31500005DF0D2F8B42044F8232008F5F07204EB080327
S31500005E000DEB020898F8012083F8C02272E64FF0E5
S31500005E10FF30FDE6D0F8E03143F00103C0F8E03191
S31500005E20002070472DE9F341374B9A6A0192019A97
S31500005E3016020DD5426A1502C2F3C05008D45A6A3A
S31500005E4042F400025A62314B9B690421984718E0DC
S31500005E50019BDC0709D52C4A136A43F00103136240
S31500005E602A4B05219B690020F0E7019C14F0807401
S31500005E700BD02548012100F095F8254B02201B6820
S31500005E809847002002B0BDE8F0811F4B5A685006C3
S31500005E9003D4D3F8DC31002B24DA1E4D1A4E1B4FE7
S31500005EA0019BE21DD340D90717D521463046FFF79F
S31500005EB091F92B785FFA84F8B3FA83F252094146D6
S31500005EC03046FFF719F8BB6913B1002140469847E1
S31500005ED02B78B3FA83F35B092B700134102C05F190
S31500005EE00105DDD1084B5A689207CAD4D3F8DC11F4
S31500005EF0C90FC6D15A6842F004025A600198034B92
S31500005F00C0B29B69A2E700BF00380424B831000084
S31500005F100C350000983100000148FFF783BF00BF31
S31500005F2000380424030548BF20F40060174B58BF0F
S31500005F3040F40060D1B11A8A93ED057A821A07EE11
S31500005F40902AF8EEE77A67EE877AFDEEE77A17EEA3
S31500005F50903A18B2B0F5805F11DA002812DDB0F57C
S31500005F60006F10DBA0F5006000B270471A8993ED50
S31500005F70037A821A07EE902AF8EEE77AE3E740F60C
S31500005F80FF70EFE7002000F50060EDE7B831000094
S31500005F90406921B11146C0F30B00FFF7C3BFC0F340
S31500005FA00B007047436A01291DBF43F00203436299
S31500005FB0436A43F0807318BF43F004034362002032
S31500005FC070472DE9F04F92F806C092F802A0537878
S31500005FD0D5781679577992F807E092F8088092F802
S31500005FE0099092F80AB0D47A127802B35B0643EAB3
S31500005FF04B7343EA8A5343EA495343EA085343EA55
S315000060004E4343EA0C4343EA47330901026843EA35
S31500006010C62301F1105143EA852301F5872142F099
S31500006020004243EA44230260CB63BDE8F08F026876
S315000060306CF3C712026002686AF34F3202600268AC
S3150000604063F313420260036865F341030360036868
S3150000605066F383030360036867F30613036003684C
S315000060606EF30A230360036868F3CB2303600368B7
S3150000607069F30C33036003686BF31453036003681E
S3150000608064F300030360D0E710B4034C2468646C27
S31500006090A4465DF8044B604700013000024B1B68C4
S315000060A0D3F8B830184700BF00013000024B1B6818
S315000060B0D3F8C030184700BF00013000024B1B6800
S315000060C0D3F8C830184700BF00013000024B1B68E8
S315000060D0D3F8E830184700BF00013000072806D97A
S315000060E0102834BF02230423024A13707047012389
S315000060F0FAE700BF1635000038B590F8343003F0E3
S31500006100FD03012B044616D1006805699DB9E26AB4
S31500006110937113680BB9012038BD084A821A5042A0
S315000061205041C00740F004009847E36A9A79002A74
S31500006130F1D09D71EFE70020EEE700BF00080424D0
S3150000614073B5CB6ADE7916F001060C464FF00005F2
S3150000615040F093819E809E7118601C22206B314610
S3150000616006F02EFE94F834305A1E012A00F23881C9
S31500006170E368587840280CD94038C0B2FFF7A6FF2C
S31500006180E36895485A78403A0623D2B23146FFF77B
S315000061907BFFE16891488B784A780978FFF774FFAE
S315000061A0E368D87808B1FFF781FFE3685878FFF70E
S315000061B085FFE3685878A0F11903052B01D8FFF78E
S315000061C06DFF23693BB3587840280CD94038C0B2DC
S315000061D0FFF77CFF236980485A78403A0623D2B2FB
S315000061E00021FFF751FF21697C488B784A780978AE
S315000061F0FFF74AFF2369D87808B1FFF757FF2369ED
S315000062005878FFF75BFF23695878A0F11903052B2F
S3150000621001D8FFF743FF63693BB3587840280CD990
S315000062204038C0B2FFF752FF63696B485A78403A6C
S315000062300623D2B20021FFF727FF616967488B78F2
S315000062404A780978FFF720FF6369D87808B1FFF725
S315000062502DFF63695878FFF731FF63695878A0F11D
S315000062601903052B01D8FFF719FFA3693BB358782B
S3150000627040280CD94038C0B2FFF728FFA36956481A
S315000062805A78403A0623D2B20021FFF7FDFEA169F3
S3150000629052488B784A780978FFF7F6FEA369D878D2
S315000062A008B1FFF703FFA3695878FFF707FFA36953
S315000062B05878A0F11903052B01D8FFF7EFFEE36923
S315000062C03BB3587840280CD94038C0B2FFF7FEFEE1
S315000062D0E36941485A78403A0623D2B20021FFF7D3
S315000062E0D3FEE1693D488B784A780978FFF7CCFE02
S315000062F0E369D87808B1FFF7D9FEE3695878FFF764
S31500006300DDFEE3695878A0F11903052B01D8FFF7E4
S31500006310C5FE6368587840280CD94038C0B2FFF7EC
S31500006320D5FE63682C485A78403A0623D2B200213B
S31500006330FFF7AAFE616829488B784A780978FFF743
S31500006340A3FE6368D87808B1FFF7B0FE6368587893
S31500006350FFF7B4FE63685878A0F11903052B01D83E
S31500006360FFF79CFEA368587840280CD94038C0B285
S31500006370FFF7ACFEA36818485A78403A0623D2B213
S315000063800021FFF781FEA16814488B784A780978C6
S31500006390FFF77AFEA368D87808B1FFF787FEA368EF
S315000063A05878FFF78BFEA3685878A0F11903052BE0
S315000063B001D8FFF773FE636A13B9A36A002B59D09D
S315000063C0002301A8019303F0CDFC002852D04FF022
S315000063D0FF3002B070BD00BF00C0042400001346A9
S315000063E0032BE8D1E3685878FFF770FEE16824488C
S315000063F08B784A780978FFF747FE236903B15D7801
S31500006400636903B15D78A36903B15D7804238DF8F0
S31500006410043000238DF8063004F0D6F80028D6D1D3
S315000064208DF80550019804F02DF80028CFD1154BB2
S315000064301D702D0105F1105505F5982501236B609A
S315000064406B68012BFCD163685878FFF73FFE6168E3
S315000064500B484A788B780978FFF716FEA3685878B8
S31500006460FFF734FEA16806488B784A780978FFF76B
