S0140000736C5F73693931785F677370692E733337D2
S31500000000010000000D900D9050EA00000100000074
S3150000001000102000CD824C3C0000000000000000D3
S3150000002000000000000000000000000000000000CA
S315000000300000000000000000000000000D900D9080
S31500000040A55A0000002020080000008000000000E3
S31500000050000000000000000000000000000000009A
S31500000060000000000000000000000000000000008A
S31500000070000000000000000000000000000000007A
S31500000080000000000000000000000000000000006A
S31500001000704C00008D29200841292008412920081C
S315000010104129200841292008412920080000000014
S315000010200000000000000000000000004129200828
S3150000103041292008000000004129200841292008F4
S315000010404129200841292008D99D2008FD9D200816
S31500001050219E2008459E2008412920084129200874
S3150000106041292008412920087D0500009D552008BA
S31500001070493420084129200841292008412920080F
S315000010804129200841292008859820082999200807
S31500001090412920081D9820084129200841292008B7
S315000010A041292008412920084129200841292008F2
S315000010B04129200841292008704C000041292008B8
S315000010C08D292008D504000041292008412920083F
S315000010D04129200841292008313420083D342008C0
S315000010E0BD282008412920084129200875DFB36959
S315000010F04129200841292008893120084129200852
S315000011004129200841292008ED9720080598200844
S315000011102D972008459720085D9720087597200889
S315000011208D972008A5972008BD972008D5972008F9
S315000011304129200841292008412920084129200861
S315000011404129200841292008412920084129200851
S315000011504129200841292008412920084129200841
S3150000116041292008412920084129200800000000C3
S315000011700000000000000000000000000000000069
S315000011800348044B834202D0034B03B11847704710
S31500001190D80B0000D80B0000000000000548064BE5
S315000011A01B1AD90F01EBA301491002D0034B03B15F
S315000011B018477047D80B0000D80B0000000000004D
S315000011C010B5064C237843B9FFF7DAFF044B13B189
S315000011D00448AFF300800123237010BDD80B000034
S315000011E00000000028E7200808B5054B1BB105499B
S315000011F00548AFF30080BDE80840FFF7CFBF00BF4A
S3150000120000000000DC0B000028E7200800F056B8BC
S31500001210704700000A4B1B78834210B50C460ED16E
S3150000122001290CD1074B187801F014FA064B00225D
S315000012301A70064B1C70BDE8104000F017B910BDBF
S31500001240A4E02008ACE02008F40B00000C0000002D
S31500001250012804BF014B1870704700BFF40B000053
S315000012604FF4FA4337B503FB00F4002007F07CFD8A
S31500001270014610B10F4809F0ADFB6946002007F0A2
S3150000128091FD014610B10C4809F0A4FB0A4D01A9D5
S31500001290002007F087FD014610B1284609F09AFBA9
S315000012A0DDE900239B1AA342F1D9002007F06BFD6C
S315000012B003B030BD60DC200891DC200830B587B073
S315000012C04F4B05930023CDE903330123ADF80830D6
S315000012D008238DF80A304B4B4B491B685A1E1333B3
S315000012E012F8010F01F8010B9A42F9D1474807F0AD
S315000012F0A5FC014610B1464809F06CFB454807F0CD
S31500001300BBFC014610B1444809F064FB4349002088
S3150000131007F058FD014610B1414809F05BFB07F0A4
S3150000132031FCC0F307238DF80400C0F307408DF8A5
S3150000133006003C4C3C488DF8053009F0B3FB9DF89F
S3150000134006309DF805209DF80410384809F042FB48
S315000013502146002007F036FB014620B1344809F04B
S3150000136039FB07B030BD334809F09CFB206807F015
S3150000137014FC0546304809F095FB05F001012F489D
S3150000138009F028FBC5F340012D4809F023FBC5F3FE
S3150000139080012C4809F01EFB02A9206807F036FBE5
S315000013A0014608B12848DAE7284809F07BFB2849B6
S315000013B0206807F0CBFB014608B12648CFE7264850
S315000013C009F070FB206807F0EAFB0146234809F0A4
S315000013D001FB07F0E8FB0146214809F0FBFA07F09C
S315000013E0E2FB082884BF1F4B012241F2883088BFE8
S315000013F01A80FFF735FF1C4B00221A70B1E700BFB9
S315000014008096980010000000FC0B000016000000FB
S31500001410C6DC20081C00000001DD200800F8590D7C
S315000014203EDD2008F80B000073DD200899DD20085A
S31500001430B2DD2008D9DD2008FCDD200821DE2008E9
S315000014402BDE20083ADE20084ADE200874DE20085B
S315000014505122200896DE2008D0DE200802DF200870
S3150000146029DF200814000000F50B000070B53C4C85
S31500001470207801284ED002282BD0D8B9394E33789F
S31500001480012B1CD100F07AFE374B38481B883849AF
S3150000149000681422B2FBF3F3364A07F039FB05461F
S315000014A0354809F0FFFA35B13448294609F092FA71
S315000014B00323237070BD324809F0F4FA3570314BBE
S315000014C01A78002AF6D000222F481A7009F0EAFA94
S315000014D0EEE7244E3378ABB1002000F04FFE224BEE
S315000014E023491B881422B2FBF3F2204B186807F03D
S315000014F0F3FA054610B101462448D7E7244809F017
S31500001500D1FA35701F4B1A78002AD3D00022214811
S315000015101A70DBE7134E3378012B19D14FF4FA70AA
S31500001520FFF79EFE002000F029FE0F4B11491B8895
S315000015301422B2FBF3F20D4B186807F0AFFA05461A
S3150000154010B101461448B1E7144809F0ABFA3570FA
S315000015500C4B1A78002AADD0002211481A70B5E754
S31500001560F50B00000C00000014000000F80B000052
S31500001570FC0B0000100C000047DF200854DF200899
S3150000158084DF2008F40B0000A6DF2008CCDF20084B
S31500001590F8DF200816E020082BE020085AE0200893
S315000015A07BE0200808B500F035F8FFF72FFE00F0C5
S315000015B03EF8FFF72DFEFAE708B500F0F3F905F05F
S315000015C007FB00F03FF8BDE8084000F01DBB08B57A
S315000015D000F00CF8BDE8084000F00EB87047704700
S315000015E0704770477047704770470000014800F029
S315000015F033BF00BFA4E0200808B5044801F011F885
S31500001600BDE80840024801F00CB800BFACE0200875
S31500001610A9E0200808B5FFF7CFFFFFF7D8FFFFF7CF
S31500001620DDFFFFF7DCFFBDE80840FFF7D9BF08B5CF
S31500001630FFF7D7FFFFF7D6FFFFF7D5FFBDE8084056
S31500001640FFF7D2BF70B5134C134D23685E6C0023B1
S31500001650194628460222B04723681E680023194609
S3150000166002222846B04723680C4DD3F8C030052027
S31500001670984723685E6C0023194628460A22B0471D
S3150000168023681C6800232846A4460A22BDE8704049
S31500001690194660470001300000C0042400001346CC
S315000016A030B5114B93F85830013BDBB2FD2B8FB0B0
S315000016B018D80E4D0FCD6C460FC40FCD0FC40FCDED
S315000016C00FC495E8030084E80300094C6846D4F883
S315000016D044370CF029F805F017FBD4F844370020FE
S315000016E00FB030BD0120FBE700021F0858021F089B
S315000016F000800524134B0168D3F84437F0B5012761
S31500001700013900D2F0BDD0F808C04668CCF3845544
S31500001710C5EBDC62346801320023013A0CD203FACD
S3150000172005F203EA0C03C3F3150324EA0202AB40F5
S31500001730134333600830E3E707FA02FE43EA0E0379
S31500001740EBE700BF0080052408B51848FFF7D2FF75
S315000017501748FFF7CFFF05F0CDFD05F0DFFD05F0DB
S31500001760E9FD05F0FBFD05F005FE1248FFF7C2FF97
S315000017701148FFF7BFFF1148FFF7BCFF1048FFF7FE
S31500001780B9FF1048FFF7B6FF0F48FFF7B3FF0F4842
S31500001790FFF7B0FF0E48FFF7ADFF0E48FFF7AAFFB1
S315000017A0BDE808400C48FFF7A5BF00BF840B00004A
S315000017B0E80A000024070000F0070000E407000024
S315000017C004080000C4060000B8060000AC060000CD
S315000017D000070000480700003C07000010B5254C34
S315000017E0FFF7B2FF94F8040600F00100FFF758FF78
S315000017F04FF4C023C4F86C34D4F840311E4843F487
S315000018000023C4F84031D4F8403143F00103C4F852
S315000018104031D4F8403143F00203C4F84031FFF7B9
S3150000182069FF16491648D1F8103543F00203C1F88E
S315000018301035636923F400336361636943F48033CD
S315000018406361D0F84027D0F87837C2F34342023AB2
S3150000185023F4F07343EA4213C0F87837D1F894348E
S3150000186043F40023C1F89434236943F460132361DD
S3150000187010BD00BF008004241009000000A005244C
S315000018800080052408B550B10748FFF733FF074825
S31500001890FFF730FF0648BDE80840FFF72BBF0548B5
S315000018A0FFF728FF0448F6E758090000000A000081
S315000018B0F4090000CC090000780900000B48D0F8B4
S315000018C000D05DF804EB5DF804CB5DF804BB5DF871
S315000018D004AB5DF8049B5DF8048B80BC40BC20BC67
S315000018E010BC08BC04BC02BC01BC7047300C000034
S315000018F0114AD2F8103623F48073C2F810360F4B13
S31500001900596B41F001015963596B41F0020159636A
S315000019100423C2F8383482B000238DF807309DF8CE
S315000019200730092B01D902B0704700BF9DF8073078
S315000019300133DBB2F1E700BF0080042400840424F5
S31500001940FEE7FEE7054B064A06498B4200D3704781
S3150000195052F8040B43F8040BF7E700BF0C00000035
S3150000196044E92008D80B0000064B0748DA1C121A77
S31500001970C11E22F00302994288BF0022002109F00D
S3150000198071B900BF701C0000D80B000008B5FFF746
S31500001990D9FFFFF7E9FF00F0B3F8BDE80840FFF70D
S315000019A001BE000038B5374B374A1A60374B384A04
S315000019B093F80636374C03F00F030F2B15BF364B43
S315000019C04FF00063D3F89312D3F837140CBF1160AD
S315000019D01160324A0CBFD3F83634D3F89232136012
S315000019E005F012FB05F012FB2D4BDB694FF0806111
S315000019F0D3F880304FF08C409847E369022060F3BB
S31500001A000E33E361274BDA696FF30202DA6105F000
S31500001A1077FB1E4B1A6A042161F302021A621A6AE4
S31500001A201207FCD5A369022262F38403A361A369AA
S31500001A301B04FCD51C4B1D4D5A6E6FF341025A66B2
S31500001A405A6E6FF300025A66FFF752FF184B194899
S31500001A500D4A18614FF4FA44D86117485C620021B8
S31500001A601C624FF40044C3E90022C3E90B05C3E935
S31500001A700F2299605961DA609C625A6358649961D1
S31500001A8038BD00BF840C0000005A620200800424A6
S31500001A902C0C00000081042400001F08280C000004
S31500001AA0000130000086042400840424002D310146
S31500001AB0340C000000B4C4040048E8014FF0E023F1
S31500001AC084B0D3F8402F0192D3F8442F02920199A3
S31500001AD0094A91420DD10299084A914209D1D3F897
S31500001AE0882D0392039A42F470020392039AC3F874
S31500001AF0882D04B0704700BF21001110110000119D
S31500001B0013B50023009301932F4BD3F810250092B1
S31500001B10009A00922D4A116821F00F011160116898
S31500001B201160D3F89C1421F46071C3F89C14D3F8A7
S31500001B30041701910199C3F80415D3F80017019110
S31500001B400199C3F80015D3F8101541F01C01C3F82C
S31500001B501015D2F8024014F48074FAD11C48436977
S31500001B6043F480334361436964F351434361FFF7B0
S31500001B70A5FF184B4FF080725A60174BC0F84031E2
S31500001B80164B5A6864F3C3025A60036A0E4A43F45A
S31500001B9080330362036A43F400330362D2F8943459
S31500001BA043F40023C2F89434036943F460130361D9
S31500001BB00B4B1A6842F400221A601A6842F480221B
S31500001BC01A6002B010BD00BF00A005240000052465
S31500001BD00080042400003041030008000081042432
S31500001BE00084042420F04040012802D0022805D0B9
S31500001BF07047034A1368013313607047014AF9E7D7
S31500001C008C0C0000880C000010B50F4CE368984758
S31500001C10A3680E489847236902209847A46A0121C1
S31500001C201520A04701211620A0474FF4E1310120DD
S31500001C30A047074B4FF48052C3F88020BFF34F8F65
S31500001C40BFF36F8F10BD00BF34E12008E52B2008DD
S31500001C5000E100E013B5094C00238DF80430236041
S31500001C60074B01219B6901A8984723681BB19DF882
S31500001C70040002B010BD00F0EDFBF6E7880C000092
S31500001C8034E1200813B5094C8DF8070000232360C2
S31500001C90074B01215B690DF10700984723680BB1DB
S31500001CA002B010BD00F0D6FBF8E700BF8C0C0000B8
S31500001CB034E1200803681B780022202B04D0093B5E
S31500001CC0042B01D9D0B270470368591C01605B78B8
S31500001CD00132F2E70120704708B509F015F816231E
S31500001CE003604FF0FF3008BD08B509F00DF8162364
S31500001CF00360FEE770B50D4614460E46731B9C4204
S31500001D0001DC204670BD16F8010BFFF7BBFFF5E7B7
S31500001D104FF0FF3070474FF400534B600020704780
S31500001D2001207047002070470FB42DE9F0438BB0B7
S31500001D3012AB002453F8046B01938DF81040FFF7A3
S31500001D4089FF0D288DF81000F7D00A28F5D0002459
S31500001D5025460134142C2ED0FFF77CFF04F128030E
S31500001D606B440D2803F8180C01D00A28F0D105F1B0
S31500001D7028030DEB0305002305F8163C04AB03937B
S31500001D809DF81030019F0296002B00F04E81002531
S31500001D90029B1B78002B3BD0DDF80C9099F8006075
S31500001DA0002E35D002A8FFF785FF044638B103A8F8
S31500001DB0FFF780FFECE700238DF82430DEE7029A78
S31500001DC01346517813F8010B0293252801D12529D2
S31500001DD007D18E421CD109F101030232039302920C
S31500001DE0D6E726462046A0461A7806F07C01002A49
S31500001DF067D100B10293002967D109E0692A51D061
S31500001E001ED8632A53D011D8392A07D82F2A35D895
S31500001E10E8B20BB0BDE8F04304B07047582AF7D1DA
S31500001E2046F0200601334FF0100833E0642AEFD164
S31500001E3046F4005646F0200601334FF00A0829E022
S31500001E406F3AD1B20929E3D8092AE1D801A151F89C
S31500001E5022F000BF992E2008112E2008112E2008EE
S31500001E60112E2008BD2E2008112E2008352E200800
S31500001E70112E2008112E2008212E2008002CC7D153
S31500001E800A211A78303A01FB042413F8012F303A5C
S31500001E90092AF6D90120A7E746F0200601334FF0BC
S31500001EA00808F7E746F0200601338846F2E7012CDA
S31500001EB046F0040638BF01240133EBE746F0080676
S31500001EC0FAE700299AD000B10293002C08BF6324D8
S31500001ED008291BD0202940D0042999D157F8042B72
S31500001EE04946144400200E780B4601310EB938B924
S31500001EF04EE702F8016B94424FF00100F3D10B4616
S31500001F00994503933FF444AF013541E703A8FFF732
S31500001F10D1FEDDF80CC057F8042B664614440021A8
S31500001F20307810F0DF0F334606F1010601D161B9B2
S31500001F302EE7A0F1090EBEF1040FF8D902F8010B45
S31500001F40A2424FF00101EBD133469C4503933FF487
S31500001F501FAF374B00221A70D6E703A8FFF7AAFE79
S31500001F60039BB8F1000F10D0B8F1100F17D11A78F3
S31500001F70302A14D15A7802F0DF02582A0FD10233E0
S31500001F800393023C4FF0100809E01A78302A16D164
S31500001F905A7802F0DF02582AF1D04FF00808039B66
S31500001FA01A782B2A0ED02D2A0FD101330393013C28
S31500001FB04FF0FF31039A00201444844614E04FF09A
S31500001FC00A08ECE701330393013C0121F2E7A9F18A
S31500001FD04103052B02D910B3039220E0A9F1370380
S31500001FE015E00CFB083C012092F800909646B9F1EA
S31500001FF0000FF0D0A242EED0A9F13003DBB2092BDC
S3150000200006D9A9F16103052BE1D8A9F15703DBB283
S31500002010984502F10102E4D808B1CDF80CE057F872
S31500002020043B0CFB01F119606EE74FF0FF35EFE65C
S31500002030900C0000064B1868002382B262F30F036F
S31500002040000C60F31F4382B0184602B0704700BF11
S3150000205030E1200809207047014803F0C1BA00BFEB
S31500002060DCE0200837B5044606200D4600F092FB5A
S31500002070E2B2132A0346084A02D11178A52908D0EC
S31500002080127800922946054A204602F0A7FD03B0C1
S3150000209030BD6FF00600FAE728000000DCE02008FB
S315000020A0014803F0CBB900BFDCE020081FB5064BA2
S315000020B01B680293054B0193054B0093054B03F0F8
S315000020C0ADF805B05DF804FB34110000C00D00004A
S315000020D038000000DCE0200807B5064B064A1B68FE
S315000020E00193064B0093064B02F09AFF03B05DF88E
S315000020F004FB00BF34110000DCE02008C00D000026
S315000021003800000007B5064B064A1B680193064BCC
S315000021100093064B02F0D0FE03B05DF804FB00BF4F
S3150000212034110000DCE02008C00D0000380000007B
S31500002130014902F039BC00BFDCE020080149024831
S3150000214002F00ABC38000000DCE0200807B5064BA8
S315000021500193064B0093064A064B074902F0B2FA72
S3150000216003B05DF804FB00BFB81000003411000096
S315000021703800000000FC0200DCE02008014B18706B
S31500002180704700BF28000000014803F091B900BF66
S31500002190DCE02008034B986910F00F0008BF102000
S315000021A0704700BF000003450F4BDA79920714D53C
S315000021B01B79ABB90D4B5A6948B142F010025A610E
S315000021C05A6939B142F001025A610020704760F342
S315000021D00412F4E761F30002F6E74FF0FF307047B0
S315000021E06FF00100704700BFC00C000000000345FF
S315000021F0024BD87900F00100704700BFC00C000008
S315000022000B28014603D1054A012003F020B90A280C
S3150000221003D1024A012003F035B97047DCE02008FB
S315000022200B28014603D1054A022003F010B90A28FB
S3150000223003D1024A022003F025B97047DCE02008EA
S31500002240014802F017BC00BFDCE02008064B186806
S31500002250002382B262F30F03000C60F31F4382B0C7
S31500002260184602B0704700BFA8E12008014B186865
S31500002270704700BF44000000014804F063BB00BF84
S3150000228044000000014904F01BBB00BF44000000ED
S31500002290014804F0F3BA00BF4400000037B5044615
S315000022A00B200D4600F076FA064B1B680193064B91
S315000022B000930246054B2946204603F06FFE03B005
S315000022C030BD00BF301100002C00000044000000AB
S315000022D0014803F05FBE00BF44000000014803F060
S315000022E056BE00BF440000007FB5104BD3E903542F
S315000022F0B2F5806F2E883ABF02F1FF33C3F30903AC
S3150000230040F2FF3363F30D162E80258863F30D1517
S31500002310074B25801B680293064B0193064B0093DF
S31500002320024B03F0FBFD04B070BD00BF440000008B
S3150000233030110000D00C00002C0000000D4B1A6973
S31500002340B1F5806F13B538BF01F1FF33148834BF80
S31500002350C3F3090340F2FF3363F30D14064B1480F5
S315000023601B680193054B0093024A054B03F038FDA9
S3150000237002B010BD4400000030110000D00C000077
S315000023802C0000000D4BDA68B1F5806F13B538BF2D
S3150000239001F1FF33148834BFC3F3090340F2FF335E
S315000023A063F30D14064B14801B680193054B0093D1
S315000023B0024A054B03F066FC02B010BD4400000063
S315000023C030110000D00C00002C000000024B034A24
S315000023D01B68034903F0AEBB301100002C0000005F
S315000023E044000000034B044904484FF400129A6469
S315000023F003F050BB008404242C00000044000000BD
S3150000240007B5064B0193064B0093064A064B074950
S3150000241003F0B0FA03B05DF804FB00BF4010000003
S31500002420301100002C000000001C062444000000AF
S31500002430014803F077B900BFCC000000014803F063
S3150000244071B900BF88000000014803F06BB900BFF6
S3150000245044000000FFF7F8BF7FB5264E03788DF8DD
S315000024600D308DF8093033784278234D8DF80C20E5
S31500002470012104468DF80E108DF80820B3B103989B
S3150000248006F068F803462860A8B962782079052A1C
S3150000249013D12178194B1A4A43F8214006F0D2F895
S315000024A0A278184901238B54337004E006F0F4F83F
S315000024B028600028E3D004B070BD042A10D1124D64
S315000024C0124A297842F8214000930246104B1148DF
S315000024D0415C02A805F05AFF2B7801332B70DFE729
S315000024E00D4D0E4A297842F82140009302460C4BC6
S315000024F00C48EDE7E4110000E8110000C8110000E7
S31500002500DD352008E0110000E2110000D0110000C6
S31500002510CD35200810010000E3110000D81100009D
S31500002520BD3520081801000010B5044629B104295C
S3150000253012D0BDE8104007F033B84B2804D90D4837
S3150000254040F2DB1106F0E8FC240104F18C4404F5AA
S3150000255098146068C0B210BD0B2804D905484FF422
S31500002560EF7106F0D9FC240104F1105404F5982407
S31500002570EFE700BFACE1200870B50446417800786B
S31500002580FFF7D2FF43B2002561782078DEB2FFF76D
S31500002590CBFF43B2B342F6D10135B5F5FA7FF3D19D
S315000025A00549A27820788A5C934214BF0121002154
S315000025B0FEF730FE70BD00BFE0110000024B53F87D
S315000025C02000FFF7D9BF00BFD8110000024B53F817
S315000025D02000FFF7D1BF00BFD0110000024B53F817
S315000025E02000FFF7C9BF00BFC81100000278052A06
S315000025F015D8437822B93A2B34BF002021207047E2
S31500002600511E012905D9032A05D0042A05D0062B17
S31500002610F2E7102BF0E70A2BEEE70C2BECE7212074
S31500002620704713B5837804468BB9012005F060FF27
S3150000263063788DF8043023788DF8053000238DF803
S315000026400630019802B0BDE8104005F083BF0020B7
S31500002650ECE7000037B5831E5D425D4104468DF808
S315000026600500AD0001A88DF80450FFF7BFFF80B943
S315000026708DB94B2C04D90B4840F24A2106F04CFC8C
S31500002680240104F18C4404F59814636883F0010373
S31500002690636003B030BD044A536A83F0010353629A
S315000026A0F7E700BFACE1200800C00424354BDFED9E
S315000026B0366AD3F8102242F04002C3F8102207EE21
S315000026C0900AD3F81022F4EEE67A42F01002F1EE08
S315000026D010FA07EE101A82B0C3F8102206DCF0EEEC
S315000026E0086AB4EEE67AF1EE10FA08D5D3F81022AD
S315000026F042F02002C3F81022002002B070479FED7E
S31500002700237AF4EEC77AF1EE10FA10D5D3F8102238
S315000027106FF30302C3F81022D3F810226FF3861268
S31500002720C3F81022D3F810226FF30412E2E777EE13
S31500002730C77ADFED176A134A87EEA67AF7EE007AB4
S3150000274077EE277AFCEEE77ACDED017A9DF8043034
S31500002750F6EE007A77EE277A07EE103AB8EE477A69
S31500002760B4EEE77AF1EE10FAC2BFFCEEE77ACDEDF1
S31500002770017A9DF80430D2F8101263F30301C2F80F
S315000027801012B9E70038042433333340CDCCCC3FA4
S315000027900AD7A33DD0B50E2800F27C82DFE810F000
S315000027A00F005A009500D00004010F01410171018C
S315000027B081019001B701DC010702320254024FF099
S315000027C08C43DB6903F00703042B41D8DFE803F0F1
S315000027D0033A34373D00844B9A6C013A052A37D8C0
S315000027E0DFE802F0032224222628586C4FF08C439F
S315000027F0DC69DB69C4F3C30413F0005F60D094B1F5
S3150000280007F080F8064620460F4607F07BF8774B20
S31500002810002206F03BFF02460B463046394607F0DB
S3150000282015FA07F083FBD0BDD86ADFE7D86BDDE782
S31500002830186BDBE7586BD9E76B4BD869D6E76A4B61
S315000028405869D3E7684B9868D0E7674BD868CDE7F7
S315000028500020CBE74FF08C43DB69C3F3C213042B94
S315000028602CD8DFE803F003251F2228005E4B9A6C64
S31500002870013A052A22D8DFE802F0030D0F0D1113E5
S31500002880586C4FF08C43DC69DB69C4F3832413F086
S31500002890804FB3E7D86AF4E7D86BF2E7186BF0E736
S315000028A0586BEEE7504BD869EBE74F4B5869E8E7B2
S315000028B04D4B9868E5E74C4BD868E2E70020E0E727
S315000028C0002CB0D0B0FBF4F0ADE74FF08C439B6921
S315000028D0C3F3C233052B31D8DFE803F003212427E5
S315000028E02A2D414B9A6C013A052A27D8DFE802F0D7
S315000028F0030F110F1315586C4FF08C439B69C3F3EC
S31500002900C32213F4F04F8ED0B0FBF2F08BE7D86AF7
S31500002910F2E7D86BF0E7186BEEE7586BECE7324B53
S315000029209868E9E7304B1869E6E72F4B5869E3E703
S315000029302D4BD869E0E72C4BD868DDE70020DBE7B4
S315000029404FF08C439B6AC3F34243032B2AD8DFE83C
S3150000295003F002202326244B9A6C013A052A21D83B
S31500002960DFE802F0030F110F1315586C4FF08C437C
S315000029709A6AC2F3055312F07C7F3FF454AF5B00B2
S315000029804CE0D86AF2E7D86BF0E7186BEEE7586BC5
S31500002990ECE7154B5869E9E7134B9868E6E7124BE5
S315000029A0D868E3E70020E1E74FF08C42936903F033
S315000029B00703032B25D8DFE803F0081B1E214FF081
S315000029C08C42D36FC3F34223F3E7074BD86A91696E
S315000029D09369D2698C05C3F3C503C2F3007212D59D
S315000029E0B2B9DBB91FE700BF340C00000000E03FBE
S315000029F0824BD869EBE7814B5869E8E77F4B9868CB
S31500002A00E5E70020E3E71AB9002BB8D140080AE74A
S31500002A10D9077FF508AF022B7FF605AFB0FBF3F0C1
S31500002A2001E74FF08C439B69C3F30263042B00F26A
S31500002A303181DFE813F0DF0005001D0020002300D0
S31500002A406E4B9A6C013A052A00F22481DFE812F0F7
S31500002A50060008000B0008000D00F700586CE2E6BF
S31500002A60664BD86ADFE6D86BDDE6644B186BDAE6B0
S31500002A70624B9868D7E6614BD869D4E65F4B5869D4
S31500002A80D1E64FF08C42936913F4802F5B4B0CBF59
S31500002A9058699868936992691202C3F3C343B3D520
S31500002AA09FE74FF08C439A6A12F4806F534A0CBF2B
S31500002AB09069D0689A6AC2F3C52312F4FC3F5CE7BA
S31500002AC04F4A93691B0F062B1FD8DFE803F0040C4F
S31500002AD00F1215181B00494B58689369C3F34642F9
S31500002AE013F47E0F0FE7454B186AF6E7434B586A17
S31500002AF0F3E7424B986AF0E7404BD86AEDE73F4B65
S31500002B00186BEAE73D4BD868E7E70020E5E73C4A63
S31500002B10D369C3F34303052B1CD8DFE803F0030C8A
S31500002B200F121518354B5868D369C3F34713002B9A
S31500002B307FF425AF77E6314B186AF5E72F4B586AD5
S31500002B40F2E72E4B986AEFE72C4BD86AECE72B4B53
S31500002B50186BE9E70020E7E7294A136AC3F3430342
S31500002B60072B22D8DFE803F0040C0F1215181B1EE2
S31500002B70224B5868136AC3F3421213F0E00FC2E601
S31500002B801E4B186AF6E71D4B586AF3E71B4B986A0B
S31500002B90F0E71A4BD86AEDE7184B186BEAE7174BC4
S31500002BA0D868E7E7154B586BE4E70020E2E7144BDB
S31500002BB01B6BC3F34303062B6CD801A252F823F018
S31500002BC0DD3B2008E33B2008E93B2008EF3B2008DB
S31500002BD0613A20086B3A2008F53B2008074B5868F5
S31500002BE021E6064B186A1EE6044B586A1BE6034BA1
S31500002BF0986A18E6014BD86815E600BF340C000049
S31500002C0000140424244B5B6BC3F34303082B41D805
S31500002C1001A252F823F000BFDD3B2008E33B200869
S31500002C20E93B2008EF3B2008613A20086B3A200870
S31500002C30F53B20083D3C2008433C2008174B586BC9
S31500002C40F1E5164B9869EEE5134AD36AC3F34303DD
S31500002C50062B1DD8DFE803F0040A0D101316190021
S31500002C600E4B5868D36AC3F34713BAE60B4B186A80
S31500002C70F8E70A4B586AF5E7084B986AF2E7074BFC
S31500002C80D86AEFE7054B186BECE7044BD868E9E721
S31500002C900020E7E70020C6E500140424340C0000F9
S31500002CA0024B1B68D3F8BC30184700BF0001300048
S31500002CB0024B1B68D3F8CC30184700BF0001300028
S31500002CC0024B1B68D3F8EC30184700BF00013000F8
S31500002CD0024B01219B69C0B2184700BF0C120000CD
S31500002CE0FFF7F6BF1346054A126810B4546C0A463D
S31500002CF0A44600215DF8044B604700BF0001300088
S31500002D00034B1B6A02469B6A02480121184700BF13
S31500002D100001300000140424104B114A1B7F82B0BE
S31500002D20012BADF804000F4BC0B24FF400610DD972
S31500002D30116020B9D3F808220A43C3F808225A685A
S31500002D40002042F001025A6002B07047116000286C
S31500002D50F5D1D3F8082242F40062EEE70C12000027
S31500002D6000E100E0003804242DE9F04F224B23480F
S31500002D7093F81CE0224B1A7800231C4602F598753E
S31500002D80D9B28E450CD8DFF880800023A8F51079DB
S31500002D9002F5907CDAB2964509D80020BDE8F08F9E
S31500002DA030F815108C4238BF0C460133E8E743B9BA
S31500002DB029F81C300133EDE7B5F820B0594489B243
S31500002DC00AE000271FFA83FABEB2B442F2D9002203
S31500002DD00C4D104635F8021FA14203D2B142EBD189
S31500002DE0013292B2013080B25045F3D30137002A46
S31500002DF0EAD128F81360DDE70C1200002C1200005F
S31500002E00081200006A1400006C140000012800D1AA
S31500002E107047C30701D44008F8E70020704703460F
S31500002E200120834208DC00EBD072A3EB6203B3EB14
S31500002E30A00FB8BF400870474000F2E707EE100A3F
S31500002E40DFED087A084837EE277AF7EE006AC6EE15
S31500002E50877AFCEEE77A17EE903A834228BF03465C
S31500002E601846704795BFD633404B4C0084B0F0B53A
S31500002E7006AC84E80E00DFED957A002123AC0DF157
S31500002E806B050A460B46CEB2B04200F2AF80002B6D
S31500002E9000F0A380B0EE007AF4EEC77AF1EE10FAF5
S31500002EA0B0EE047A05DBF4EEC77AF1EE10FA00F123
S31500002EB0DF80F4EEC77AF1EE10FAB0EE087A05DBA1
S31500002EC0F4EEC77AF1EE10FA00F1D880F4EEC77A84
S31500002ED0F1EE10FAB1EE007A05DBF4EEC77AF1EE08
S31500002EE010FA00F1CE80F4EEC77AF1EE10FAB1EEE8
S31500002EF0047A05DBF4EEC77AF1EE10FA00F1C4802D
S31500002F00F4EEC77AF1EE10FA07DBB1EE087AF4EECA
S31500002F10C77AF1EE10FA00F1BA80B1EE0C7AF4EE4F
S31500002F20C77AF1EE10FAB2EE007A05DBF4EEC77A54
S31500002F30F1EE10FA00F1AE80F4EEC77AF1EE10FA77
S31500002F40B2EE027A05DBF4EEC77AF1EE10FA00F182
S31500002F50A480F4EEC77AF1EE10FA06DBB2EE047A3C
S31500002F60F4EEC77AF1EE10FA6FD4B2EE087AF4EE08
S31500002F70C77AF1EE10FA06DBB2EE0C7AF4EEC77AF7
S31500002F80F1EE10FA6ED4B3EE017AF4EEC77AF1EEF2
S31500002F9010FA06DBB3EE027AF4EEC77AF1EE10FA17
S31500002FA063D4B3EE097AF4EEC77AF1EE10FA06DBD3
S31500002FB0B3EE0A7AF4EEC77AF1EE10FA70D9B3EEF0
S31500002FC00B7AF4EEC77AF1EE10FA06DB9FED407A43
S31500002FD0F4EEC77AF1EE10FA74D9DFED3E7A9FED82
S31500002FE03E7A002A18BFF0EE477A65E015F8016FC1
S31500002FF0A6F1140CBCF1020F2F7C0FD894ED007AC9
S31500003000B4EEE77AF1EE10FA03DD0133DBB2F0EE4F
S31500003010477A0D2F16D00131043434E7A7F10A0C94
S31500003020BCF1020F0CD894ED007AB4EEE77AF1EE1B
S3150000303010FA03DD0133DBB2F0EE477A182EE9E72A
S31500003040182EE6D10132D2B2E5E7DFED247A9AB343
S315000030509FED217AF4EEC77AF1EE10FA23D5F0EE61
S31500003060477A29E0DFED1E7AF1E7DFED1E7AEEE71B
S31500003070DFED1D7ABAB1DFED187A1DE0DFED1B7AC0
S31500003080F8E7DFED1B7AF5E7DFED1A7AF2E7DFED19
S315000030901A7AEFE7DFED197AECE7DFED197AE9E75F
S315000030A0DFED187A42B19FED0B7AF4EE477AF1EE36
S315000030B010FA48BFF0EE477ABDE8F04017EE900AE6
S315000030C004B07047DFED107AECE700BF00000000A7
S315000030D000004C4295BFD6338BE16A36ACC5A735A6
S315000030E0EFE608369F9D42362E5A823301A90C34EC
S315000030F037F859342439EC3434580F35AD18633564
S31500003100883E8A35B1B49D36F2DD1C3770B50D4662
S3150000311016460446D0B9FFF7D3FDAA480722214632
S31500003120FFF7E0FD002D40F0AA81012E00F09F81FF
S315000031300B2C1DD00C2C40F0F5800520FFF7C0FDB0
S31500003140A04807220521FFF7CDFD98E0012818D1F8
S315000031500220FFF7B5FD9B4807220221FFF7C2FDBB
S31500003160002D76D1012E00F082810B2C40F0DA8002
S315000031700320FFF7A5FD072203219248FFF7B2FDC2
S3150000318096E002280ED10420FFF79AFD07220421BB
S315000031908C48FFF7A7FD002D00F06681012D40F059
S315000031A0778155E1032805D10620FFF789FD07221F
S315000031B00621EDE7042805D10820FFF781FD072247
S315000031C00821E5E7052805D10A20FFF779FD072242
S315000031D00A21DDE706280CD17B4B20225A601920F4
S315000031E0FFF766FD1920FFF75BFD78480E221921CF
S315000031F0B4E707281ED1744B20225A601B20FFF724
S3150000320057FD1B20FFF74CFD0E221B216F48FFF7D1
S3150000321069FD002D00F02881012D40F0D980012E96
S3150000322000F019810C2C21D10520FFF749FD07225A
S315000032300521A2E7082840F0FD80634B20225A6052
S315000032401D20FFF735FD1D20FFF72AFD0E221D214B
S31500003250DCE70B2C1ED0012D40F01A81012E00F068
S31500003260FA800C2CE0D00D2C00F0C1800E2C50D032
S315000032700F2C6FD0102C75D12EE0022D40D0032DCF
S3150000328052D1012E59D00E2C70D00F2C62D0102C9A
S3150000329030D121E00320FFF713FD4A48072203211E
S315000032A0FFF720FD022D2BD0032D03D1012E44D094
S315000032B0002070BD042D00F0A480052DDAD1012E6A
S315000032C040F0A3800720FFF7FBFC07223D4811468C
S315000032D0FFF708FD102C5ED13B4B20225A601A20C6
S315000032E0FFF7E6FC1A20FFF7DBFC38480E221A210E
S315000032F0FFF7F8FC112C50D0072D5CD1012E88E089
S31500003300012ED5D169E0012E67D00D2C0FD00E2CE1
S31500003310BBD10920FFF7D4FC2A4807220921FFF771
S31500003320E1FCCAE70D2C62D00E2C68D1F1E70B2028
S31500003330FFF7C6FC07220B211FE70B20FFF7C0FC97
S31500003340204807220B21FFF7CDFC8FE70E2CE0D09B
S315000033500F2CB2D10720FFF7B3FC072219481146FC
S31500003360FFF7C0FC062DC5D1012E4FE00920FFF75F
S31500003370A7FC0722092100E70920FFF7A1FC114855
S3150000338007220921FFF7AEFC7FE70720FFF798FC2D
S3150000339007221146F1E6112C0DD10B4B20225A6063
S315000033A01C20FFF785FC1C20FFF77AFC07480E223D
S315000033B01C21FFF797FC122C2FD0082D7FF478AF35
S315000033C0012E28E000C0042400003041000013460E
S315000033D0022D7FF454AF012E99D10520FFF770FC22
S315000033E02E4807220521FFF77DFC0D2CAED10B20C0
S315000033F0FFF766FC294807220B21FFF773FC042D13
S31500003400A6D1012EB8D00F2CBFD0102C3FF464AF3C
S31500003410112CC2D0122C7FF44BAF214B20225A60C4
S315000034201E20FFF745FC1E20FFF73AFC1D480E2222
S315000034301E21A3E60A287FF475AE0120FFF740FCA3
S31500003440164807220121FFF74DFC012D7FF415AF29
S31500003450012E7FF42DAF0320FFF732FC0F48072221
S315000034600321FFF73FFC65E6012E7FF421AF012023
S31500003470FFF726FC094807220121FFF733FC0B2C36
S315000034803FF408AF012D3FF4E9AE0C2C3FF455AEE6
S31500003490022D3FF438AF0D2CA9D0F0E600C004246D
S315000034A000003041000013462DE9F0410F29BDF818
S315000034B01850BDF81C609DF820809DF824E055D872
S315000034C045EA0604B4F5806F50D22B4C01F1100783
S315000034D001F1400C44F8273001F150079A4244F8B4
S315000034E0212024F81C5024F8176041D0B8F1000FB1
S315000034F017D001F1300802EB4502C0F8D42144F898
S31500003500282045EAC12242F40048C0F8D881D0F804
S31500003510D881C0F8D821D0F8D82144F82C8044F8B6
S315000035202720BEF1000F02D10020BDE8F08101F195
S31500003530600205EB46052B44C0F8D43144F822302E
S31500003540CB0203F58063334343F40042C0F8D8212D
S3150000355001F17002D0F8D85144F822508031C0F8F9
S31500003560D831D0F8D83144F82130DDE70120DCE746
S3150000357042F20210D9E700BF2C1200000F2910B545
S3150000358028D892B1144A01F1300452F82440C0F808
S31500003590D44101F1400452F82440C0F8D84101F169
S315000035A0500452F82420C0F8D8218BB10A4B01F1FF
S315000035B0600253F82220C0F8D42101F17002803154
S315000035C053F8222053F82130C0F8D821C0F8D8315A
S315000035D0002010BD0120FCE72C12000010B5274B7F
S315000035E027485A685A6842F001025A60D3F80822FE
S315000035F042F48062C3F8082203F5B4331A680268FD
S3150000360052BBD3F8402442F46752C3F840241D4A03
S31500003610D2F80230DC05FBD41B4BD3F80427D107C4
S31500003620FBD5D3F80427D207FBD4D3F84824174C8C
S31500003630174B21681A60930803F4F8530B43910063
S3150000364001F07C0112020B4302F47832134343F07B
S3150000365081032360012303600C4B1A680A4BC3F8ED
S315000036604424084AD2F8023013F48073FAD1034A8C
S31500003670516863F30001516010BD00BF0038042497
S31500003680FC1100000000052400A00524041200001F
S31500003690001200000F29024610B54FF001000CD8A9
S315000036A0D2F8CC4100FA01F32343D2F8CC119BB2F5
S315000036B063F30F01C2F8CC11002010BD0F2902469A
S315000036C010B54FF001000DD8D2F8CC4100FA01F345
S315000036D043EA1443D2F8CC119BB263F31F41C2F8FC
S315000036E0CC11002010BD30B50F299DF80C402CD808
S315000036F01F2A2AD80F2B28D8012C26D845686D06F4
S315000037000FD5090134B14518AC6B44EA835343F035
S315000037108063AB6301448B6B43EA42438B630020B7
S3150000372030BD5CB1D0F8081241F40071C0F808123F
S31500003730D0F8081263F34811C0F80812D0F808321E
S3150000374062F30403C0F80832E9E70120E8E7000065
S3150000375029B9D0F8083261F3CB23C0F80832064BFA
S315000037605B68DB0741BF43686FF3000343600020DB
S3150000377058BF4FF0FF30704700380424C1B20248EA
S3150000378082B002B0FFF7E4BF003804240F2915D831
S315000037900D4B5A68520603D4D3F8DC31002B0FDAEE
S315000037A0D0F8DC2101238B401343D0F8DC219BB2F7
S315000037B063F30F02C0F8DC21002070470120704738
S315000037C04FF40450704700BF00380424B1F5007F61
S315000037D014D2B2F5806F11D243686FF38A23436027
S315000037E0C36861F31843C360C36862F30903C36027
S315000037F0436843F4806343600020704701207047AC
S315000038000F2925D8012A05D1436A6FF3D75343629E
S3150000381000207047022A0BD1436A6FF3000343620C
S31500003820436A6FF304134362436A6FF3C303EEE71D
S31500003830084BD3F8DC31002BEADA436A0122C3F3E2
S31500003840CF138A4023EA0201436A61F3D613DEE707
S3150000385001207047003804240F2903464FF0010069
S3150000386014D81A6A00FA01F189B2186AC2F30F2253
S315000038700A4362F3172018621A6AC2F30F2222EA79
S315000038800102196A62F317211962002070470000CD
S3150000389008B510B101280ED008BD4FF4006003F042
S315000038A0EFFB104B4FF000725A640F4A137843F047
S315000038B001031370F0E74FF4006003F0FBFB0A4AC4
S315000038C013786FF300031370DBB2002BE4D1074BC0
S315000038D007481B6A0221DB6B9847024B4FF00072C8
S315000038E09A64D9E7008404245C15000000013000C6
S315000038F00014042484B0F0B52DED028B83B00AAC1D
S3150000390084E80F005A4D709B0F9CAB61594B9DF894
S31500003910BD61BDF81C112E77621E9A4280F0A4800C
S315000039200FAA01239E420AD8012E40F081809DF8FD
S31500003930BC3183B1012911D942F2061071E0174654
S3150000394052F8040F3F68B84200F28E80002800F05B
S315000039508B800133E6E7B1F5806FEDD20020FFF7EB
S3150000396097FF0420FFF7CCF9434B44485A686FF39E
S315000039708A225A60DA686FF31842DA60DA6804213C
S3150000398061F30902DA605A683D4942F480625A607E
S31500003990FEF78CFEFFF722FE012E16BF7443A4002D
S315000039A06400B4F5FA4F46D20220FFF7A9F94FF4A6
S315000039B0FA436B6003F0FCFC288103F0EDFC2882DF
S315000039C003F0FCFCC0F30D0307EE103A9FED2D8AC1
S315000039D0B8EEC77A830BC7EE086A07EE903AF8EEA0
S315000039E0E77A77EEA67AC5ED037A03F0DBFCC0F33F
S315000039F00D0307EE103AB8EEC77A830BC7EE086AD6
S31500003A0001A807EE903AF8EEE77A002377EEA67A59
S31500003A100193C5ED057A04F0EFF9003818BF0120CF
S31500003A20404203B0BDEC028BBDE8F04004B07047E5
S31500003A30731E0F2B7FE7144BA4F5FA449C4204D85F
S31500003A400420FFF75DF9114BB3E7114BDC6914F065
S31500003A50080407D1022003F007FE2046FFF750F9BD
S31500003A600C4BA6E70C4BA4E742F20410D9E700BFC3
S31500003A700C120000A02526000038042433333340FE
S31500003A80CDCC4C4000007A4400B80B000048E80159
S31500003A9000000812005A6202002D310184B070B590
S31500003AA02DED028B82B008AC84E80F00574C9DF8D0
S31500003AB020206E99A16108A901EB82015448496949
S31500003AC0544E9DF8B531327001398142237780F02A
S31500003AD09A80012B7AD108AB03EB4202B2F8F4309C
S31500003AE09DF8B42122B1012B05D942F2061066E0F9
S31500003AF0B3F5806FF9D20020FFF7CAFE0420FFF766
S31500003B00FFF8454B45495A6845486FF38A225A6083
S31500003B10DA686FF31842DA60DA68042565F3090299
S31500003B20DA605A6842F480625A60FEF7BFFDFFF71A
S31500003B3055FD337808AA02EB830342F228325B690B
S31500003B40934246D80220FFF7DBF84FF4FA4363604E
S31500003B5003F02EFC208103F01FFC208203F02EFCD4
S31500003B60C0F30D0307EE103A9FED2E8AB8EEC77A22
S31500003B70830BC7EE086A07EE903AF8EEE77A77EE1F
S31500003B80A67AC4ED037A03F00DFCC0F30D0307EE2D
S31500003B90103AB8EEC77A830BC7EE086A01A807EE9B
S31500003BA0903AF8EEE77A002377EEA67A0193C4ED11
S31500003BB0057A04F021F9003818BF0120404202B00E
S31500003BC0BDEC028BBDE8704004B07047013B0F2B83
S31500003BD08AE7154AA3F50C53293B93420BD828468E
S31500003BE0FFF78EF8114BDA6A114B9A4201D1104B4E
S31500003BF0ADE7104BABE7104BDB691B07F9D402208E
S31500003C0003F032FDEBE742F20410D8E70C12000095
S31500003C10A02526000812000000380424CDCC4C4014
S31500003C203333334000007A44D6110C00340C0000C4
S31500003C300048E801002D31010000081213B50D4BB4
S31500003C40ADF804004FF40062C3F88020BFF34F8F35
S31500003C50BFF36F8F03220121002004F0A1F904466F
S31500003C6028B90120FFF714FE204602B010BD4FF020
S31500003C70FF30FAE700E100E04368064A61F34923B2
S31500003C804360D2F8403443EA4143C2F8403400204E
S31500003C90704700BF00A0052484B02DE9F04F2DED3C
S31500003CA0048BEDB07AAC84E80F009DF87D33629307
S31500003CB04FF4C47201237DA9684669939DF87C532D
S31500003CC0DFF894A307F07CF894E80E006298FFF7FB
S31500003CD0CDF808EE900AFFF7B1F8DAF8048007EE9F
S31500003CE0900A07EE108AF8EE677AB8EE477AB7EED2
S31500003CF0008A88EE079A88EE277AC7EE097A17EEC9
S31500003D00900A05F021FE08F0D7FE06F00FF9C8EE7E
S31500003D10897A84B217EE900A05F016FE08F0CCFEFA
S31500003D2006F004F986B2B44208BF01347F9F08BF8B
S31500003D30A4B2002D65D1B8FBF4F3AAF80060AAF886
S31500003D400240DFF818A363930DF5FC7B5146AAF2F7
S31500003D505E284FF00209629AEBB29A4200F2C880DE
S31500003D60B74DDFF8F4B2FEF7FFFF2246314628468C
S31500003D70FFF72CFD01212846FFF77EFF6B68B14E49
S31500003D8043F000636B606B6843F040036B606B68E5
S31500003D906FF341036B603323C5F8E4316B6843F07E
S31500003DA004036B60D5F8DC3143F00043C5F8DC3121
S31500003DB00DF2DA23659306F18103A6AF06F13E0AFA
S31500003DC066930DF5F47800246791629AE3B29A42FD
S31500003DD000F2D7809C4B6A9300229C4B6B9369A997
S31500003DE0104604F041F810B1452840F02581699944
S31500003DF06AAA002004F0A6F8003818BF0120404245
S31500003E0069E0204605F08EFDB8FBF7F78046384698
S31500003E10894605F077FD02460B464046494606F0C0
S31500003E205DF800285ED1AAF80060AAF80240224692
S31500003E3031468348FFF7CAFC01218148FFF71CFF82
S31500003E407F4B5A6842F000625A605A686FF38612D6
S31500003E505A606A1E012A5A684FF0000194BF42F068
S31500003E60020265F341025A60C3F8E4115A6842F04F
S31500003E7004025A60D3F8DC2161F3DF72C3F8DC2157
S31500003E809DF8E9219DF83C029DF84C125AB1D3F8F1
S31500003E90084262F34924C3F80842D3F8084261F3A2
S31500003EA04814C3F80842664CD4F8083260F3040399
S31500003EB0C4F80832FFF72AF92A4600212046FFF700
S31500003EC09FFCBAF80220DAF80430B3FBF2F3604A3A
S31500003ED00020C2F880326DB0BDEC048BBDE8F04F17
S31500003EE004B07047BAB2AAF80060AAF802209FE7A9
S31500003EF09DBB639BB3FBF7F39BB2012B8CBFA8F86A
S31500003F006032A8F86092629B012B08D04A8810465E
S31500003F10FEF77CFF18B91046FEF781FF4880DFEDFB
S31500003F204D7A524600231FFA85FC32F8020F07EE3F
S31500003F30100AB8EE477A0133C8EE076A9BB26345AA
S31500003F4077EEA67AF1D9F4EEC87AF1EE10FA0DDC26
S31500003F50013502310BF1040BFDE6DBE90032B3FB60
S31500003F60F2F20B8813FB02F34B80CCE75246002398
S31500003F7032F8020F01339BB2400063451080F7D937
S31500003F80E6E798F8549098F86430649318F8013F7F
S31500003F90639300934A462146649B2846FFF7A3FB9A
S31500003FA036F8021F328C012A08D0A30003F1105301
S31500003FB003F58723A3F83811C3F87821214628464C
S31500003FC0FFF7E4FBDDE963214846FFF79FF821464A
S31500003FD02846FFF773FB659B33F8029F6593679B43
S31500003FE0CDE90099CDE902332146D7F8A4307A6E9F
S31500003FF02846FFF759FA21462846FFF74BFB0022D1
S3150000400021462846FFF7FCFBBBF80220DBF804300C
S31500004010B3FBF2F3328CB3FBF2F34AF8043F57F8E2
S31500004020043FA6F8D090CAF85030669B639A03F80E
S31500004030012F01346693C8E64FF0FF304BE700BF0F
S31500004040003804246A140000D13C2008E13C200812
S315000040502C120000000000000C1200008A14000060
S3150000406084B02DE9F04F2DED048BEBB078AC84E8ED
S315000040700F0021469DF87533DFF810A311F80C8B5D
S3150000408062934FF4C4720123684667939DF8746384
S315000040908AF8008006F094FE94E80E006298B44D0B
S315000040A0FEF7E4FE08EE900AFEF7C8FED5F804B067
S315000040B007EE900A07EE10BAF8EE677AB8EE477A7E
S315000040C0B7EE008A88EE079A88EE277AC7EE097A55
S315000040D017EE900A05F038FC08F0EEFC05F026FF16
S315000040E0C8EE897A84B217EE900A05F02DFC08F026
S315000040F0E3FC05F01BFF87B2BC4204BF0134A4B247
S31500004100002E55D1BBFBF4F378AA649308F104039F
S3150000411002EB830397492F806C800DF5F879659340
S31500004120629AF3B29A4200F2C180934EFEF71CFEE9
S31500004130224639463046FFF749FB01213046FFF754
S315000041409BFD73688D4C43F000637360736843F0A6
S315000041504003736073686FF3410373603323C6F8DB
S31500004160E431736843F004037360D6F8DC3143F03E
S315000041700043C6F8DC310027629AFBB29A4200F28D
S3150000418007817F4B689300227E4B699367A910468F
S3150000419003F06AFE10B1452840F07B81679968AA52
S315000041A0002003F0CFFE003818BF0120404271E026
S315000041B078AB03EB88082046D8F81430BBFBF3FB3A
S315000041C005F0B0FB80465846894605F09BFB024643
S315000041D00B464046494605F081FE002861D12F80F6
S315000041E06C80224639466448FFF7F0FA012162489E
S315000041F0FFF742FD604B5A6842F000625A605A6807
S315000042006FF386125A60721E012A5A684FF0000137
S3150000421094BF42F0020266F341025A60C3F8E41109
S315000042205A6842F004025A60D3F8DC2161F3DF7267
S31500004230C3F8DC219AF8002002F5F0726A4492F87D
S31500004240540092F8641052785AB1D3F8084262F3D7
S315000042504924C3F80842D3F8084261F34814C3F866
S315000042600842454FD7F8083260F30403C7F808320E
S31500004270FEF74CFF9AF80040324621463846FFF7D3
S31500004280BFFAA0346A886B68B3FBF2F33B4A42F884
S31500004290243000206BB0BDEC048BBDE8F04F04B0B9
S315000042A070471FFA8BF22F806A809BE708F5987398
S315000042B0DFF8C8B06393002E50D1659B649A5B68A3
S315000042C0B2FBF3F39BB2639A012B98BF02232BF840
S315000042D01230629B012B08D04A881046FEF796FDE5
S315000042E018B91046FEF79BFD488078AB03EB4803F0
S315000042F0B0B2B3F8F430012B01BF08F598723BF861
S3150000430012309B082BF81230639B3BF8133007EEF4
S31500004310903AF8EE677A002288EE277ADFED1A7A6D
S3150000432001321FFA82FC844577EE877AF8D9F4EEDB
S31500004330C87AF1EE10FA0CDD002201321FFA82FC77
S315000043405B0084459BB2F8D90C4808F5987220F8B2
S3150000435012300136023109F10409E1E6D9E90032E9
S31500004360B3FBF2F20B8813FB02F34B80B1E700BFFD
S315000043700C1200008A140000003804242C120000DD
S31500004380D13C2008E13C2008000000000812000093
S315000043909AF80010639101F5F0736B44304693F878
S315000043A0548093F8649093F801B0CDF800B04B4672
S315000043B04246FFF798F9639901F5907334F81300B4
S315000043C001F5987334F81320012A08D08B0003F105
S315000043D0105303F58723A3F83801C3F87821304634
S315000043E0FFF7D4F95A4649464046FEF78FFE9AF83B
S315000043F0008030464146FFF761F978AB03EB48038E
S3150000440078AAB3F8F43002EB88000122CDE9022243
S31500004410CDE900334146D0F85431D0F81421304666
S31500004420FFF742F89AF8008030464146FFF732F926
S31500004430414600223046FFF7E3F908F1A0026988F9
S315000044406B68B3FBF1F308F59871013734F8111076
S31500004450B3FBF1F344F8223078AA02EB480208F5E0
S31500004460C473B2F8F42024F8132078AA02EB880269
S3150000447008F1B403D2F8B42044F8232008F5F0720A
S3150000448004EB08030DEB020898F8012083F8C0221C
S3150000449072E64FF0FF30FDE6D0F8E03143F001035D
S315000044A0C0F8E031002070472DE9F341374B9A6A96
S315000044B00192019A16020DD5426A1502C2F3C05046
S315000044C008D45A6A42F400025A62314B9B690421AD
S315000044D0984718E0019BDC0709D52C4A136A43F07C
S315000044E0010313622A4B05219B690020F0E7019C1A
S315000044F014F080740BD02548012100F095F8254B67
S3150000450002201B689847002002B0BDE8F0811F4BCF
S315000045105A68500603D4D3F8DC31002B24DA1E4D3A
S315000045201A4E1B4F019BE21DD340D90717D52146D2
S315000045303046FFF791F92B785FFA84F8B3FA83F2E5
S31500004540520941463046FFF719F8BB6913B10021FD
S31500004550404698472B78B3FA83F35B092B700134F6
S31500004560102C05F10105DDD1084B5A689207CAD413
S31500004570D3F8DC11C90FC6D15A6842F004025A605A
S315000045800198034BC0B29B69A2E700BF0038042420
S315000045900C12000060150000EC1100000148FFF746
S315000045A083BF00BF00380424030548BF20F4006021
S315000045B0174B58BF40F40060D1B11A8A93ED057AC3
S315000045C0821A07EE902AF8EEE77A67EE877AFDEE12
S315000045D0E77A17EE903A18B2B0F5805F11DA002844
S315000045E012DDB0F5006F10DBA0F5006000B2704779
S315000045F01A8993ED037A821A07EE902AF8EEE77A83
S31500004600E3E740F6FF70EFE7002000F50060EDE716
S315000046100C120000406921B11146C0F30B00FFF7F0
S31500004620C3BFC0F30B007047436A01291DBF43F0A7
S3150000463002034362436A43F0807318BF43F00403E6
S31500004640436200207047000010B4034C246864687D
S31500004650A4465DF8044B60470001300010B4034CDB
S315000046602468646CA4465DF8044B60470001300082
S31500004670024B1B68D3F8B830184700BF0001300062
S31500004680024B1B68D3F8C030184700BF000130004A
S31500004690024B1B68D3F8C830184700BF0001300032
S315000046A0024B1B68D3F8E830184700BF0001300002
S315000046B00828034B8CBF022201221A70704700BFE4
S315000046C06415000073B59B4B10229A600B69DD7967
S315000046D015F001050C4640F03C819D809D711860E7
S315000046E01C2229466069944E06F0BCFA2369012211
S315000046F0DA71F3694FF08061D3F880304FF08C4067
S315000047009847F36994F83010D3F8D4304FF08C40C2
S3150000471098472268894B9A4240F0F980A3695878F5
S315000047203F280CD94038C0B2FFF7BAFFA3698448C6
S315000047305A78403A0623D2B22946FFF78FFFA3697B
S31500004740D87808B1FFF79CFFA3695878A0F1190340
S31500004750052B01D8FFF78CFFA3695878FFF798FF60
S31500004760A16978488B784A780978FFF777FFE3697B
S315000047703BB358783F280CD94038C0B2FFF790FFBA
S31500004780E3696F485A78403A0623D2B20021FFF710
S3150000479065FFE369D87808B1FFF772FFE3695878D7
S315000047A0A0F11903052B01D8FFF762FFE3695878DA
S315000047B0FFF76EFFE16963488B784A780978FFF75F
S315000047C04DFF236A3BB358783F280CD94038C0B216
S315000047D0FFF766FF236A5A485A78403A0623D2B250
S315000047E00021FFF73BFF236AD87808B1FFF748FF9F
S315000047F0236A5878A0F11903052B01D8FFF738FF73
S31500004800236A5878FFF744FF216A4E488B784A7826
S315000048100978FFF723FF636A3BB358783F280CD922
S315000048204038C0B2FFF73CFF636A45485A78403AC1
S315000048300623D2B20021FFF711FF636AD87808B1C8
S31500004840FFF71EFF636A5878A0F11903052B01D8FC
S31500004850FFF70EFF636A5878FFF71AFF616A394857
S315000048608B784A780978FFF7F9FEA36A58783F28CB
S315000048700CD94038C0B2FFF713FFA36A30485A7804
S31500004880403A0623D2B20021FFF7E8FEA36AD878A1
S3150000489008B1FFF7F5FEA36A5878A0F11903052BB6
S315000048A001D8FFF7E5FEA36A5878FFF7F1FEA16A83
S315000048B024488B784A780978FFF7D0FEE36A58785F
S315000048C03F280CD94038C0B2FFF7EAFEE36A1C481D
S315000048D05A78403A0623D2B20021FFF7BFFEE36AB8
S315000048E0D87808B1FFF7CCFEE36A5878A0F119032F
S315000048F0052B01D8FFF7BCFEE36A5878FFF7C8FE20
S31500004900E16A10488B784A780978FFF7A7FEE368D2
S315000049100BB9A368D3B12268084B9A4216D100237B
S3150000492001A8019303F068FA70B14FF0FF3002B0AE
S3150000493070BD00BF00840424000130000000034560
S3150000494000C004240000134603F0E2FC23690122A0
S31500004950DA710020EBE700BF0369002210B5DA71B7
S31500004960836804460BB9C068A8B122680D4B9A4209
S3150000497012D1E368197F03220131002003F010FBF6
S3150000498060B9A368197F0322013103F009FB0038DF
S3150000499018BF0120404210BD0020FCE74FF0FF3059
S315000049A0F9E700BF0000034538B50C4620B10228E0
S315000049B035D06FF0030038BD91F90430002B0DDBC4
S315000049C05A09012103F01F03994002F12003274AE7
S315000049D042F82310BFF34F8FBFF36F8F2369002276
S315000049E09A809A7194F90430934209DB5A0901219D
S315000049F003F01F03994002F160031C4A42F823109A
S31500004A001C226069002106F02DF92269D37923F072
S31500004A100203D371164B1022DA600020CBE70A6935
S31500004A20D379D9071ED513F00200F6D12568696837
S31500004A3043F0020341F40061696090809071D37184
S31500004A4094F90430002BE8DB03F01F015B099B009F
S31500004A5003F1604303F5614301228A40C3F88021D4
S31500004A601A60DAE74FF0FF30A5E700BF00E100E08B
S31500004A70008404242DE9F84F03681A69C2F340093B
S31500004A801A69DF69DE69C2F3C038504A11696FF3EB
S31500004A900001044607F00F07C6F303161161156AF5
S31500004AA015F48065FBD193423BD1E169002938D0EA
S31500004AB0DFF824A14A78DAF800300978D3F800B094
S31500004AC043482B46D847E16941484A78097801238B
S31500004AD0FFF7BAFDE1693E484A7809782B46FFF7A9
S31500004AE0BDFDE1694A783F2A1BD9403A0978394821
S31500004AF02B46D2B2FFF7B2FDE169DAF800304A7808
S31500004B00D3F800A009783348403A2B46D2B2D047B2
S31500004B10E16930484A780978403A0123D2B2FFF772
S31500004B2093FD23681A6942F002021A611A6942F477
S31500004B3000421A61DA69012161F30302DA61DA6976
S31500004B400C2161F30712DA619A6A42F001029A6255
S31500004B5045F6A522C3F8802023681A6AD007FCD43C
S31500004B60D3F880205A6A42F001025A62174A116944
S31500004B7041F001011161116A4905FCD4934212D139
S31500004B80E16981B14A788B7811480978FFF766FDAB
S31500004B90E1694A783F2A06D9403A8B780D48097868
S31500004BA0D2B2FFF75BFD23681A6969F341021A6105
S31500004BB01A6968F3CF321A61DA6967F30302DA61B8
S31500004BC0DA6966F30712DA61BDE8F88F000003457B
S31500004BD00000134600C00424000130002DE9F04116
S31500004BE016699DF8187096F807C01CF0020F8046EB
S31500004BF0144600F05A811268944DAA42C0B202D1FE
S31500004C00022800F04981142809D11C22606900217C
S31500004C1006F028F8236900221A71002068E0357929
S31500004C20002D40F03C81132843D8DFE810F0140033
S31500004C301D003B013B013B01420042004200420095
S31500004C404200420042004200420042004200270069
S31500004C505F0063006600B3682CF0040C23F0FF03CA
S31500004C60B36086F807C0D8E7B06820F0FF0040F0D0
S31500004C7001004CF0040CB06086F807C0744881420D
S31500004C8032D8B3FBF1F35B0807D1106840F002009D
S31500004C901060106840F0010010606E48814203D930
S31500004CA0516841F001015160916BDBB263F307017A
S31500004CB09163B268D3B2012B0BD108F4C013B3F5DC
S31500004CC0801F00F0B2806AD8002B71D0B3F5002F98
S31500004CD079D018F4E06100F0C580B1F5407F00F0AE
S31500004CE0D5806FF0070003E00123D9E7906BC0B2CF
S31500004CF0BDE8F081636919838FE7B368D8B20128EC
S31500004D0040F0D38003F4C01341BBB3F5801F0BD131
S31500004D10136967F34E331361136943F0010313619B
S31500004D20136A5905FCD578E7012F13D0022F13D04B
S31500004D300FB9E3695D78484801232A460021FFF749
S31500004D4083FC23681A696FF300021A611A6A520516
S31500004D50FCD462E7236AEDE7636AEBE7B3F5801FED
S31500004D600BD1136967F34E33136113696FF30003B5
S31500004D701361136A5B05FCD44FE7012F0BD0022F9A
S31500004D800BD00FB9E3695D78334800232A461946EC
S31500004D90FFF75AFC41E7236AF5E7636AF3E7B3F5E1
S31500004DA0C01F96D122F4C012B2606FF00A009FE7CE
S31500004DB01A4619462848FFF751FC2269936823F4DE
S31500004DC0C013936085E7012F2BD0022F2BD07FB91C
S31500004DD0E369D8785D7808B1FFF752FC3F2D07D913
S31500004DE0A5F140021D480623D2B20021FFF736FC8A
S31500004DF00023194618482A46FFF730FC184B164878
S31500004E001B681E68002319462A46B04701232A4616
S31500004E1011480021FFF718FC2269936843F4002328
S31500004E20CFE7236AD5E7636AD3E7E36922F4C012C2
S31500004E30B2605B7833B9236A5B781BB9636A5B78C7
S31500004E40002BB2D042F48012B26042E70000034564
S31500004E5080778E06005A62020000134600C00424C2
S31500004E600001300023685A6861F341025A602368E2
S31500004E705A69C8F3053822F01002B8F1100F5A61CA
S31500004E8016D89A6968F303029A61C6E622685368DF
S31500004E9043F002035360EAE76FF0030028E76FF080
S31500004EA0010025E76FF0060022E74FF0FF301FE70D
S31500004EB06FF008001CE700BFF0B584468BB01446BF
S31500004EC0002800F0A180002900F09E801369DA799D
S31500004ED0520740F196801D79002D40F098800127F9
S31500004EE09F809D716369C3E9035598605D6023687F
S31500004EF098691A6942F002021A619A6942F08002C0
S31500004F009A611A6965F3CF321A61E66800F00F00FC
S31500004F10002E46D0626BDF6992F803E06EF303075A
S31500004F20DF619778DA6967F30712DA61327F394F02
S31500004F308DF82750082802F1010203F1800394BF7F
S31500004F40002001200092326804930323CDE9063045
S31500004F5040F201130197ADF824302F4F7369059085
S31500004F60089128466946CDE9027C8DF8263002F084
S31500004F707BFF08B1452844D1009901AA002002F020
S31500004F80E1FF00283DD1009903AA03F04DF800285F
S31500004F9037D1E368197F013103F09CF900200BB08B
S31500004FA0F0BDFFF785FB1D4B626918782368414306
S31500004FB01160D96967F30301D961D9690C2565F3D5
S31500004FC00711D961996A012841F0010199620BD153
S31500004FD0116990684D1C1561425CC3F880202268F7
S31500004FE0136ADB07FCD4D9E70228F8D11169966861
S31500004FF04D1C1561705C02311161725D40EA02223E
S31500005000EBE74FF0FF30CAE76FF00400C7E76FF039
S315000050100100C4E70132200821322008641500008F
S315000050202DE9F0418CB045F6A5270E4614460197AA
S31500005030002800F0E680002900F0E3801269D379A9
S31500005040590740F1B9801379002B40F0DD804FF00D
S315000050500108A2F8048093716269C2E90103C2E9FA
S31500005060033323689D691A6942F002021A619A693C
S3150000507042F080029A611A6942F400421A61D4E948
S31500005080022105F00F05002A40F08880002900F073
S315000050909680626BD869D77867F30300D8619078F9
S315000050A0DA6960F30712DA6100208DF82F000A7FB3
S315000050B0DFF86481564F0132082D029203F1800316
S315000050C00A68069394BF002501250323CDE9083518
S315000050D040F20113ADF82C304B69CDF80C800DF180
S315000050E0040C02A90497CDF814C007950A968DF80A
S315000050F02E3002F0B9FE08B145285DD1029903AA07
S31500005100002002F01FFF002856D1029905AA02F0DE
S315000051108BFF002850D1A368002B4DD08DF82F00AF
S315000051201A7F21680132029280311A6805916169FD
S31500005130496806910321CDE907154FF48171ADF851
S315000051402C105B698DF82E3002A9CDE90387CDE9D5
S31500005150095602F089FE08B145282DD1029903AA05
S31500005160002002F0EFFE38BB029905AA02F05CFFB0
S31500005170054608BB2268136943F004031361E3681C
S31500005180197F013103F0A6F8A368197F284601317B
S3150000519003F0A0F800200CB0BDE8F081626BD8697E
S315000051A0D77867F30300D8619078DA6960F307125D
S315000051B0DA6100297FF478AF4FF0FF30EBE728463D
S315000051C0FFF776FA134B1A78636956431E60236815
S315000051D0D96968F30301D961D9690C2060F3071115
S315000051E0D961996A012A41F00101996202D1C3F895
S315000051F0807001E0022AFAD02268136ADB07FCD429
S31500005200C8E76FF00400C6E76FF00100C3E700BF10
S315000052102132200864150000013220082DE9F041F2
S3150000522015468AB01C460746002800F0FB80002978
S3150000523000F0F880002A00F0F5801B69DA79520741
S3150000524062D51A79002A40F0F0804FF001089A7171
S31500005250A3F804806369C3E90322C3E90110236844
S315000052609E691A6942F002021A619A6942F0800246
S315000052709A611A6942F400421A61D4E9022106F0E1
S315000052800F06002A43D1002900F09B80626BD86983
S3150000529092F803C06CF30300D8619078DA6960F382
S315000052A00712DA6100208DF827000A7FDFF880C137
S315000052B0013200920A68CDF804C0DFF878C108957B
S315000052C08033082E0493CDE902C794BF002301233F
S315000052D00327CDE90673059340F20113ADF8243098
S315000052E04B698DF82630694602F0BEFD08B14528A7
S315000052F00AD1009901AA002002F024FE20B90099E3
S3150000530003AA02F091FE80B14FF0FF3056E0626BC7
S31500005310D86992F803C06CF30300D8619078DA6913
S3150000532060F30712DA610029BCD1A368002B44D0D0
S3150000533000208DF827001A7F3D49013200921A6835
S3150000534001913C4902912168803103916169496864
S315000053500491032105914FF48171082EADF82410B4
S3150000536094BF002601265B6908956946CDE9066665
S315000053708DF8263002F078FD08B14528C4D1009991
S3150000538001AA002002F0DEFD0028BDD1009903AA83
S3150000539002F04AFE05460028B6D12268136943F09A
S315000053A004031361A368197F013102F093FFE368D8
S315000053B0197F2846013102F08DFF00200AB0BDE8B2
S315000053C0F0813046FFF774F91B4B61691A78236840
S315000053D055430D60D86968F30300D861D8690C2578
S315000053E065F30710D861986A012A40F001009862B7
S315000053F00BD10A698868551C0D61825CC3F8802050
S315000054002268136ADB07FCD4D7E7022AF8D10A69B7
S315000054108E68551C0D61B05C02320A61725D40EA0D
S315000054200222EBE76FF00400C8E76FF00100C5E762
S315000054300132200821322008641500000369DB7957
S31500005440024613F004001CBF5369D8687047012850
S3150000545070B50546144614D11269002313716369A9
S3150000546058681968196160B9136853B1E368197F00
S31500005470013102F04BFF236928461B68BDE87040E6
S31500005480184770BD1369012810B5144604BF0022E1
S315000054901A711B685BB1A368197F0020013102F005
S315000054A035FF23690120BDE810401B68184710BD71
S315000054B0F0B40268116A136B11F0800F43F0010318
S315000054C0136301F0040169D143695F680C46002F3C
S315000054D046D0DD681E68B54244D2404E3678012E6D
S315000054E01BD105F1010CD2F88020C3F80CC07A5507
S315000054F04369DD681A68954222D30468626A42F0FD
S315000055000102626202690024147100294AD003690B
S315000055101B681BB3F0BC01201847022EE8D1D2F855
S31500005520802005F1010CC3F80CC07A554369DD688B
S315000055305F6805F1010CC3F80CC0C2F30722D6E779
S315000055409A68A2B9012E07D1036845F6A522C3F8C9
S31500005550802019B9436907E0022EF5D0F0BC7047E8
S31500005560D2F88020002CF9D19A6812B9F6E7002902
S31500005570F4D119691D68A94224D2184D06682D7800
S31500005580012D14D14D1C1D61535CC6F88030026894
S31500005590136ADB07FCD4002CB9D1DFE70C460029DF
S315000055A0DCD1D7E79A68002AB1D00124E1E7022DC1
S315000055B0EDD14F1C1F61555C02311961D35D45EA7F
S315000055C00323E2E75A68002AE5D101684B6A43F0F3
S315000055D001034B6203691A7199E700BF6415000065
S315000055E002695379117990795B0001F0010103F0AA
S315000055F0020380000B4300F00400184370472DE9B6
S31500005600F04F92F806C092F802A05378D578167932
S31500005610577992F807E092F8088092F8099092F884
S315000056200AB0D47A127802B35B0643EA4B7343EAB4
S315000056308A5343EA495343EA085343EA4E4343EA4B
S315000056400C4343EA47330901026843EAC62301F1E2
S31500005650105143EA852301F5872142F0004243EACF
S3150000566044230260CB63BDE8F08F02686CF3C71277
S31500005670026002686AF34F320260026863F3134203
S315000056800260036865F341030360036866F38303FE
S315000056900360036867F30613036003686EF30A2367
S315000056A00360036868F3CB230360036869F30C3374
S315000056B0036003686BF314530360036864F3000329
S315000056C00360D0E710B4034C2468646CA4465DF80C
S315000056D0044B604700013000024B1B68D3F8B8301A
S315000056E0184700BF00013000024B1B68D3F8C030DA
S315000056F0184700BF00013000024B1B68D3F8C830C2
S31500005700184700BF00013000024B1B68D3F8E83091
S31500005710184700BF00013000014BDB685B69184782
S3150000572000013000F0B5436885B00024B3F1884F1E
S3150000573001940546029403940BD0774A934208D00D
S31500005740764A934200F0D180754C181B444244417E
S3150000575064009A680192019A02F00602062A4FEA4C
S3150000576084742CD15B690293029B990710D56A69F0
S3150000577013686BB101215171202098476B6993F82A
S315000057802820032A04D193F826300BB144F01004E4
S31500005790029B5A0707D56A69136823B10121117262
S315000057A04FF400709847029B1B0740F1A0806A697E
S315000057B0136823B10121D1714FF480709847019B82
S315000057C09E071DD56B691E6910201A6A6968964284
S315000057D009D09F690138BF5C0F6002F101021A62AD
S315000057E0F3D196420CD14A6822F002024A600022A6
S315000057F083F826201B681BB144F001042046984715
S31500005800019B580738D56B691A68002A34D06A6834
S315000058105169C90725D511685A69DB69D1546B6985
S31500005820DA69D96801328A42DA611AD169684A6846
S3150000583022F001024A6093F82820023A0021012A48
S31500005840197164D893F8272083F82710022A5ED0AE
S31500005850032A59D0012A01D144F001041B682046CD
S3150000586098476B691A683AB1D969DB68994203D0DF
S3150000587044F0400420469047019B1A074AD16B68C2
S315000058809B6903936B78DB0608D5039BDF0705D579
S315000058906B6944F480641B68204698476B785E0603
S315000058A008D5039B980705D56B6944F400641B680B
S315000058B020469847AB78D90708D5039B5A0705D5E4
S315000058C06B6944F400541B682046984795F90130EB
S315000058D0002B1FDA039B1B071CD56B691B6844F45E
S315000058E0805005B0BDE8F0401847012431E7029B1F
S315000058F0DF067FF564AF6A691368002B3FF45FAF7C
S3150000590001219171802059E744F00404A6E744F090
S315000059100204A3E705B0F0BD000100440000024503
S315000059200018042430B504460AB3B0F5E10F1ED8BA
S3150000593053688025DD608900B1FBF0F1D3F8C00023
S315000059406FF30500C3F8C000002018605860D860E7
S31500005950DD60C1F387151D60C1F3873501F03F0196
S315000059605D60C3F8C010D8605369DC6230BD40F298
S315000059700160FBE72DE9F7434E69DDF8289096F8BC
S31500005980295015F001050C46174698466ED1C6E912
S315000059900005357286F8265086F824504B68B3F118
S315000059A0884F02D0354A934212D1354B10229A6065
S315000059B0344BA26BDB69019294F834200092D3F841
S315000059C0A45094F83C20002301214FF08C40A847B6
S315000059D062682D4B9A4215D103F15F4303F52133DB
S315000059E010229A60274BA26BDB69019294F834204F
S315000059F00092D3F8A45094F83C20012319464FF0A6
S31500005A008C40A8476268214B9A4210D103F5D843CF
S31500005A104FF400125A641B4B228F1B6A0092DD69F9
S31500005A2094F83C2094F8353019480121A847E368DA
S31500005A300BB92369B3B16568B5F1884F08D00F4B30
S31500005A409D4205D0104B9D4202D0104B9D4211D174
S31500005A500C4BDB684A461D680B9B41463846A847F7
S31500005A60C9F800006369012283F82920002003B0E9
S31500005A70BDE8F0834FF0FF30F9E700BF00010044B6
S31500005A8000840424000130000000024500180424AC
S31500005A900014042438B54368B3F1884F04460D4614
S31500005AA002D01F4A934207D11E4BDB690021D3F86F
S31500005AB0E8304FF08C40984762681B4B9A4207D1FA
S31500005AC0184BDB690121D3F8E8304FF08C4098473A
S31500005AD06268164B9A4205D1124B15481B6A08217B
S31500005AE0DB6B9847E3680BB923698BB16368B3F145
S31500005AF0884F08D00A4A934205D00B4A934202D0F7
S31500005B000A4A934209D1074BDB6828465B689847E7
S31500005B106369002083F8290038BD4FF0FF30FBE7AA
S31500005B200001004400013000000002450018042472
S31500005B300014042470B50C4615461E4620B10228F2
S31500005B4072D06FF0030070BD91F9080000280CDBDD
S31500005B504309474900F01F0020330122824041F8E3
S31500005B602320BFF34F8FBFF36F8FE06862696368CE
S31500005B70B0B192F826209AB1B3F1884F0BD03D4AC6
S31500005B80934208D03C4A934205D03C4A934202D005
S31500005B904FF0FF30D7E7007932462946FFF7BCFDC4
S31500005BA0D4E90402636890B1127982B1B3F1884FE7
S31500005BB008D0304A934205D02F4A934202D02F4A4A
S31500005BC09342E5D1007932462946FFF7A5FD636881
S31500005BD02B4AB3F1884F05D026498B4202D026497D
S31500005BE08B421DD11023D36094F90830002B09DBBA
S31500005BF05A09012103F01F03994002F160031C4A70
S31500005C0042F82310636900225A601A7283F826202C
S31500005C1093F8292022F0020283F82920002092E737
S31500005C204FF400139364DFE74A6992F82930D907E5
S31500005C30AED513F00203F1D161684B605360137265
S31500005C4082F826304FF44073138594F90830002B00
S31500005C50E4DB03F01F015B099B0003F1604303F5DE
S31500005C60614301228A40C3F880211A60D6E700BF4B
S31500005C7000E100E000010044000002450018042491
S31500005C80008404242DE9F04F8FB00DF11C0A06465E
S31500005C900D46904600211C225046DDF864901F46B2
S31500005CA004F0E0FF002E00F08D80002D00F08A80C9
S31500005CB0D8F8142092F82930580704D44FF0FF3052
S31500005CC00FB0BDE8F08F92F82630002B7DD101246D
S31500005CD082F82640D8F80CE013629661D8F80430B2
S31500005CE01561BEF1000F59D0B3F1884F099450D019
S31500005CF0374A93424DD0374A93424CD0364A934264
S31500005D00DCD122460324CDE90C4201210B91DEF8B9
S31500005D100000DEF808C007919EF80410BEF800E007
S31500005D20CEF3091E6EF30D1000F0070BBBF1020F48
S31500005D3001BFBA6894686BF302049460274C0EF1B5
S31500005D4001029542E26838BF05F1FF3ED2F808B07D
S31500005D50189ACDF8149038BFCEF3090E6EF30D10D5
S31500005D60CDE903C2CDE9010A009532463846D84747
S31500005D700130A3D0D8F80C00E3680079DB68394617
S31500005D804A469847E36849461B69384698470020C3
S31500005D9096E71922B7E71B220224B4E75969890658
S31500005DA00ED45A6842F002025A60F0E74C1C1462A4
S31500005DB0715C19600138F4D0116AA942F6D1F0E796
S31500005DC01020F9E76FF004007AE76FF0010077E73B
S31500005DD000010044000002450018042400013000C0
S31500005DE02DE9F04F8FB0984607AB81460F4618460F
S31500005DF0164600211C22DDF864A004F033FF03469A
S31500005E00B9F1000F7BD0002F79D0726992F8291072
S31500005E10490704D44FF0FF300FB0BDE8F08F117979
S31500005E2001296FD000250124546015723069D760AE
S31500005E30C2F81490D561726800285BD0B2F1884F21
S31500005E40CDE9085451D031498A424ED030498A4270
S31500005E504DD030498A42DDD10324B0F800B0D0F8E5
S31500005E6000C0D0F808E0CBF3091BCDE90C456BF375
S31500005E700D1C01210B9107910CF007050021022D45
S31500005E800A91017901BFD8F80800846865F3020415
S31500005E908460214C0BF101008742E06838BF07F1AE
S31500005EA0FF3B85681898CDF814A038BFCBF3090BD3
S31500005EB06BF30D1CCDE903E0CDE901C300974B461A
S31500005EC04046A8470130A5D03069E3680079DB6811
S31500005ED052464146984796F8403023B9E368514602
S31500005EE01B6940469847002096E71825B5E71A250E
S31500005EF00224B2E7536843F001035360F3E76FF0FF
S31500005F00040089E76FF0010086E700BF0001004446
S31500005F100000024500180424000130002DE9F34773
S31500005F200746DDE90AA8DDF83090084616461D4604
S31500005F301FB311B30AB35B6993F82920520723D51F
S31500005F4095F84040F4B12A7812F0060F1CD00322CF
S31500005F5083F827203146CDE9008953462A46FFF7C4
S31500005F603FFF60B953462A4631463846CDE90A898D
S31500005F7002B0BDE8F047FFF785BE6FF0040002B03F
S31500005F80BDE8F0872046FAE74FF0FF30F7E74369B0
S31500005F90186A70474369D869704700002DE9F047D1
S31500005FA01C465B69924693F8292080469007DDE9F6
S31500005FB00867894640F148845FFA88F5A5F115011E
S31500005FC0052900F26481DFE811F006005A00C200DC
S31500005FD0DB00FB002901B9F1000F4BD06368B3F178
S31500005FE0884F05D0874A934202D0874A934228D1E8
S31500005FF0E36958783F280CD94038C0B2FFF784FBD4
S31500006000E36982485A78403A0623D2B20021FFF764
S3150000601059FBE369D87808B1FFF766FBE36958785E
S31500006020A0F11903052B01D8FFF756FBE369587851
S31500006030FFF762FBE16976488B784A780978FFF7C3
S3150000604041FB6268734B9A420AD1E3695878FFF7BD
S315000060505BFBE1696D488B784A780978FFF732FB7C
S31500006060626992F8293043F0080382F8293000204B
S31500006070BDE8F08722F0080283F82920F7E7B9F196
S31500006080000F61D06368B3F1884F05D05D4A934233
S3150000609002D05D4A93423AD1236A58783F2816D9EE
S315000060A05D4B1B6840380121D3F8F030C0B29847E9
S315000060B0236A58784038C0B2FFF726FB236A534854
S315000060C05A78403A0623D2B20021FFF7FBFA236A38
S315000060D0D87808B1FFF708FB236A5878A0F11903AE
S315000060E0052B01D8FFF7F8FA4B4B226A1B6850784C
S315000060F0D3F8D43001219847236A5878FFF7FCFA81
S31500006100216A43488B784A780978FFF7DBFA626898
S31500006110404B9A4212D1404B226A1B685078D3F802
S31500006120F03001219847236A5878FFF7EDFA216A83
S3150000613036488B784A780978FFF7C4FA626992F88C
S31500006140293043F0100390E722F0100294E7B9F1EA
S31500006150000F0DD093F82620002A40F0788361685E
S31500006160CA6842F04002CA60012283F826207EE710
S315000061706168CA6822F04002CA6083F8269076E712
S315000061806068E568426822F0020242600522826089
S315000061909DB193F8263083B1B0F1884F08D0194BE2
S315000061A0984205D0184B984202D01A4B984204D117
S315000061B028793A463146FFF7AFFA63690022D4E7F9
S315000061C06068426822F00102426022690321816010
S315000061D09AB11B798BB1B0F1884F08D0094B984220
S315000061E005D0094B984202D00A4B984205D1E36884
S315000061F03A4618793146FFF78FFA636900221A7119
S3150000620035E700BF000100440000024500C0042439
S315000062100000134600180424000130006268E0689C
S31500006220516821F00301516098B193F8263083B18B
S31500006230B2F1884F08D0784B9A4205D0774B9A42F4
S3150000624002D0774B9A4204D100793A463146FFF79D
S3150000625063FA2069A0B163691B798BB16368B3F1F6
S31500006260884F08D06C4A934205D06C4A934202D0BC
S315000062706B4A934204D100793A463146FFF74CFA0D
S31500006280636807229A60636900221A716DE76A1EC5
S31500006290132A00F2DF82DFE812F05F0014007100BB
S315000062A0AD00C9003101DD02DD02DD02DD02DD02E5
S315000062B0DD02DD02DD02DD023701170031013A01A0
S315000062C0310194F8403013B96FF00600D0E66268E9
S315000062D0514B9A42F8D1237899073DD5A36958784E
S315000062E03F280CD94038C0B2FFF70EFAA3694D48D3
S315000062F05A78403A0623D2B20021FFF7E3F9A369A0
S31500006300D87808B1FFF7F0F9A3695878A0F1190316
S31500006310052B01D8FFF7E0F9A3695878FFF7ECF9E8
S31500006320A16941488B784A780978FFF7CBF9636809
S315000063309A6D42F001029A659A6D42F002029A65E0
S3150000634094F841109A6D002951D042F010029A65D6
S315000063509A6D42F020029A6508F4E066B6F5A06FE1
S3150000636000F0EE8000F2D780002E00F0EC80B6F54B
S31500006370807F00F0EA806FF0080079E66268264BBD
S315000063809A42A1D123785A079ED5A36958783F2807
S315000063900CD94038C0B2FFF7B7F9A36921485A783B
S315000063A0403A0623D2B20021FFF78CF9A369D878C8
S315000063B008B1FFF799F9A3695878A0F11903052BDD
S315000063C001D8FFF789F9A3695878FFF795F9A1690C
S315000063D015488B784A780978FFF774F963689A6DDF
S315000063E042F001029A659A6D6FF34102A7E761F3E5
S315000063F00412ACE721780B07AED563681A6C42F03D
S3150000640001021A641A6C8F074CBF6FF3410242F007
S3150000641002021A64A0E700BF000100440000024522
S315000064200018042400C00424000013466368B3F176
S31500006430884F03D09C4A93427FF446AF2378DE060A
S315000064407FF542AFE36A58783F280CD94038C0B28E
S31500006450FFF75AF9E36A95485A78403A0623D2B2CA
S315000064600021FFF72FF9E36AD87808B1FFF73CF966
