S0200000736C5F73693931785F627574746F6E5F626172656D6574616C2E733337D1
S31500000000010000000D900D9080C600000100000068
S3150000001000102000740E33CF000000000000000026
S3150000002000000000000000000000000000000000CA
S315000000300000000000000000000000000D900D9080
S31500000040A55A0000002020080000008000000000E3
S31500000050000000000000000000000000000000009A
S31500000060000000000000000000000000000000008A
S31500000070000000000000000000000000000000007A
S31500000080000000000000000000000000000000006A
S31500001000404B000011262008C5252008C5252008CC
S31500001010C5252008C5252008C52520080000000094
S31500001020000000000000000000000000C5252008A8
S31500001030C525200800000000C5252008C525200874
S31500001040C5252008C5252008C5252008C525200852
S31500001050C5252008C5252008C5252008C525200842
S31500001060C5252008C525200845050000095020088B
S31500001070B52E2008C5252008C5252008C525200829
S31500001080C5252008C5252008857F20082980200839
S31500001090C52520081D7F2008C5252008C525200850
S315000010A0C5252008C5252008C5252008C5252008F2
S315000010B0C5252008C5252008404B0000C525200869
S315000010C0112620089D040000C5252008C5252008F6
S315000010D0C5252008C52520089D2E2008A92E2008F4
S315000010E041252008C5252008C5252008A1ACB669DC
S315000010F0C5252008C5252008C5252008C5252008A2
S31500001100C5252008C5252008ED7E2008057F200876
S315000011102D7E2008457E20085D7E2008757E2008ED
S315000011208D7E2008A57E2008BD7E2008D57E20085D
S31500001130C5252008C5252008C5252008C525200861
S31500001140C5252008C5252008C5252008C525200851
S31500001150C5252008C5252008C5252008C525200841
S31500001160C5252008C5252008C52520080000000043
S315000011700000000000000000000000000000000069
S315000011800348044B834202D0034B03B11847704710
S31500001190A00B0000A00B0000000000000548064B55
S315000011A01B1AD90F01EBA301491002D0034B03B15F
S315000011B018477047A00B0000A00B000000000000BD
S315000011C010B5064C237843B9FFF7DAFF044B13B189
S315000011D00448AFF300800123237010BDA00B00006C
S315000011E00000000090C3200808B5054B1BB1054957
S315000011F00548AFF30080BDE80840FFF7CFBF00BF4A
S3150000120000000000A40B000090C3200800F002B804
S3150000121000F001B870477047054B1B78834205D133
S31500001220012903D1034B187800F04ABF704700BF6D
S31500001230A8BD2008ADBD200808B500F02DF8FFF7C1
S31500001240E5FF00F036F8FFF7E3FFFAE708B500F030
S31500001250EBF904F017FA00F037F8BDE8084000F0A3
S3150000126015BB08B500F00CF8BDE8084000F00EB854
S315000012707047704770477047704770477047000067
S31500001280014800F01FBE00BFA8BD2008014800F0BD
S31500001290FEBE00BFADBD200808B5FFF7D7FFFFF7BC
S315000012A0E0FFFFF7E5FFFFF7E4FFBDE80840FFF7C3
S315000012B0E1BF08B5FFF7DFFFFFF7DEFFFFF7DDFF52
S315000012C0BDE80840FFF7DABF70B5134C134D23682D
S315000012D05E6C0023194628460222B04723681E6822
S315000012E00023194602222846B04723680C4DD3F83E
S315000012F0C0300520984723685E6C002319462846AF
S315000013000A22B04723681C6800232846A4460A22FE
S31500001310BDE87040194660470001300000C0042453
S315000013200000134630B5114B93F85830013BDBB241
S31500001330FD2B8FB018D80E4D0FCD6C460FC40FCDB8
S315000013400FC40FCD0FC495E8030084E80300094CD1
S315000013506846D4F844370AF01BF804F017FAD4F8B4
S31500001360443700200FB030BD0120FBE700021F0804
S3150000137058021F0800800524134B0168D3F8443730
S31500001380F0B50127013900D2F0BDD0F808C0466893
S31500001390CCF38455C5EBDC62346801320023013A94
S315000013A00CD203FA05F203EA0C03C3F3150324EA8D
S315000013B00202AB40134333600830E3E707FA02FE4C
S315000013C043EA0E03EBE700BF0080052408B5184882
S315000013D0FFF7D2FF1748FFF7CFFF04F0CDFC04F06C
S315000013E0DFFC04F0E9FC04F0FBFC04F005FD124808
S315000013F0FFF7C2FF1148FFF7BFFF1148FFF7BCFF19
S315000014001048FFF7B9FF1048FFF7B6FF0F48FFF780
S31500001410B3FF0F48FFF7B0FF0E48FFF7ADFF0E48CA
S31500001420FFF7AAFFBDE808400C48FFF7A5BF00BFBD
S315000014304C0B0000B00A0000EC060000B8070000E4
S31500001440AC070000CC0700008C06000080060000F8
S3150000145074060000C806000010070000040700001C
S3150000146010B5254CFFF7B2FF94F8040600F0010012
S31500001470FFF758FF4FF4C023C4F86C34D4F840315A
S315000014801E4843F40023C4F84031D4F8403143F0F9
S315000014900103C4F84031D4F8403143F00203C4F8E4
S315000014A04031FFF769FF16491648D1F8103543F069
S315000014B00203C1F81035636923F40033636163697D
S315000014C043F480336361D0F84027D0F87837C2F30D
S315000014D04342023A23F4F07343EA4213C0F87837E2
S315000014E0D1F8943443F40023C1F89434236943F4C7
S315000014F06013236110BD00BF00800424D8080000DB
S3150000150000A005240080052408B550B10748FFF760
S3150000151033FF0748FFF730FF0648BDE80840FFF7EE
S315000015202BBF0548FFF728FF0448F6E7200900000F
S31500001530C8090000BC090000940900004009000029
S315000015400B48D0F800D05DF804EB5DF804CB5DF8ED
S3150000155004BB5DF804AB5DF8049B5DF8048B80BCAE
S3150000156040BC20BC10BC08BC04BC02BC01BC70471B
S31500001570C80B0000114AD2F8103623F48073C2F863
S3150000158010360F4B596B41F001015963596B41F00D
S31500001590020159630423C2F8383482B000238DF85F
S315000015A007309DF80730092B01D902B0704700BFFC
S315000015B09DF807300133DBB2F1E700BF0080042459
S315000015C000840424FEE7FEE7054B064A06498B42E3
S315000015D000D3704752F8040B43F8040BF7E700BF3B
S315000015E00C000000ACC52008A00B0000064B074805
S315000015F0DA1C121AC11E22F00302994288BF002289
S31500001600002107F03ABB00BF401B0000A00B000002
S3150000161008B5FFF7D9FFFFF7E9FF00F0B3F8BDE81B
S315000016200840FFF709BE000038B5374B374A1A6045
S31500001630374B384A93F80636374C03F00F030F2B17
S3150000164015BF364B4FF00063D3F89312D3F8371417
S315000016500CBF11601160324A0CBFD3F83634D3F890
S315000016609232136004F012FA04F012FA2D4BDB6981
S315000016704FF08061D3F880304FF08C409847E36993
S31500001680022060F30E33E361274BDA696FF302023F
S31500001690DA6104F077FA1E4B1A6A042161F302023A
S315000016A01A621A6A1207FCD5A369022262F384033E
S315000016B0A361A3691B04FCD51C4B1D4D5A6E6FF329
S315000016C041025A665A6E6FF300025A66FFF752FFDE
S315000016D0184B19480D4A18614FF4FA44D861174857
S315000016E05C6200211C624FF40044C3E90022C3E996
S315000016F00B05C3E90F2299605961DA609C625A634F
S315000017005864996138BD00BF1C0C0000005A620283
S3150000171000800424C40B00000081042400001F087C
S31500001720C00B00000001300000860424008404245D
S31500001730002D3101CC0B000000B4C4040048E801C0
S315000017404FF0E02384B0D3F8402F0192D3F8442F12
S3150000175002920199094A91420DD10299084A914291
S3150000176009D1D3F8882D0392039A42F470020392AA
S31500001770039AC3F8882D04B0704700BF21001110EA
S315000017801100001113B50023009301932F4BD3F8DA
S3150000179010250092009A00922D4A116821F00F013F
S315000017A0116011681160D3F89C1421F46071C3F8BC
S315000017B09C14D3F8041701910199C3F80415D3F8C2
S315000017C0001701910199C3F80015D3F8101541F0DF
S315000017D01C01C3F81015D2F8024014F48074FAD133
S315000017E01C48436943F480334361436964F35143BE
S315000017F04361FFF7A5FF184B4FF080725A60174BF5
S31500001800C0F84031164B5A6864F3C3025A60036A43
S315000018100E4A43F480330362036A43F400330362DF
S31500001820D2F8943443F40023C2F89434036943F4A1
S31500001830601303610B4B1A6842F400221A601A689F
S3150000184042F480221A6002B010BD00BF00A0052439
S315000018500000052400800424000030410300080035
S31500001860008104240084042420F04040012802D092
S31500001870022805D07047034A136801331360704786
S31500001880014AF9E7240C0000200C000010B50F4CAB
S31500001890E3689847A3680E4898472369022098474B
S315000018A0A46A01211520A04701211620A0474FF464
S315000018B0E1310120A047074B4FF48052C3F8802046
S315000018C0BFF34F8FBFF36F8F10BD00BFB0BD2008B1
S315000018D06928200800E100E013B5094C00238DF8C3
S315000018E004302360074B01219B6901A898472368B0
S315000018F01BB19DF8040002B010BD00F0E1FAF6E756
S31500001900200C0000B0BD200813B5094C8DF8070067
S3150000191000232360074B01215B690DF107009847FF
S3150000192023680BB102B010BD00F0CAFAF8E700BF99
S31500001930240C0000B0BD200803681B780022202B71
S3150000194004D0093B042B01D9D0B270470368591C57
S3150000195001605B780132F2E70120704708B507F0B5
S31500001960DFF9162303604FF0FF3008BD08B507F016
S31500001970D7F916230360FEE770B50D4614460E46EA
S31500001980731B9C4201DC204670BD16F8010BFFF765
S31500001990BBFFF5E74FF0FF3070474FF400534B6045
S315000019A00020704701207047002070470FB42DE9D2
S315000019B0F0438BB012AB002453F8046B01938DF8FF
S315000019C01040FFF789FF0D288DF81000F7D00A2880
S315000019D0F5D0002425460134142C2ED0FFF77CFFC9
S315000019E004F128036B440D2803F8180C01D00A28CB
S315000019F0F0D105F128030DEB0305002305F8163C8D
S31500001A0004AB03939DF81030019F0296002B00F063
S31500001A104E810025029B1B78002B3BD0DDF80C90F5
S31500001A2099F80060002E35D002A8FFF785FF04461E
S31500001A3038B103A8FFF780FFECE700238DF82430C8
S31500001A40DEE7029A1346517813F8010B0293252814
S31500001A5001D1252907D18E421CD109F10103023299
S31500001A6003930292D6E726462046A0461A7806F049
S31500001A707C01002A67D100B10293002967D109E0F1
S31500001A80692A51D01ED8632A53D011D8392A07D8CB
S31500001A902F2A35D8E8B20BB0BDE8F04304B0704742
S31500001AA0582AF7D146F0200601334FF0100833E0EC
S31500001AB0642AEFD146F4005646F0200601334FF073
S31500001AC00A0829E06F3AD1B20929E3D8092AE1D8F0
S31500001AD001A151F822F000BF1D2B2008952A2008ED
S31500001AE0952A2008952A2008412B2008952A2008A7
S31500001AF0B92A2008952A2008952A2008A52A200810
S31500001B00002CC7D10A211A78303A01FB042413F8B5
S31500001B10012F303A092AF6D90120A7E746F0200618
S31500001B2001334FF00808F7E746F0200601338846F0
S31500001B30F2E7012C46F0040638BF01240133EBE737
S31500001B4046F00806FAE700299AD000B10293002C65
S31500001B5008BF632408291BD0202940D0042999D125
S31500001B6057F8042B4946144400200E780B460131E1
S31500001B700EB938B94EE702F8016B94424FF00100F6
S31500001B80F3D10B46994503933FF444AF013541E742
S31500001B9003A8FFF7D1FEDDF80CC057F8042B664604
S31500001BA014440021307810F0DF0F334606F10106A9
S31500001BB001D161B92EE7A0F1090EBEF1040FF8D9E3
S31500001BC002F8010BA2424FF00101EBD133469C45CE
S31500001BD003933FF41FAF374B00221A70D6E703A8D2
S31500001BE0FFF7AAFE039BB8F1000F10D0B8F1100F53
S31500001BF017D11A78302A14D15A7802F0DF02582AFF
S31500001C000FD102330393023C4FF0100809E01A7813
S31500001C10302A16D15A7802F0DF02582AF1D04FF056
S31500001C200808039B1A782B2A0ED02D2A0FD10133D0
S31500001C300393013C4FF0FF31039A0020144484467D
S31500001C4014E04FF00A08ECE701330393013C01214D
S31500001C50F2E7A9F14103052B02D910B3039220E064
S31500001C60A9F1370315E00CFB083C012092F800901F
S31500001C709646B9F1000FF0D0A242EED0A9F130039A
S31500001C80DBB2092B06D9A9F16103052BE1D8A9F12D
S31500001C905703DBB2984502F10102E4D808B1CDF84A
S31500001CA00CE057F8043B0CFB01F119606EE74FF0AE
S31500001CB0FF35EFE6280C0000064B1868002382B2B9
S31500001CC062F30F03000C60F31F4382B0184602B0A4
S31500001CD0704700BF24BE2008014B1868704700BF3C
S31500001CE024000000014803F087BB00BF2400000069
S31500001CF0014903F03FBB00BF24000000014803F088
S31500001D0017BB00BF2400000037B504460B200D4664
S31500001D1000F076FA064B1B680193064B00930246C9
S31500001D20054B2946204602F093FE03B030BD00BFA6
S31500001D30241000000C00000024000000014802F0FE
S31500001D4083BE00BF24000000014802F07ABE00BF37
S31500001D50240000007FB5104BD3E90354B2F5806F21
S31500001D602E883ABF02F1FF33C3F3090340F2FF3373
S31500001D7063F30D162E80258863F30D15074B25801A
S31500001D801B680293064B0193064B0093024B02F02D
S31500001D901FFE04B070BD00BF240000002410000028
S31500001DA03C0C00000C0000000D4B1A69B1F5806F69
S31500001DB013B538BF01F1FF33148834BFC3F30903E9
S31500001DC040F2FF3363F30D14064B14801B68019336
S31500001DD0054B0093024A054B02F05CFD02B010BDB4
S31500001DE024000000241000003C0C00000C00000041
S31500001DF00D4BDA68B1F5806F13B538BF01F1FF33CB
S31500001E00148834BFC3F3090340F2FF3363F30D14A0
S31500001E10064B14801B680193054B0093024A054B41
S31500001E2002F08AFC02B010BD24000000241000005D
S31500001E303C0C00000C000000024B034A1B680349DF
S31500001E4002F0D2BB241000000C00000024000000A9
S31500001E50034B044904484FF400129A6402F074BB21
S31500001E60008404240C0000002400000007B5064B83
S31500001E700193064B0093064A064B074902F0D4FA33
S31500001E8003B05DF804FB00BFAC0F00002410000097
S31500001E900C000000001C062424000000014802F08B
S31500001EA09BB900BFAC000000014802F095B900BF25
S31500001EB068000000014802F08FB900BF240000004E
S31500001EC0FFF7F8BF7FB5264E03788DF80D308DF8F5
S31500001ED0093033784278234D8DF80C2001210446D1
S31500001EE08DF80E108DF80820B3B1039804F0B2FEF9
S31500001EF003462860A8B962782079052A13D121788B
S31500001F00194B1A4A43F8214004F01CFFA2781849DD
S31500001F1001238B54337004E004F03EFF2860002850
S31500001F20E3D004B070BD042A10D1124D124A2978AC
S31500001F3042F8214000930246104B1148415C02A82A
S31500001F4004F0A4FD2B7801332B70DFE70D4D0E4A0C
S31500001F50297842F82140009302460C4B0C48EDE7E5
S31500001F60D4100000D8100000B81000004930200836
S31500001F70D0100000D2100000C01000003930200838
S31500001F80F0000000D3100000C8100000293020081F
S31500001F90F800000010B5044629B1042912D0BDE8A6
S31500001FA0104005F0FBBB4B2804D90D4840F2DB116D
S31500001FB005F0B0F8240104F18C4404F59814606827
S31500001FC0C0B210BD0B2804D905484FF4EF7105F0D7
S31500001FD0A1F8240104F1105404F59824EFE700BF9A
S31500001FE028BE200870B5044641780078FFF7D2FF76
S31500001FF043B2002561782078DEB2FFF7CBFF43B20B
S31500002000B342F6D10135B5F5FA7FF3D10549A27889
S3150000201020788A5C934214BF01210021FFF7FCF867
S3150000202070BD00BFD0100000024B53F82000FFF730
S31500002030D9BF00BFC8100000024B53F82000FFF7BD
S31500002040D1BF00BFC0100000024B53F82000FFF7BD
S31500002050C9BF00BFB81000000278052A15D843781A
S3150000206022B93A2B34BF002021207047511E012986
S3150000207005D9032A05D0042A05D0062BF2E7102B32
S31500002080F0E70A2BEEE70C2BECE72120704713B59F
S31500002090837804468BB9012004F0AAFD63788DF895
S315000020A0043023788DF8053000238DF8063001982A
S315000020B002B0BDE8104004F0CDBD0020ECE7000002
S315000020C037B5831E5D425D4104468DF80500AD00BF
S315000020D001A88DF80450FFF7BFFF80B98DB94B2CCE
S315000020E004D90B4840F24A2105F014F8240104F102
S315000020F08C4404F59814636883F00103636003B0AD
S3150000210030BD044A536A83F001035362F7E700BF08
S3150000211028BE200800C00424354BDFED366AD3F80C
S31500002120102242F04002C3F8102207EE900AD3F8BC
S315000021301022F4EEE67A42F01002F1EE10FA07EE03
S31500002140101A82B0C3F8102206DCF0EE086AB4EE6C
S31500002150E67AF1EE10FA08D5D3F8102242F0200202
S31500002160C3F81022002002B070479FED237AF4EEE8
S31500002170C77AF1EE10FA10D5D3F810226FF30302E6
S31500002180C3F81022D3F810226FF38612C3F8102278
S31500002190D3F810226FF30412E2E777EEC77ADFED89
S315000021A0176A134A87EEA67AF7EE007A77EE277A51
S315000021B0FCEEE77ACDED017A9DF80430F6EE007A72
S315000021C077EE277A07EE103AB8EE477AB4EEE77A5A
S315000021D0F1EE10FAC2BFFCEEE77ACDED017A9DF87A
S315000021E00430D2F8101263F30301C2F81012B9E7F3
S315000021F00038042433333340CDCCCC3F0AD7A33D3B
S31500002200D0B50E2800F27C82DFE810F00F005A00ED
S315000022109500D00004010F01410171018101900177
S31500002220B701DC010702320254024FF08C43DB692E
S3150000223003F00703042B41D8DFE803F0033A3437F1
S315000022403D00844B9A6C013A052A37D8DFE802F044
S31500002250032224222628586C4FF08C43DC69DB6964
S31500002260C4F3C30413F0005F60D094B105F048FCDA
S31500002270064620460F4605F043FC774B002205F044
S3150000228003FB02460B463046394605F0DDFD05F0F8
S315000022904BFFD0BDD86ADFE7D86BDDE7186BDBE70D
S315000022A0586BD9E76B4BD869D6E76A4B5869D3E7C1
S315000022B0684B9868D0E7674BD868CDE70020CBE736
S315000022C04FF08C43DB69C3F3C213042B2CD8DFE831
S315000022D003F003251F2228005E4B9A6C013A052A5B
S315000022E022D8DFE802F0030D0F0D1113586C4FF0E2
S315000022F08C43DC69DB69C4F3832413F0804FB3E7B6
S31500002300D86AF4E7D86BF2E7186BF0E7586BEEE79C
S31500002310504BD869EBE74F4B5869E8E74D4B986847
S31500002320E5E74C4BD868E2E70020E0E7002CB0D0A8
S31500002330B0FBF4F0ADE74FF08C439B69C3F3C233B7
S31500002340052B31D8DFE803F0032124272A2D414B42
S315000023509A6C013A052A27D8DFE802F0030F110F1D
S315000023601315586C4FF08C439B69C3F3C32213F4C7
S31500002370F04F8ED0B0FBF2F08BE7D86AF2E7D86B5D
S31500002380F0E7186BEEE7586BECE7324B9868E9E735
S31500002390304B1869E6E72F4B5869E3E72D4BD869B0
S315000023A0E0E72C4BD868DDE70020DBE74FF08C43F5
S315000023B09B6AC3F34243032B2AD8DFE803F00220CB
S315000023C02326244B9A6C013A052A21D8DFE802F02D
S315000023D0030F110F1315586C4FF08C439A6AC2F312
S315000023E0055312F07C7F3FF454AF5B004CE0D86A93
S315000023F0F2E7D86BF0E7186BEEE7586BECE7154B96
S315000024005869E9E7134B9868E6E7124BD868E3E7A3
S315000024100020E1E74FF08C42936903F00703032B9A
S3150000242025D8DFE803F0081B1E214FF08C42D36F3E
S31500002430C3F34223F3E7074BD86A91699369D269DC
S315000024408C05C3F3C503C2F3007212D5B2B9DBB96A
S315000024501FE700BFCC0B00000000E03F824BD869AD
S31500002460EBE7814B5869E8E77F4B9868E5E7002082
S31500002470E3E71AB9002BB8D140080AE7D9077FF578
S3150000248008AF022B7FF605AFB0FBF3F001E74FF084
S315000024908C439B69C3F30263042B00F23181DFE8AE
S315000024A013F0DF0005001D00200023006E4B9A6C20
S315000024B0013A052A00F22481DFE812F0060008003E
S315000024C00B0008000D00F700586CE2E6664BD86A70
S315000024D0DFE6D86BDDE6644B186BDAE6624B98688C
S315000024E0D7E6614BD869D4E65F4B5869D1E64FF021
S315000024F08C42936913F4802F5B4B0CBF5869986824
S31500002500936992691202C3F3C343B3D59FE74FF0B1
S315000025108C439A6A12F4806F534A0CBF9069D06854
S315000025209A6AC2F3C52312F4FC3F5CE74F4A9369EB
S315000025301B0F062B1FD8DFE803F0040C0F1215182B
S315000025401B00494B58689369C3F3464213F47E0F48
S315000025500FE7454B186AF6E7434B586AF3E7424BD9
S31500002560986AF0E7404BD86AEDE73F4B186BEAE70D
S315000025703D4BD868E7E70020E5E73C4AD369C3F35B
S315000025804303052B1CD8DFE803F0030C0F121518C4
S31500002590354B5868D369C3F34713002B7FF425AF37
S315000025A077E6314B186AF5E72F4B586AF2E72E4B60
S315000025B0986AEFE72C4BD86AECE72B4B186BE9E7E8
S315000025C00020E7E7294A136AC3F34303072B22D8FF
S315000025D0DFE803F0040C0F1215181B1E224B586877
S315000025E0136AC3F3421213F0E00FC2E61E4B186AD9
S315000025F0F6E71D4B586AF3E71B4B986AF0E71A4B50
S31500002600D86AEDE7184B186BEAE7174BD868E7E787
S31500002610154B586BE4E70020E2E7144B1B6BC3F342
S315000026204303062B6CD801A252F823F04936200842
S315000026304F362008553620085B362008CD34200852
S31500002640D734200861362008074B586821E6064B28
S31500002650186A1EE6044B586A1BE6034B986A18E68E
S31500002660014BD86815E600BFCC0B0000001404240B
S31500002670244B5B6BC3F34303082B41D801A252F8EA
S3150000268023F000BF493620084F362008553620086B
S315000026905B362008CD342008D73420086136200860
S315000026A0A9362008AF362008174B586BF1E5164BB4
S315000026B09869EEE5134AD36AC3F34303062B1DD884
S315000026C0DFE803F0040A0D10131619000E4B5868C4
S315000026D0D36AC3F34713BAE60B4B186AF8E70A4BFB
S315000026E0586AF5E7084B986AF2E7074BD86AEFE7AE
S315000026F0054B186BECE7044BD868E9E70020E7E7E1
S315000027000020C6E500140424CC0B0000024B1B6815
S31500002710D3F8BC30184700BF00013000024B1B68DD
S31500002720D3F8CC30184700BF00013000024B1B68BD
S31500002730D3F8EC30184700BF00013000024B0121EE
S315000027409B69C0B2184700BFFC100000FFF7F6BF38
S315000027501346054A126810B4546C0A46A446002172
S315000027605DF8044B604700BF00013000034B1B6A55
S3150000277002469B6A02480121184700BF000130004B
S3150000278000140424104B114A1B7F82B0012BADF8B4
S3150000279004000F4BC0B24FF400610DD9116020B98F
S315000027A0D3F808220A43C3F808225A68002042F0E8
S315000027B001025A6002B0704711600028F5D1D3F8C3
S315000027C0082242F40062EEE7FC10000000E100E09F
S315000027D0003804242DE9F04F224B234893F81CE0DF
S315000027E0224B1A7800231C4602F59875D9B28E45FD
S315000027F00CD8DFF880800023A8F5107902F5907CCC
S31500002800DAB2964509D80020BDE8F08F30F81510E9
S315000028108C4238BF0C460133E8E743B929F81C302F
S315000028200133EDE7B5F820B0594489B20AE0002734
S315000028301FFA83FABEB2B442F2D900220C4D1046FA
S3150000284035F8021FA14203D2B142EBD1013292B256
S31500002850013080B25045F3D30137002AEAD128F877
S315000028601360DDE7FC1000001C110000F8100000EA
S315000028705A1300005C130000012800D17047C307FB
S3150000288001D44008F8E70020704703460120834240
S3150000289008DC00EBD072A3EB6203B3EBA00FB8BF6A
S315000028A0400870474000F2E707EE100ADFED087AAD
S315000028B0084837EE277AF7EE006AC6EE877AFCEE0E
S315000028C0E77A17EE903A834228BF034618467047C8
S315000028D095BFD633404B4C0084B0F0B506AC84E8C7
S315000028E00E00DFED957A002123AC0DF16B050A464B
S315000028F00B46CEB2B04200F2AF80002B00F0A380B0
S31500002900B0EE007AF4EEC77AF1EE10FAB0EE047A81
S3150000291005DBF4EEC77AF1EE10FA00F1DF80F4EE93
S31500002920C77AF1EE10FAB0EE087A05DBF4EEC77A54
S31500002930F1EE10FA00F1D880F4EEC77AF1EE10FA53
S31500002940B1EE007A05DBF4EEC77AF1EE10FA00F18B
S31500002950CE80F4EEC77AF1EE10FAB1EE047A05DB1A
S31500002960F4EEC77AF1EE10FA00F1C480F4EEC77AFD
S31500002970F1EE10FA07DBB1EE087AF4EEC77AF1EE63
S3150000298010FA00F1BA80B1EE0C7AF4EEC77AF1EEE5
S3150000299010FAB2EE007A05DBF4EEC77AF1EE10FA21
S315000029A000F1AE80F4EEC77AF1EE10FAB2EE027ADA
S315000029B005DBF4EEC77AF1EE10FA00F1A480F4EE2E
S315000029C0C77AF1EE10FA06DBB2EE047AF4EEC77AB5
S315000029D0F1EE10FA6FD4B2EE087AF4EEC77AF1EEA1
S315000029E010FA06DBB2EE0C7AF4EEC77AF1EE10FAC4
S315000029F06ED4B3EE017AF4EEC77AF1EE10FA06DB86
S31500002A00B3EE027AF4EEC77AF1EE10FA63D4B3EEBF
S31500002A10097AF4EEC77AF1EE10FA06DBB3EE0A7A1B
S31500002A20F4EEC77AF1EE10FA70D9B3EE0B7AF4EE43
S31500002A30C77AF1EE10FA06DB9FED407AF4EEC77A1C
S31500002A40F1EE10FA74D9DFED3E7A9FED3E7A002A58
S31500002A5018BFF0EE477A65E015F8016FA6F1140C81
S31500002A60BCF1020F2F7C0FD894ED007AB4EEE77A12
S31500002A70F1EE10FA03DD0133DBB2F0EE477A0D2FEB
S31500002A8016D00131043434E7A7F10A0CBCF1020F69
S31500002A900CD894ED007AB4EEE77AF1EE10FA03DD85
S31500002AA00133DBB2F0EE477A182EE9E7182EE6D1AD
S31500002AB00132D2B2E5E7DFED247A9AB39FED217AAF
S31500002AC0F4EEC77AF1EE10FA23D5F0EE477A29E054
S31500002AD0DFED1E7AF1E7DFED1E7AEEE7DFED1D7A18
S31500002AE0BAB1DFED187A1DE0DFED1B7AF8E7DFED0E
S31500002AF01B7AF5E7DFED1A7AF2E7DFED1A7AEFE7F0
S31500002B00DFED197AECE7DFED197AE9E7DFED187A00
S31500002B1042B19FED0B7AF4EE477AF1EE10FA48BF18
S31500002B20F0EE477ABDE8F04017EE900A04B0704721
S31500002B30DFED107AECE700BF0000000000004C4219
S31500002B4095BFD6338BE16A36ACC5A735EFE60836B6
S31500002B509F9D42362E5A823301A90C3437F85934D8
S31500002B602439EC3434580F35AD186335883E8A3530
S31500002B70B1B49D36F2DD1C3770B50D4616460446D7
S31500002B80D0B9FFF7D3FDAA4807222146FFF7E0FD9B
S31500002B90002D40F0AA81012E00F09F810B2C1DD044
S31500002BA00C2C40F0F5800520FFF7C0FDA048072259
S31500002BB00521FFF7CDFD98E0012818D10220FFF787
S31500002BC0B5FD9B4807220221FFF7C2FD002D76D1F5
S31500002BD0012E00F082810B2C40F0DA800320FFF7F3
S31500002BE0A5FD072203219248FFF7B2FD96E00228D1
S31500002BF00ED10420FFF79AFD072204218C48FFF727
S31500002C00A7FD002D00F06681012D40F0778155E18A
S31500002C10032805D10620FFF789FD07220621EDE7E7
S31500002C20042805D10820FFF781FD07220821E5E7E2
S31500002C30052805D10A20FFF779FD07220A21DDE7DD
S31500002C4006280CD17B4B20225A601920FFF766FD1F
S31500002C501920FFF75BFD78480E221921B4E70728F3
S31500002C601ED1744B20225A601B20FFF757FD1B20F4
S31500002C70FFF74CFD0E221B216F48FFF769FD002D63
S31500002C8000F02881012D40F0D980012E00F0198135
S31500002C900C2C21D10520FFF749FD07220521A2E7CB
S31500002CA0082840F0FD80634B20225A601D20FFF764
S31500002CB035FD1D20FFF72AFD0E221D21DCE70B2C1A
S31500002CC01ED0012D40F01A81012E00F0FA800C2C46
S31500002CD0E0D00D2C00F0C1800E2C50D00F2C6FD000
S31500002CE0102C75D12EE0022D40D0032D52D1012E8D
S31500002CF059D00E2C70D00F2C62D0102C30D121E080
S31500002D000320FFF713FD4A4807220321FFF720FDA2
S31500002D10022D2BD0032D03D1012E44D0002070BDEF
S31500002D20042D00F0A480052DDAD1012E40F0A380F9
S31500002D300720FFF7FBFC07223D481146FFF708FD79
S31500002D40102C5ED13B4B20225A601A20FFF7E6FC7E
S31500002D501A20FFF7DBFC38480E221A21FFF7F8FC91
S31500002D60112C50D0072D5CD1012E88E0012ED5D133
S31500002D7069E0012E67D00D2C0FD00E2CBBD1092097
S31500002D80FFF7D4FC2A4807220921FFF7E1FCCAE72E
S31500002D900D2C62D00E2C68D1F1E70B20FFF7C6FC94
S31500002DA007220B211FE70B20FFF7C0FC2048072254
S31500002DB00B21FFF7CDFC8FE70E2CE0D00F2CB2D104
S31500002DC00720FFF7B3FC072219481146FFF7C0FC9E
S31500002DD0062DC5D1012E4FE00920FFF7A7FC0722DB
S31500002DE0092100E70920FFF7A1FC11480722092164
S31500002DF0FFF7AEFC7FE70720FFF798FC0722114696
S31500002E00F1E6112C0DD10B4B20225A601C20FFF746
S31500002E1085FC1C20FFF77AFC07480E221C21FFF7D1
S31500002E2097FC122C2FD0082D7FF478AF012E28E0C6
S31500002E3000C004240000304100001346022D7FF438
S31500002E4054AF012E99D10520FFF770FC2E480722BA
S31500002E500521FFF77DFC0D2CAED10B20FFF766FC9C
S31500002E60294807220B21FFF773FC042DA6D1012E5A
S31500002E70B8D00F2CBFD0102C3FF464AF112CC2D0A9
S31500002E80122C7FF44BAF214B20225A601E20FFF7F5
S31500002E9045FC1E20FFF73AFC1D480E221E21A3E624
S31500002EA00A287FF475AE0120FFF740FC164807227A
S31500002EB00121FFF74DFC012D7FF415AF012E7FF4A4
S31500002EC02DAF0320FFF732FC0F4807220321FFF73F
S31500002ED03FFC65E6012E7FF421AF0120FFF726FCBB
S31500002EE0094807220121FFF733FC0B2C3FF408AFFA
S31500002EF0012D3FF4E9AE0C2C3FF455AE022D3FF404
S31500002F0038AF0D2CA9D0F0E600C0042400003041F3
S31500002F10000013462DE9F0410F29BDF81850BDF801
S31500002F201C609DF820809DF824E055D845EA0604EB
S31500002F30B4F5806F50D22B4C01F1100701F1400C13
S31500002F4044F8273001F150079A4244F8212024F82A
S31500002F501C5024F8176041D0B8F1000F17D001F1CA
S31500002F60300802EB4502C0F8D42144F8282045EA8F
S31500002F70C12242F40048C0F8D881D0F8D881C0F800
S31500002F80D821D0F8D82144F82C8044F82720BEF167
S31500002F90000F02D10020BDE8F08101F1600205EBCF
S31500002FA046052B44C0F8D43144F82230CB0203F551
S31500002FB08063334343F40042C0F8D82101F1700224
S31500002FC0D0F8D85144F822508031C0F8D831D0F822
S31500002FD0D83144F82130DDE70120DCE742F2021067
S31500002FE0D9E700BF1C1100000F2910B528D892B1EF
S31500002FF0144A01F1300452F82440C0F8D44101F1DA
S31500003000400452F82440C0F8D84101F1500452F867
S315000030102420C0F8D8218BB10A4B01F1600253F885
S315000030202220C0F8D42101F17002803153F8222009
S3150000303053F82130C0F8D821C0F8D831002010BD8F
S315000030400120FCE71C11000010B5274B27485A68E1
S315000030505A6842F001025A60D3F8082242F48062AC
S31500003060C3F8082203F5B4331A68026852BBD3F8D2
S31500003070402442F46752C3F840241D4AD2F8023075
S31500003080DC05FBD41B4BD3F80427D107FBD5D3F8BB
S315000030900427D207FBD4D3F84824174C174B2168D2
S315000030A01A60930803F4F8530B43910001F07C0176
S315000030B012020B4302F47832134343F08103236078
S315000030C0012303600C4B1A680A4BC3F84424084AD0
S315000030D0D2F8023013F48073FAD1034A516863F3CD
S315000030E00001516010BD00BF00380424EC10000040
S315000030F00000052400A00524F4100000F0100000D4
S315000031000F29024610B54FF001000CD8D2F8CC4179
S3150000311000FA01F32343D2F8CC119BB263F30F01FB
S31500003120C2F8CC11002010BD0F29024610B54FF091
S3150000313001000DD8D2F8CC4100FA01F343EA14435A
S31500003140D2F8CC119BB263F31F41C2F8CC11002018
S3150000315010BD30B50F299DF80C402CD81F2A2AD84F
S315000031600F2B28D8012C26D845686D060FD50901E6
S3150000317034B14518AC6B44EA835343F08063AB63C8
S3150000318001448B6B43EA42438B63002030BD5CB144
S31500003190D0F8081241F40071C0F80812D0F80812ED
S315000031A063F34811C0F80812D0F8083262F304033A
S315000031B0C0F80832E9E70120E8E7000029B9D0F8AD
S315000031C0083261F3CB23C0F80832064B5B68DB0795
S315000031D041BF43686FF300034360002058BF4FF0C0
S315000031E0FF30704700380424C1B2024882B002B0F2
S315000031F0FFF7E4BF003804240F2915D80D4B5A6891
S31500003200520603D4D3F8DC31002B0FDAD0F8DC21D8
S3150000321001238B401343D0F8DC219BB263F30F02EA
S31500003220C0F8DC2100207047012070474FF404509D
S31500003230704700BF00380424B1F5007F14D2B2F500
S31500003240806F11D243686FF38A234360C36861F3CA
S315000032501843C360C36862F30903C360436843F459
S315000032608063436000207047012070470F2925D8EE
S31500003270012A05D1436A6FF3D75343620020704792
S31500003280022A0BD1436A6FF300034362436A6FF36A
S3150000329004134362436A6FF3C303EEE7084BD3F8A4
S315000032A0DC31002BEADA436A0122C3F3CF138A40EA
S315000032B023EA0201436A61F3D613DEE70120704771
S315000032C0003804240F2903464FF0010014D81A6A67
S315000032D000FA01F189B2186AC2F30F220A4362F3B7
S315000032E0172018621A6AC2F30F2222EA0102196A2B
S315000032F062F31721196200207047000008B510B16B
S3150000330001280ED008BD4FF4006002F0FBFB104B05
S315000033104FF000725A640F4A137843F0010313709A
S31500003320F0E74FF4006002F007FC0A4A13786FF3E7
S3150000333000031370DBB2002BE4D1074B07481B6A6E
S315000033400221DB6B9847024B4FF000729A64D9E773
S31500003350008404244C1400000001300000140424EE
S3150000336084B0F0B52DED028B83B00AAC84E80F0073
S315000033705A4D709B0F9CAB61594B9DF8BD61BDF8D2
S315000033801C112E77621E9A4280F0A4800FAA012398
S315000033909E420AD8012E40F081809DF8BC3183B14F
S315000033A0012911D942F2061071E0174652F8040FAE
S315000033B03F68B84200F28E80002800F08B8001330F
S315000033C0E6E7B1F5806FEDD20020FFF797FF042006
S315000033D0FFF7CCF9434B44485A686FF38A225A6088
S315000033E0DA686FF31842DA60DA68042161F30902D9
S315000033F0DA605A683D4942F480625A60FEF78CFEF4
S31500003400FFF722FE012E16BF7443A4006400B4F534
S31500003410FA4F46D20220FFF7A9F94FF4FA436B6040
S3150000342002F008FD288102F0F9FC288202F008FD6E
S31500003430C0F30D0307EE103A9FED2D8AB8EEC77A5A
S31500003440830BC7EE086A07EE903AF8EEE77A77EE56
S31500003450A67AC5ED037A02F0E7FCC0F30D0307EE8A
S31500003460103AB8EEC77A830BC7EE086A01A807EED2
S31500003470903AF8EEE77A002377EEA67A0193C5ED47
S31500003480057A03F0C5F9003818BF0120404203B0A1
S31500003490BDEC028BBDE8F04004B07047731E0F2BE5
S315000034A07FE7144BA4F5FA449C4204D80420FFF7A6
S315000034B05DF9114BB3E7114BDC6914F0080407D131
S315000034C0022002F013FE2046FFF750F90C4BA6E748
S315000034D00C4BA4E742F20410D9E700BFFC10000031
S315000034E0A02526000038042433333340CDCC4C408D
S315000034F000007A4400B80B000048E80100000812FA
S31500003500005A6202002D310184B070B52DED028B98
S3150000351082B008AC84E80F00574C9DF820206E99C5
S31500003520A16108A901EB820154484969544E9DF8EE
S31500003530B531327001398142237780F09A80012BB0
S315000035407AD108AB03EB4202B2F8F4309DF8B4210D
S3150000355022B1012B05D942F2061066E0B3F5806F61
S31500003560F9D20020FFF7CAFE0420FFF7FFF8454B0B
S3150000357045495A6845486FF38A225A60DA686FF3FC
S315000035801842DA60DA68042565F30902DA605A68D7
S3150000359042F480625A60FEF7BFFDFFF755FD3378AF
S315000035A008AA02EB830342F228325B69934246D8AB
S315000035B00220FFF7DBF84FF4FA43636002F03AFCAF
S315000035C0208102F02BFC208202F03AFCC0F30D03AE
S315000035D007EE103A9FED2E8AB8EEC77A830BC7EE38
S315000035E0086A07EE903AF8EEE77A77EEA67AC4ED27
S315000035F0037A02F019FCC0F30D0307EE103AB8EE99
S31500003600C77A830BC7EE086A01A807EE903AF8EE70
S31500003610E77A002377EEA67A0193C4ED057A03F0E4
S31500003620F7F8003818BF0120404202B0BDEC028B0B
S31500003630BDE8704004B07047013B0F2B8AE7154A7E
S31500003640A3F50C53293B93420BD82846FFF78EF877
S31500003650114BDA6A114B9A4201D1104BADE7104B70
S31500003660ABE7104BDB691B07F9D4022002F03EFDE5
S31500003670EBE742F20410D8E7FC100000A025260074
S31500003680F810000000380424CDCC4C4033333340CE
S3150000369000007A44D6110C00CC0B00000048E8016B
S315000036A0002D31010000081213B50D4BADF80400D2
S315000036B04FF40062C3F88020BFF34F8FBFF36F8FC4
S315000036C003220121002003F077F9044628B90120DE
S315000036D0FFF714FE204602B010BD4FF0FF30FAE7A8
S315000036E000E100E04368064A61F349234360D2F8EB
S315000036F0403443EA4143C2F840340020704700BFDB
S3150000370000A0052484B02DE9F04F2DED048BEDB01B
S315000037107AAC84E80F009DF87D3362934FF4C4724F
S3150000372001237DA9684669939DF87C53DFF894A32D
S3150000373005F056FB94E80E006298FFF7CDF808EE08
S31500003740900AFFF7B1F8DAF8048007EE900A07EE60
S31500003750108AF8EE677AB8EE477AB7EE008A88EEF6
S31500003760079A88EE277AC7EE097A17EE900A04F0D0
S31500003770E9F907F045FA04F0D7FCC8EE897A84B275
S3150000378017EE900A04F0DEF907F03AFA04F0CCFCE2
S3150000379086B2B44208BF01347F9F08BFA4B2002D91
S315000037A065D1B8FBF4F3AAF80060AAF80240DFF886
S315000037B018A363930DF5FC7B5146AAF25E284FF0E1
S315000037C00209629AEBB29A4200F2C880B74DDFF85E
S315000037D0F4B2FEF7FFFF224631462846FFF72CFDDE
S315000037E001212846FFF77EFF6B68B14E43F0006368
S315000037F06B606B6843F040036B606B686FF341036B
S315000038006B603323C5F8E4316B6843F004036B60E7
S31500003810D5F8DC3143F00043C5F8DC310DF2DA238C
S31500003820659306F18103A6AF06F13E0A66930DF590
S31500003830F47800246791629AE3B29A4200F2D78044
S315000038409C4B6A9300229C4B6B9369A9104603F02C
S3150000385017F810B1452840F0258169996AAA002019
S3150000386003F07CF8003818BF0120404269E020468A
S3150000387004F056F9B8FBF7F780463846894604F057
S315000038803FF902460B464046494604F025FC00280F
S315000038905ED1AAF80060AAF8024022463146834863
S315000038A0FFF7CAFC01218148FFF71CFF7F4B5A68CE
S315000038B042F000625A605A686FF386125A606A1EB6
S315000038C0012A5A684FF0000194BF42F0020265F3E4
S315000038D041025A60C3F8E4115A6842F004025A6081
S315000038E0D3F8DC2161F3DF72C3F8DC219DF8E9210E
S315000038F09DF83C029DF84C125AB1D3F8084262F387
S315000039004924C3F80842D3F8084261F34814C3F8BF
S315000039100842664CD4F8083260F30403C4F808324F
S31500003920FFF72AF92A4600212046FFF79FFCBAF83E
S315000039300220DAF80430B3FBF2F3604A0020C2F842
S3150000394080326DB0BDEC048BBDE8F04F04B070471B
S31500003950BAB2AAF80060AAF802209FE79DBB639B53
S31500003960B3FBF7F39BB2012B8CBFA8F86032A8F823
S315000039706092629B012B08D04A881046FEF77CFFB6
S3150000398018B91046FEF781FF4880DFED4D7A5246A2
S3150000399000231FFA85FC32F8020F07EE100AB8EE74
S315000039A0477A0133C8EE076A9BB2634577EEA67A7B
S315000039B0F1D9F4EEC87AF1EE10FA0DDC01350231D8
S315000039C00BF1040BFDE6DBE90032B3FBF2F20B88E8
S315000039D013FB02F34B80CCE75246002332F8020F6A
S315000039E001339BB2400063451080F7D9E6E798F8AB
S315000039F0549098F86430649318F8013F63930093E9
S31500003A004A462146649B2846FFF7A3FB36F8021F69
S31500003A10328C012A08D0A30003F1105303F5872343
S31500003A20A3F83811C3F8782121462846FFF7E4FBAE
S31500003A30DDE963214846FFF79FF821462846FFF750
S31500003A4073FB659B33F8029F6593679BCDE90099ED
S31500003A50CDE902332146D7F8A4307A6E2846FFF71F
S31500003A6059FA21462846FFF74BFB002221462846F5
S31500003A70FFF7FCFBBBF80220DBF80430B3FBF2F3E4
S31500003A80328CB3FBF2F34AF8043F57F8043FA6F82A
S31500003A90D090CAF85030669B639A03F8012F013420
S31500003AA06693C8E64FF0FF304BE700BF00380424AA
S31500003AB05A1300003D3720084D3720081C1100001E
S31500003AC000000000FC1000007A13000084B02DE90D
S31500003AD0F04F2DED048BEBB078AC84E80F00214657
S31500003AE09DF87533DFF810A311F80C8B62934FF431
S31500003AF0C4720123684667939DF874638AF8008050
S31500003B0005F06EF994E80E006298B44DFEF7E4FEF7
S31500003B1008EE900AFEF7C8FED5F804B007EE900A44
S31500003B2007EE10BAF8EE677AB8EE477AB7EE008A73
S31500003B3088EE079A88EE277AC7EE097A17EE900A7A
S31500003B4004F000F807F05CF804F0EEFAC8EE897AA3
S31500003B5084B217EE900A03F0F5FF07F051F804F06F
S31500003B60E3FA87B2BC4204BF0134A4B2002E55D199
S31500003B70BBFBF4F378AA649308F1040302EB830316
S31500003B8097492F806C800DF5F8796593629AF3B2A8
S31500003B909A4200F2C180934EFEF71CFE2246394639
S31500003BA03046FFF749FB01213046FFF79BFD73685E
S31500003BB08D4C43F000637360736843F04003736099
S31500003BC073686FF3410373603323C6F8E431736897
S31500003BD043F004037360D6F8DC3143F00043C6F8C3
S31500003BE0DC310027629AFBB29A4200F207817F4BD2
S31500003BF0689300227E4B699367A9104602F040FE47
S31500003C0010B1452840F07B81679968AA002002F030
S31500003C10A5FE003818BF0120404271E078AB03EBE7
S31500003C2088082046D8F81430BBFBF3FB03F078FF76
S31500003C3080465846894603F063FF02460B464046D7
S31500003C40494604F049FA002861D12F806C8022464B
S31500003C5039466448FFF7F0FA01216248FFF742FD52
S31500003C60604B5A6842F000625A605A686FF38612D7
S31500003C705A60721E012A5A684FF0000194BF42F042
S31500003C80020266F341025A60C3F8E4115A6842F030
S31500003C9004025A60D3F8DC2161F3DF72C3F8DC2139
S31500003CA09AF8002002F5F0726A4492F8540092F8ED
S31500003CB0641052785AB1D3F8084262F34924C3F823
S31500003CC00842D3F8084261F34814C3F80842454F46
S31500003CD0D7F8083260F30403C7F80832FEF74CFF42
S31500003CE09AF80040324621463846FFF7BFFAA0341C
S31500003CF06A886B68B3FBF2F33B4A42F82430002033
S31500003D006BB0BDEC048BBDE8F04F04B070471FFAF2
S31500003D108BF22F806A809BE708F59873DFF8C8B0AE
S31500003D206393002E50D1659B649A5B68B2FBF3F3F4
S31500003D309BB2639A012B98BF02232BF81230629B29
S31500003D40012B08D04A881046FEF796FD18B9104692
S31500003D50FEF79BFD488078AB03EB4803B0B2B3F89F
S31500003D60F430012B01BF08F598723BF812309B081E
S31500003D702BF81230639B3BF8133007EE903AF8EEBF
S31500003D80677A002288EE277ADFED1A7A01321FFA67
S31500003D9082FC844577EE877AF8D9F4EEC87AF1EE9C
S31500003DA010FA0CDD002201321FFA82FC5B0084450A
S31500003DB09BB2F8D90C4808F5987220F812300136F3
S31500003DC0023109F10409E1E6D9E90032B3FBF2F266
S31500003DD00B8813FB02F34B80B1E700BFFC10000019
S31500003DE07A130000003804241C1100003D37200817
S31500003DF04D37200800000000F81000009AF8001067
S31500003E00639101F5F0736B44304693F8548093F850
S31500003E10649093F801B0CDF800B04B464246FFF7E8
S31500003E2098F9639901F5907334F8130001F59873C6
S31500003E3034F81320012A08D08B0003F1105303F540
S31500003E408723A3F83801C3F878213046FFF7D4F961
S31500003E505A4649464046FEF78FFE9AF8008030469D
S31500003E604146FFF761F978AB03EB480378AAB3F84C
S31500003E70F43002EB88000122CDE90222CDE90033BD
S31500003E804146D0F85431D0F814213046FFF742F8B5
S31500003E909AF8008030464146FFF732F94146002243
S31500003EA03046FFF7E3F908F1A00269886B68B3FBB7
S31500003EB0F1F308F59871013734F81110B3FBF1F3FB
S31500003EC044F8223078AA02EB480208F5C473B2F827
S31500003ED0F42024F8132078AA02EB880208F1B40330
S31500003EE0D2F8B42044F8232008F5F07204EB080356
S31500003EF00DEB020898F8012083F8C02272E64FF015
S31500003F00FF30FDE6D0F8E03143F00103C0F8E031C0
S31500003F10002070472DE9F341374B9A6A0192019AC6
S31500003F2016020DD5426A1502C2F3C05008D45A6A69
S31500003F3042F400025A62314B9B690421984718E00B
S31500003F40019BDC0709D52C4A136A43F0010313626F
S31500003F502A4B05219B690020F0E7019C14F0807430
S31500003F600BD02548012100F095F8254B02201B684F
S31500003F709847002002B0BDE8F0811F4B5A685006F2
S31500003F8003D4D3F8DC31002B24DA1E4D1A4E1B4F16
S31500003F90019BE21DD340D90717D521463046FFF7CE
S31500003FA091F92B785FFA84F8B3FA83F25209414605
S31500003FB03046FFF719F8BB6913B100214046984710
S31500003FC02B78B3FA83F35B092B700134102C05F1BF
S31500003FD00105DDD1084B5A689207CAD4D3F8DC1123
S31500003FE0C90FC6D15A6842F004025A600198034BC1
S31500003FF0C0B29B69A2E700BF00380424FC10000091
S3150000400050140000DC1000000148FFF783BF00BF1A
S3150000401000380424030548BF20F40060174B58BF3E
S3150000402040F40060D1B11A8A93ED057A821A07EE40
S31500004030902AF8EEE77A67EE877AFDEEE77A17EED2
S31500004040903A18B2B0F5805F11DA002812DDB0F5AB
S31500004050006F10DBA0F5006000B270471A8993ED7F
S31500004060037A821A07EE902AF8EEE77AE3E740F63B
S31500004070FF70EFE7002000F50060EDE7FC100000A0
S31500004080406921B11146C0F30B00FFF7C3BFC0F36F
S315000040900B007047436A01291DBF43F002034362C8
S315000040A0436A43F0807318BF43F004034362002061
S315000040B070472DE9F04F92F806C092F802A05378A7
S315000040C0D5781679577992F807E092F8088092F831
S315000040D0099092F80AB0D47A127802B35B0643EAE2
S315000040E04B7343EA8A5343EA495343EA085343EA84
S315000040F04E4343EA0C4343EA47330901026843EA65
S31500004100C62301F1105143EA852301F5872142F0C8
S31500004110004243EA44230260CB63BDE8F08F0268A5
S315000041206CF3C712026002686AF34F3202600268DB
S3150000413063F313420260036865F341030360036897
S3150000414066F383030360036867F30613036003687B
S315000041506EF30A230360036868F3CB2303600368E6
S3150000416069F30C33036003686BF31453036003684D
S3150000417064F300030360D0E710B4034C2468646C56
S31500004180A4465DF8044B604700013000024B1B68F3
S31500004190D3F8B830184700BF00013000024B1B6847
S315000041A0D3F8C030184700BF00013000024B1B682F
S315000041B0D3F8C830184700BF00013000024B1B6817
S315000041C0D3F8E830184700BF00013000014BDB6828
S315000041D05B69184700013000F0B5436885B00024DC
S315000041E0B3F1884F01940546029403940BD0774AA5
S315000041F0934208D0764A934200F0D180754C181B42
S315000042004442444164009A680192019A02F006020F
S31500004210062A4FEA84742CD15B690293029B9907A4
S3150000422010D56A6913686BB1012151712020984736
S315000042306B6993F82820032A04D193F826300BB132
S3150000424044F01004029B5A0707D56A69136823B124
S31500004250012111724FF400709847029B1B0740F131
S31500004260A0806A69136823B10121D1714FF480706F
S315000042709847019B9E071DD56B691E6910201A6A17
S315000042806968964209D09F690138BF5C0F6002F1E8
S3150000429001021A62F3D196420CD14A6822F0020258
S315000042A04A60002283F826201B681BB144F00104F3
S315000042B020469847019B580738D56B691A68002A2B
S315000042C034D06A685169C90725D511685A69DB690E
S315000042D0D1546B69DA69D96801328A42DA611AD136
S315000042E069684A6822F001024A6093F82820023A77
S315000042F00021012A197164D893F8272083F8271022
S31500004300022A5ED0032A59D0012A01D144F00104C1
S315000043101B68204698476B691A683AB1D969DB6809
S31500004320994203D044F0400420469047019B1A0767
S315000043304AD16B689B6903936B78DB0608D5039BB0
S31500004340DF0705D56B6944F480641B6820469847EF
S315000043506B785E0608D5039B980705D56B6944F410
S3150000436000641B6820469847AB78D90708D5039B9D
S315000043705A0705D56B6944F400541B6820469847D4
S3150000438095F90130002B1FDA039B1B071CD56B69BF
S315000043901B6844F4805005B0BDE8F040184701247E
S315000043A031E7029BDF067FF564AF6A691368002B6D
S315000043B03FF45FAF01219171802059E744F0040476
S315000043C0A6E744F00204A3E705B0F0BD00010044EF
S315000043D0000002450018042430B504460AB3B0F5BF
S315000043E0E10F1ED853688025DD608900B1FBF0F12E
S315000043F0D3F8C0006FF30500C3F8C00000201860B2
S315000044005860D860DD60C1F387151D60C1F387353C
S3150000441001F03F015D60C3F8C010D8605369DC62EB
S3150000442030BD40F20160FBE72DE9F7434E69DDF848
S31500004430289096F8295015F001050C46174698461F
S315000044406ED1C6E90005357286F8265086F82450E6
S315000044504B68B3F1884F02D0354A934212D1354B9F
S3150000446010229A60344BA26BDB69019294F83420D7
S315000044700092D3F8A45094F83C20002301214FF079
S315000044808C40A84762682D4B9A4215D103F15F43D1
S3150000449003F5213310229A60274BA26BDB69019248
S315000044A094F834200092D3F8A45094F83C200123C9
S315000044B019464FF08C40A8476268214B9A4210D1AA
S315000044C003F5D8434FF400125A641B4B228F1B6A24
S315000044D00092DD6994F83C2094F8353019480121A2
S315000044E0A847E3680BB92369B3B16568B5F1884F8E
S315000044F008D00F4B9D4205D0104B9D4202D0104B69
S315000045009D4211D10C4BDB684A461D680B9B414608
S315000045103846A847C9F800006369012283F82920B4
S31500004520002003B0BDE8F0834FF0FF30F9E700BF8D
S31500004530000100440084042400013000000002450C
S31500004540001804240014042438B54368B3F1884FD6
S3150000455004460D4602D01F4A934207D11E4BDB6923
S315000045600021D3F8E8304FF08C40984762681B4B27
S315000045709A4207D1184BDB690121D3F8E8304FF096
S315000045808C4098476268164B9A4205D1124B1548E3
S315000045901B6A0821DB6B9847E3680BB923698BB16B
S315000045A06368B3F1884F08D00A4A934205D00B4A94
S315000045B0934202D00A4A934209D1074BDB68284648
S315000045C05B6898476369002083F8290038BD4FF07F
S315000045D0FF30FBE700010044000130000000024507
S315000045E0001804240014042470B50C4615461E4613
S315000045F020B1022872D06FF0030070BD91F9080057
S3150000460000280CDB4309474900F01F002033012234
S31500004610824041F82320BFF34F8FBFF36F8FE068CE
S3150000462062696368B0B192F826209AB1B3F1884FF7
S315000046300BD03D4A934208D03C4A934205D03C4AAF
S31500004640934202D04FF0FF30D7E700793246294631
S31500004650FFF7BCFDD4E90402636890B1127982B118
S31500004660B3F1884F08D0304A934205D02F4A93427F
S3150000467002D02F4A9342E5D1007932462946FFF708
S31500004680A5FD63682B4AB3F1884F05D026498B42B6
S3150000469002D026498B421DD11023D36094F90830ED
S315000046A0002B09DB5A09012103F01F03994002F18F
S315000046B060031C4A42F82310636900225A601A728A
S315000046C083F8262093F8292022F0020283F8292075
S315000046D0002092E74FF400139364DFE74A6992F8EB
S315000046E02930D907AED513F00203F1D161684B60CA
S315000046F05360137282F826304FF44073138594F991
S315000047000830002BE4DB03F01F015B099B0003F17B
S31500004710604303F5614301228A40C3F880211A6091
S31500004720D6E700BF00E100E00001004400000245BA
S3150000473000180424008404242DE9F04F8FB00DF1F5
S315000047401C0A06460D46904600211C225046DDF8FE
S3150000475064901F4604F091FA002E00F08D80002D23
S3150000476000F08A80D8F8142092F82930580704D42B
S315000047704FF0FF300FB0BDE8F08F92F82630002BD7
S315000047807DD1012482F82640D8F80CE013629661A8
S31500004790D8F804301561BEF1000F59D0B3F1884F37
S315000047A0099450D0374A93424DD0374A93424CD061
S315000047B0364A9342DCD122460324CDE90C4201213C
S315000047C00B91DEF80000DEF808C007919EF8041091
S315000047D0BEF800E0CEF3091E6EF30D1000F0070BD5
S315000047E0BBF1020F01BFBA6894686BF302049460D0
S315000047F0274C0EF101029542E26838BF05F1FF3EF3
S31500004800D2F808B0189ACDF8149038BFCEF3090E36
S315000048106EF30D10CDE903C2CDE9010A00953246CB
S315000048203846D8470130A3D0D8F80C00E3680079A1
S31500004830DB6839464A469847E36849461B69384665
S315000048409847002096E71922B7E71B220224B4E70F
S31500004850596989060ED45A6842F002025A60F0E796
S315000048604C1C1462715C19600138F4D0116AA942BB
S31500004870F6D1F0E71020F9E76FF004007AE76FF061
S31500004880010077E7000100440000024500180424F7
S31500004890000130002DE9F04F8FB0984607AB8146F6
S315000048A00F461846164600211C22DDF864A004F0C7
S315000048B0E4F90346B9F1000F7BD0002F79D0726975
S315000048C092F82910490704D44FF0FF300FB0BDE825
S315000048D0F08F117901296FD00025012454601572DB
S315000048E03069D760C2F81490D561726800285BD031
S315000048F0B2F1884FCDE9085451D031498A424ED0A1
S3150000490030498A424DD030498A42DDD10324B0F87D
S3150000491000B0D0F800C0D0F808E0CBF3091BCDE911
S315000049200C456BF30D1C01210B9107910CF007054B
S315000049300021022D0A91017901BFD8F80800846888
S3150000494065F302048460214C0BF101008742E068A4
S3150000495038BF07F1FF3B85681898CDF814A038BF1B
S31500004960CBF3090B6BF30D1CCDE903E0CDE901C3D5
S3150000497000974B464046A8470130A5D03069E3680A
S315000049800079DB6852464146984796F8403023B98D
S31500004990E36851461B6940469847002096E718256C
S315000049A0B5E71A250224B2E7536843F001035360C2
S315000049B0F3E76FF0040089E76FF0010086E700BFB8
S315000049C000010044000002450018042400013000E4
S315000049D02DE9F3470746DDE90AA8DDF830900846D9
S315000049E016461D461FB311B30AB35B6993F8292017
S315000049F0520723D595F84040F4B12A7812F0060FF5
S31500004A001CD0032283F827203146CDE9008953467E
S31500004A102A46FFF73FFF60B953462A4631463846D5
S31500004A20CDE90A8902B0BDE8F047FFF785BE6FF011
S31500004A30040002B0BDE8F0872046FAE74FF0FF30E9
S31500004A40F7E74369186A70474369D86970470000F9
S31500004A502DE9F0471C465B69924693F8292080466B
S31500004A609007DDE90867894640F148845FFA88F5D2
S31500004A70A5F11501052900F26481DFE811F00600B1
S31500004A805A00C200DB00FB002901B9F1000F4BD030
S31500004A906368B3F1884F05D0874A934202D0874AAC
S31500004AA0934228D1E36958783F280CD94038C0B2E0
S31500004AB0FFF784FBE36982485A78403A0623D2B26C
S31500004AC00021FFF759FBE369D87808B1FFF766FBC9
S31500004AD0E3695878A0F11903052B01D8FFF756FBB7
S31500004AE0E3695878FFF762FBE16976488B784A7884
S31500004AF00978FFF741FB6268734B9A420AD1E36972
S31500004B005878FFF75BFBE1696D488B784A7809783E
S31500004B10FFF732FB626992F8293043F0080382F806
S31500004B2029300020BDE8F08722F0080283F829200A
S31500004B30F7E7B9F1000F61D06368B3F1884F05D08C
S31500004B405D4A934202D05D4A93423AD1236A58782D
S31500004B503F2816D95D4B1B6840380121D3F8F03049
S31500004B60C0B29847236A58784038C0B2FFF726FB90
S31500004B70236A53485A78403A0623D2B20021FFF7F7
S31500004B80FBFA236AD87808B1FFF708FB236A58783E
S31500004B90A0F11903052B01D8FFF7F8FA4B4B226A4F
S31500004BA01B685078D3F8D43001219847236A587887
S31500004BB0FFF7FCFA216A43488B784A780978FFF7B1
S31500004BC0DBFA6268404B9A4212D1404B226A1B685C
S31500004BD05078D3F8F03001219847236A5878FFF7C8
S31500004BE0EDFA216A36488B784A780978FFF7C4FAD5
S31500004BF0626992F8293043F0100390E722F0100220
S31500004C0094E7B9F1000F0DD093F82620002A40F062
S31500004C1078836168CA6842F04002CA60012283F85C
S31500004C2026207EE76168CA6822F04002CA6083F8DF
S31500004C30269076E76068E568426822F002024260E4
S31500004C40052282609DB193F8263083B1B0F1884F7A
S31500004C5008D0194B984205D0184B984202D01A4BEF
S31500004C60984204D128793A463146FFF7AFFA63698C
S31500004C700022D4E76068426822F00102426022699D
S31500004C80032181609AB11B798BB1B0F1884F08D0AE
S31500004C90094B984205D0094B984202D00A4B9842DC
S31500004CA005D1E3683A4618793146FFF78FFA63690A
S31500004CB000221A7135E700BF0001004400000245DA
S31500004CC000C004240000134600180424000130002C
S31500004CD06268E068516821F00301516098B193F869
S31500004CE0263083B1B2F1884F08D0784B9A4205D06E
S31500004CF0774B9A4202D0774B9A4204D100793A46D2
S31500004D003146FFF763FA2069A0B163691B798BB15D
S31500004D106368B3F1884F08D06C4A934205D06C4A59
S31500004D20934202D06B4A934204D100793A46314607
S31500004D30FFF74CFA636807229A60636900221A71CA
S31500004D406DE76A1E132A00F2DF82DFE812F05F00C9
S31500004D5014007100AD00C9003101DD02DD02DD0283
S31500004D60DD02DD02DD02DD02DD02DD0237011700B4
S31500004D7031013A01310194F8403013B96FF0060061
S31500004D80D0E66268514B9A42F8D1237899073DD50F
S31500004D90A36958783F280CD94038C0B2FFF70EFAFD
S31500004DA0A3694D485A78403A0623D2B20021FFF74C
S31500004DB0E3F9A369D87808B1FFF7F0F9A369587841
S31500004DC0A0F11903052B01D8FFF7E0F9A36958787C
S31500004DD0FFF7ECF9A16941488B784A780978FFF723
S31500004DE0CBF963689A6D42F001029A659A6D42F0BA
S31500004DF002029A6594F841109A6D002951D042F04A
S31500004E0010029A659A6D42F020029A6508F4E066EF
S31500004E10B6F5A06F00F0EE8000F2D780002E00F00D
S31500004E20EC80B6F5807F00F0EA806FF0080079E646
S31500004E306268264B9A42A1D123785A079ED5A36968
S31500004E4058783F280CD94038C0B2FFF7B7F9A369A4
S31500004E5021485A78403A0623D2B20021FFF78CF94E
S31500004E60A369D87808B1FFF799F9A3695878A0F132
S31500004E701903052B01D8FFF789F9A3695878FFF7BD
S31500004E8095F9A16915488B784A780978FFF774F97E
S31500004E9063689A6D42F001029A659A6D6FF341025A
S31500004EA0A7E761F30412ACE721780B07AED5636878
S31500004EB01A6C42F001021A641A6C8F074CBF6FF32A
S31500004EC0410242F002021A64A0E700BF000100445A
S31500004ED0000002450018042400C004240000134604
S31500004EE06368B3F1884F03D09C4A93427FF446AF80
S31500004EF02378DE067FF542AFE36A58783F280CD95F
S31500004F004038C0B2FFF75AF9E36A95485A78403AF2
S31500004F100623D2B20021FFF72FF9E36AD87808B149
S31500004F20FFF73CF9E36A5878A0F11903052B01D87D
S31500004F30FFF72CF9E36A5878FFF738F9E16A8948F0
S31500004F408B784A780978FFF717F9236B58783F284A
S31500004F500CD94038C0B2FFF731F9236B80485A7834
S31500004F60403A0623D2B20021FFF706F9236BD87820
S31500004F7008B1FFF713F9236B5878A0F11903052B35
S31500004F8001D8FFF703F9236B5878FFF70FF9216B68
S31500004F9074488B784A780978FFF7EEF82378D806B4
S31500004FA07FF5ECAE6268136943F0400313612DE7A9
S31500004FB0257815F020053FF429AFDFE683F8249025
S31500004FC0AFE5257815F04005F5E7B6F5C06F18D0C2
S31500004FD0B6F5E06F7FF429AF0026022708F44053A8
S31500004FE0B3F5805F10D0B3F5005F1BD073B16FF0DF
S31500004FF0090097E500260027F0E70327EEE70926D4
S31500005000F9E700260127E9E747F0180708F44043C7
S31500005010B3F5804F09D0B3F5004F06D03BB16FF022
S315000050200A007FE547F00807F0E747F0040708F4B1
S315000050304032B2F5003F636800F0E88009D8002AE4
S3150000504000F03181B2F5803F00F092806FF00B00E6
S3150000505068E5B2F5403FF9D1627802F01802182AE5
S3150000506074D1B3F1884F05D03C4A934202D03E4AF0
S31500005070934251D1636A58783F280CD94038C0B260
S31500005080FFF79CF8636A36485A78403A0623D2B24C
S315000050900021FFF771F8636AD87808B1FFF77EF848
S315000050A0636A5878A0F11903052B01D8FFF76EF84B
S315000050B0636A5878FFF77AF8616A2A488B784A78E3
S315000050C00978FFF759F8A36A58783F280CD9403871
S315000050D0C0B2FFF773F8A36A21485A78403A06230C
S315000050E0D2B20021FFF748F8A36AD87808B1FFF7D3
S315000050F055F8A36A5878A0F11903052B01D8FFF7D4
S3150000510045F8A36A5878FFF751F8A16A15488B78D5
S315000051104A780978FFF730F86268144B9A4215D13D
S31500005120A36A5878FFF74AF8A16A0D484A788B783F
S315000051300978FFF721F8636A5878FFF73FF8616A44
S3150000514007488B784A780978FFF716F8238803F41E
S31500005150C073B3F5C07F54D078E700BF00010044A8
S3150000516000C0042400001346000002450018042471
S315000051706278110740D5B3F1884F05D0674A93424C
S3150000518002D0674A934228D1A36A58783F280CD99F
S315000051904038C0B2FFF712F8A36A62485A78403A1C
S315000051A00623D2B20021FEF7E7FFA36AD87808B13A
S315000051B0FEF7F4FFA36A5878A0F11903052B01D86E
S315000051C0FEF7E4FFA36A5878FEF7F0FFA16A564897
S315000051D08B784A780978FEF7CFFF6268534B9A427C
S315000051E00AD1A36A5878FEF7E9FFA16A4D488B7881
S315000051F04A780978FEF7C0FF94F90030002BBFF615
S3150000520025AF6268136943F022034BE06278D20649
S3150000521040D5B3F1884F05D0404A934202D0404A68
S31500005220934228D1636A58783F280CD94038C0B2D7
S31500005230FEF7C4FF636A3B485A78403A0623D2B267
S315000052400021FEF799FF636AD87808B1FEF7A6FF3A
S31500005250636A5878A0F11903052B01D8FEF796FF6B
S31500005260636A5878FEF7A2FF616A2F488B784A78FE
S315000052700978FEF781FF62682C4B9A420AD1636A6D
S315000052805878FEF79BFF616A27488B784A78097839
S31500005290FEF772FF6378DB077FF5D8AE62681369A5
S315000052A043F020031361AB1E012B05D818F4802FA1
S315000052B02DD118F4002F2DD1D4F80480D8F8103051
S315000052C023F01003C8F81030224651464846FFF72F
S315000052D083F86369012183F82850C8F80810C8F8D4
S315000052E00C70C8F8CC60D8F8AC2061F3C402C8F8DA
S315000052F0AC2093F8292042F0040217E44FF0FF3067
S3150000530010E46FF001000DE46FF003000AE46FF0A3
S315000053100C0007E46FF00D0004E400BF0001004438
S315000053200000024500C004240000134600180424AF
S3150000533042694368107A5969137981F080015B00EC
S31500005340C1F3C01103F002030B435179C90001F008
S3150000535008010B439179090101F010010B43D17942
S31500005360490101F0200180010B4300F04000184381
S31500005370704700004B6993F829305B0733D54B68BB
S31500005380002B33D040B94A7812072FD51A6922F07C
S3150000539002021A6100207047012806D14A781007D8
S315000053A024D51A6942F00202F3E702280CD1B3F1C0
S315000053B0884F02D00F4A934218D14A78910615D5E4
S315000053C01A6922F00102E4E70328E3D1B3F1884F1A
S315000053D002D0084A934209D14A78920606D51A693C
S315000053E042F00102D5E74FF0FF3070476FF003003F
S315000053F0704700BF00010044426830B5044612B34E
S31500005400436993F8293013F004001DD0657892693A
S31500005410A07815F0100318BFC2F3001315F0400171
S3150000542018BFC2F3401110F0010018BFC2F380107C
S315000054302C060DD5C2F3C01243EA410343EA8203A8
S3150000544043EAC00030BD1046024601460346F3E774
S315000054500022F1E741F20273984221D011DC41F2B9
S31500005460045398421CD005DCF8B101280CBF21205A
S315000054700120704741F2017398420CBF11200120B0
S31500005480704742F2041398420CD042F20613984237
S315000054900AD042F2031398420CBF21200120704724
S315000054A021207047282070472B207047014BDB696D
S315000054B05B6E184700013000014BDB699B6B184798
S315000054C000013000014BDB695B6A184700013000C0
S315000054D03E4B994270B50C4615460AD93C4B4FF4E3
S315000054E000125A623B4B10229A615A6C42F010022B
S315000054F05A6401283FD0022855D048BB364EF3697E
S315000055000121A4220846D3F8EC309847334B9C601F
S31500005510FFF7D8FF324B9D42324B02BF5A6822F446
S3150000552040425A604FF45942A3F86020F3692A4674
S315000055309B6821464FF08C40984750B92A4B9C42B5
S315000055400BD82A4B4FF40032DA664FF48022DA6623
S315000055500020BDE87040FFF77DBF254B9C42F7D980
S31500005560224BDA6E9203F3D44FF480229A664FF4FC
S3150000557000329A66ECE7194B5C61FFF797FF194B0F
S315000055804FF45942A3F8A020134BDB692A469B6DC2
S3150000559021464FF08C4098470028DAD1592CD0D9B3
S315000055A05A2CDDD1D4E70D4B9C61FFF785FF0D4BDF
S315000055B04FF45942A3F8E020074BDB692A46DB6B20
S315000055C021464FF08C409847C3E700BFFF0D2707E1
S315000055D0000028200080004600013000CC0B0000AF
S315000055E0005A6202008018467F4A5D050084042442
S315000055F0BF8C6C05052870B505460E4637D81D4B81
S3150000560099420DD81C4A536A23F4001353621B4B6C
S315000056109A6922F010029A615A6C22F010025A64BA
S31500005620002211464FF08C4000F01AFC0446FFF7AA
S3150000563011FF0246E0B9DDB1042D13D1104A3146FF
S315000056400120FFF745FF04B22046FFF703FF02469D
S3150000565070B929464FF08C4000F002FCBDE870405E
S31500005660FFF7F8BE022DEFD1054A3146E9E72122C0
S31500005670104670BDFF0D2707000028200080004659
S31500005680005A620208B503214FF08C4000F0C8FCB6
S31500005690032000F02BFD03490220FFF7ABFF00209B
S315000056A008BD00BF0095BA0A044B4FF48072DA6356
S315000056B0034B4FF400629A60704700BF00810424D8
S315000056C00000081208B5284B4FF400621A60274AFA
S315000056D0D2F88C3743F4004343F08003C2F88C378A
S315000056E0D2F88C375B06FBD5D2F88C27204BDFED42
S315000056F0216A9FED216A214902F03F021A601A6869
S31500005700262A84BF26221A601D4A9268EAB11D48DD
S31500005710C2F315020260D3ED007A90ED007AF8EE3E
S31500005720677AB8EE477A77EEA67A37EE267A67EE8C
S31500005730867AC7EE876AC1ED006AFFF7B5FF0A4BA6
S315000057404FF400625A60086808BDD3ED007AF8EE9F
S31500005750677A77EEA67ADFED0C6A67EE867A87EED1
S31500005760A67A81ED007AE8E70000081200A0052479
S315000057705C14000089410B4233335340541400003B
S31500005780EC06000058140000C4A08342F0B5A24CF9
S31500005790A24BA2680578A24E02EA0301027802F043
S315000057A001020A439F49A2608A6802EA030442781A
S315000057B002F00102920042EA951222438A600A69C7
S315000057C0457802EA03040278C2F344022243964C67
S315000057D00A61A26802EA0301827802F0030252011A
S315000057E042EAD5020A439149A2608A6884781A403F
S315000057F042EA94028E4C8A60A268C1781A4001F08F
S315000058001F011143A160B268047902EA030504F09E
S315000058103F04C278640044EAD214C2F3411242EA59
S3150000582084022A43B260834E4579B26802EA0304D1
S31500005830027905F07F05920942EA850222437E4DF0
S31500005840B260AA6802EA0304C27902F00F02224398
S315000058507A4CAA60A268C579067A1A4042EA1512FD
S31500005860774DA260AA6802EA0304427C02F07F0236
S315000058702243AA60734DAA6802EA0304027A02F080
S315000058807F022243AA60704DAA6802EA0304427AA4
S3150000589002F01F02520042EAD61222436B4EAA6061
S315000058A0B268857A02EA0304C27A520042EAD51245
S315000058B0057B05F0010542EA45222243644DB260AC
S315000058C0AA68467A02EA0304827A02F07F02D200CC
S315000058D042EA56122243AA605E4D5F4EAA6802EA69
S315000058E00304B0F80D202243AA60B268457D02EA9F
S315000058F00304027D05F00F0542EA05222243574DB7
S31500005900B260AA68564E02EA0304427DC2F302124E
S315000059102243AA60B268C57D477902EA0304827D04
S3150000592005F00F0542EA05222243B2604D4EC57DC1
S31500005930B26802EA0304027E120142EA1512457EAB
S3150000594005F00F0542EA05322243474DB260AA68C8
S31500005950467E02EA0304827E120142EA16122243BE
S31500005960AA60424DAA6802EA0304B0F81B2022434B
S31500005970AA603F4DAA6802EA03048279560802F03B
S315000059800102520042EAD71242EA86022243847C8E
S31500005990AA60457C90F8246004F00F02520052EA97
S315000059A0D512344D1EBFA96819401143A960324D66
S315000059B01A4AAB6803EA0201437F03F00F030B4365
S315000059C0AB602E4DAB6803EA0201837FC3F383030A
S315000059D00B43AB602A4DAB6803EA020190F8253011
S315000059E003F007035B0043EAD6130B43AB60254D78
S315000059F0AB6803EA0201C37C03F003035B0043EADE
S31500005A00D4130B432049AB608B681A40837CC3F3E5
S31500005A10021313438B60F0BDCC0700000000C0FFEB
S31500005A2054070000B8070000A00700008807000020
S31500005A307C0700003807000010070000040700007C
S31500005A4094070000F8060000EC060000E0060000DF
S31500005A50E4070000C8060000D40600004406000063
S31500005A60BC060000B0060000A40600009806000070
S31500005A701C070000700700008C060000800600006E
S31500005A80740600005C06000068060000FBF7E8BC30
S31500005A90F0B5194D194C2B88E5B004F1100100261C
S31500005AA000274FF4C2726846ADF88431CDE96267CB
S31500005AB003F096F994E80F0000F00EFD62A800F0DE
S31500005AC0C9FD2B78687843EA002000F073FEDDE913
S31500005AD0624532463B462046294602F01BFB48B14A
S31500005AE0074B00222046294602F000FB10B1002099
S31500005AF0FBF70AFD65B0F0BDB80200002401000006
S31500005B0000004E4010B50A4A0A4BD2F80815D3F8E1
S31500005B100240E405FBD440EA5110C2F80805D3F868
S31500005B200220D205FBD4024BD3F8083510BD00BFC6
S31500005B3000A005240000052410F4405F0F4B0BD095
S31500005B40D3F8042522F48012C3F80425D3F80425DB
S31500005B5022F40012C3F80425D3F80825084BD3F81D
S31500005B600210C905FBD4C04300EA5210034AC2F82A
S31500005B700805D3F80220D205FBD4704700A00524FF
S31500005B80000005240D4A0E49D2F81035013823F0DD
S31500005B90030310B5C0B2C2F81035D1F80230DC05E7
S31500005BA0FBD4D2F81045012383402343C2F81035B5
S31500005BB0D1F80230DB05FBD410BD00BF00A00524E0
S31500005BC00000052430B58BB00023019302930393A4
S31500005BD00493059306930793089309938DF802306F
S31500005BE08DF8033010B901200BB030BD019A50F882
S31500005BF022200292029A002AF5D001930121019CEB
S31500005C00029A944201D30020EEE7019A00EBC20209
S31500005C1052680392019A013250F832200492049A93
S31500005C20C2F384528DF80320049AD20E8DF8022016
S31500005C309DF802209DF80340121B01320592059A39
S31500005C40162AD0D8039A126807929DF80320D2B27A
S31500005C50069208930993069C079A01FA04F422EA2D
S31500005C6004020792099A089C01FA02F2224308925A
S31500005C70069A01320692099A013209929DF803208A
S31500005C80059D069C2A44A242E5D8089C049A224017
S31500005C900492049A9DF80350079CAA40224304925A
S31500005CA0039A049C1460019A01320192A7E730B569
S31500005CB08BB00023019302930393049305930693F9
S31500005CC00793089309938DF802308DF80330039AF1
S31500005CD010B901200BB030BD019A50F82220029273
S31500005CE0029A002AF5D001930121019C029A94425E
S31500005CF001D30698EEE7019A013250F83220069257
S31500005D00069AC2F384528DF80320069AD20E8DF8B5
S31500005D1002209DF802209DF80340121B01320492D6
S31500005D20049A162AD5D89DF80320D2B20592089374
S31500005D300993099A089C01FA02F222430892059AED
S31500005D4001320592099A013209929DF80320049DB9
S31500005D50059C2A44A242ECD8089C069A2240069248
S31500005D60069A9DF80350079CAA4022430692019A80
S31500005D7001320192B9E70000064B074A996C0748C1
S31500005D80DA620229D96C08BF1A60022908BF5A6074
S31500005D90FFF718BFCC0B00000048E801A007000081
S31500005DA0024B034A03485A63FFF70CBFCC0B0000B3
S31500005DB00048E80188070000064B074A996C074827
S31500005DC01A630529D96C08BF1A60052908BF5A60ED
S31500005DD0FFF7F8BECC0B0000002D3101F8060000DD
S31500005DE0034B04484FF4FA421A62FFF7EBBE00BFBA
S31500005DF0CC0B00007C070000034B04484FF4FA422A
S31500005E005A62FFF7DFBE00BFCC0B00001C07000084
S31500005E100148FFF74CBF00BFD40600000148FFF75A
S31500005E2046BF00BFBC0600000148FFF740BF00BFE9
S31500005E30B00600000148FFF73ABF00BFA406000005
S31500005E400148FFF734BF00BF980600000148FFF77E
S31500005E502EBF00BFC806000001B10847704700000A
S31500005E6010B5002852D03E2A50D82B4BDB689C0731
S31500005E7048BF5208052949D8DFE801F003481B2628
S31500005E80313C836A6FF303038362244B1B68244906
S31500005E900B60846DE405FCD5846A62F309148462A0
S31500005EA012B1B3FBF2F30B601C4B0A68DA600020F8
S31500005EB010BD836D9B062BD5836A022161F3030314
S31500005EC08362164B9B68E2E7836D5C0620D5836A86
S31500005ED0032161F303038362104B1B69D7E7836DCC
S31500005EE0190715D5836A042161F3030383620B4BFB
S31500005EF05B69CCE70B4B5B6A5B0709D5836A0521B7
S31500005F0061F303038362054B9B6BC0E70120CFE778
S31500005F1041F20170CCE700BF00860424CC0B0000E0
S31500005F201C0C00000014042407B50B461146062875
S31500005F301ED8DFE800F00421333B47586400364A98
S31500005F40106A40025EBF106A40F48000106213B906
S31500005F500A20FFF781FF314BD3F81C2122F0801273
S31500005F60C3F81C21D3F81C2142F00122C3F81C21DE
S31500005F70002003B05DF804FB274A106A800207D4AC
S31500005F80106A40F480101062106A40F4001010622B
S31500005F90002BEDD10A20FFF75FFFE9E71E4A106AE2
S31500005FA0C002F5D4106A40F48010F0E71A4A106A6D
S31500005FB000035EBF106A40F400201062002BD7D1A8
S31500005FC00220E8E7144B1A6A5203D1D41A6A42F443
S31500005FD080221A624FF4FA700191FFF73DFF019992
S31500005FE040F2DC50D7E70C4A106A80035EBF106AA5
S31500005FF040F400301062002BBAD1FA20CBE7064AF3
S31500006000106AC0035EBF106A40F480301062002B35
S31500006010AED19620BFE700BF00810424008004248F
S3150000602010B50446002858D00139052955D8DFE8AF
S3150000603001F003131D273445294BD969012262F368
S315000060400201D961274B9A645B6C264A1360A36DE3
S31500006050002BFCDA002010BD214BD969022262F325
S315000060600201D9611F4B9A64DB6AEEE71C4BD969C2
S31500006070032262F30201D9611A4B9A64DB6BE4E7EF
S31500006080194B40229A83164BD969042262F3020106
S31500006090D961144B9A641B6CD7E7114B1A6AD2026A
S315000060A05EBF1A6A42F480121A62D969052262F347
S315000060B00201D9610B4B9A641B6BC6E701210022D2
S315000060C00846FFF731FF064BD969062262F3020143
S315000060D0D961044B9A645B6BB7E70120BBE700BF4D
S315000060E000810424CC0B000000801341013808B560
S315000060F0052850D8DFE800F003101A243140274B5A
S31500006100D969012262F31241D961254BDA645B6CCD
S31500006110234A0020536008BD204BD969022262F34E
S315000061201241D9611E4BDA64DB6AF1E71B4BD96970
S31500006130032262F31241D961194BDA64DB6BE7E79C
S31500006140184B40229A83154BD969042262F31241F7
S31500006150D961134BDA641B6CDAE7002201210220B5
S31500006160FFF7E2FE0D4BD969052262F31241D961B0
S315000061700B4BDA641B6BCBE7012100220846FFF7C5
S31500006180D3FE064BD969062262F31241D961044B4C
S31500006190DA645B6BBCE70120BDE700BF0081042425
S315000061A0CC0B00000080134141F20273984221D0CB
S315000061B011DC41F2045398421CD005DCF8B10128E9
S315000061C00CBF21200120704741F2017398420CBF99
S315000061D011200120704742F2041398420CD042F27B
S315000061E0061398420AD042F2031398420CBF2120AC
S315000061F00120704721207047282070472B207047C8
S315000062000378012B06D84378013B0F2B94BF00205F
S315000062102120704721207047174B1B78012B0CBF9C
S3150000622003780023C2185278012A22D800EB830093
S315000062304369D3B1114A934219D8D0F81431104AA0
S31500006240934207D9D0F854010E4B98428CBF2120B7
S3150000625000207047B3F53D3F0BD8D0F85431B3F565
S315000062603E3F34BF0020212070472D207047282054
S3150000627070472120704700BF60140000A02526004B
S31500006280FFFF0524001B062411B1042900D0704726
S31500006290014B1B68184700BF6414000084B000B5AA
S315000062A02DED028BE7B00DF5D47C8CE80F003F4B4B
S315000062B09DF83D139DEDD08A1970CFA8FFF7A0FF7A
S315000062C0002858D16AA8FFF7A7FF002853D1012953
S315000062D008BF9DF8A8019DF83C236AAB03EB40007C
S315000062E0012AB0F8F43003D1012B4BD02B2042E029
S315000062F0013B9BB240F2FE308342F7D8002A41D1DF
S3150000630001293FD92A4B62934FF4C272BDF83C3340
S31500006310ADF884316EA9684602F062FD6AAB0FCB18
S31500006320FDF71EF8FFF740FF28BB00236593FFF734
S31500006330C9F965909DED657ADFED1E7AB4EEE77AD0
S31500006340F1EE10FA02D51C48FFF73CFCDFED1B7A94
S315000063506599B4EEE78AF1EE10FA24D4DFED187AE7
S31500006360B4EEE78AF1EE10FA1DDC18EE100AFBF720
S31500006370D3FEFFF719FF67B0BDEC028B5DF804EBA7
S3150000638004B070470A4B62936EA9BDF83C33ADF872
S3150000639084314FF4C272684602F022FD6AAB0FCB1D
S315000063A0FDF7B2F8BEE72120E5E700BF6014000064
S315000063B0897220089A9919402C0900006666E63F02
S315000063C06666664084B000B5E3B00DF5C87C8CE81F
S315000063D00F00C9A8FFF714FFD0B964A8FFF71CFF88
S315000063E0B0B99DF82423BDF82433B2B99DF825230E
S315000063F0012A12D94FF4C27268A96846ADF88431F1
S3150000640002F0EEFC64AB0FCBFDF77CF9FFF7CCFE98
S3150000641063B05DF804EB04B0704768A94FF4C2722C
S315000064206846ADF8843102F0DBFC64AB0FCBFDF7B8
S315000064304DFBEBE7034620B1044A106818B9136018
S315000064407047222070470420704700BF6414000084
S3150000645008B50348FDF756FDBDE80840FFF7A4BEA2
S315000064600038042407B5ADF8040001A8FFF7C8FEFC
