S011000073693931785F6D61696E2E73333721
S31500000000010000000D900D90D07801000100000065
S3150000001000102000FDFD503400000000000000002C
S3150000002000000000000000000000000000000000CA
S315000000300000000000000000000000000D900D9080
S31500000040A55A0000002020080000008000000000E3
S31500000050000000000000000000000000000000009A
S31500000060000000000000000000000000000000008A
S31500000070000000000000000000000000000000007A
S31500000080000000000000000000000000000000006A
S31500001000787B0000BD5320087153200871532008D7
S315000010107153200871532008715320080000000006
S31500001020000000000000000000000000614D2008E4
S315000010307153200800000000F14D20087F3320087E
S3150000104071532008715320087153200871532008EA
S3150000105071532008715320087153200871532008DA
S315000010607153200871532008890500005182200819
S31500001070FD60200871532008715320087153200821
S315000010806D5E20087153200835CB2008D9CB200887
S3150000109071532008CDCA2008A9AE20087153200834
S315000010A0715320087153200871532008715320088A
S315000010B07153200871532008787B00007153200873
S315000010C0BD532008E1040000715320087153200825
S315000010D07153200871532008E5602008F16020084C
S315000010E0ED5220087153200871532008E3B8AC690B
S315000010F0615E20087153200871532008555E200850
S3150000110071532008715320089DCA2008B5CA2008CB
S31500001110DDC92008F5C920080DCA200825CA2008FF
S315000011203DCA200855CA20086DCA200885CA20086D
S3150000113071532008715320087153200871532008F9
S3150000114071532008715320087153200871532008E9
S3150000115071532008715320087153200871532008D9
S31500001160715320087153200851D92008000000004F
S315000011700000000000000000000000000000000069
S315000011800348044B834202D0034B03B11847704710
S315000011908819000088190000000000000548064B69
S315000011A01B1AD90F01EBA301491002D0034B03B15F
S315000011B018477047881900008819000000000000D1
S315000011C010B5064C237843B9FFF7DAFF044B13B189
S315000011D00448AFF300800123237010BD8819000076
S315000011E000000000F467210808B5054B1BB105494E
S315000011F00548AFF30080BDE80840FFF7CFBF00BF4A
S31500001200000000008C190000F467210882B070B558
S31500001210C4B00C4648A981E80C0005464FF4887214
S31500001220002168469DF83C6111F0A8F9009548AD8B
S315000012300FCDADF8044002AC0FC42B6823604E9965
S315000012409DF834318DF81C30324608A8ADF81E6082
S3150000125011F05EFA68460BF0F5FD44B0BDE870404B
S3150000126002B0704713B50C4607230246C9880648E4
S315000012708DF8073011F022F8E0880DF10702012100
S315000012800BF0E5FD02B010BD18552108F0B5C5B04C
S3150000129007460E46154600214FF4887268461C46DE
S315000012A011F06CF9022342F603028DF808308DF82E
S315000012B01C30214606230DF12200ADF80C20ADF8B6
S315000012C01E300097ADF804608DF820500DF00EF832
S315000012D0BDF8281109A80DF009F868460BF0B2FD13
S315000012E045B0F0BD2DE9F0438FB009AC14220021C2
S315000012F0204611F043F904224FF00208002707ABFD
S315000013008DF81A2041F60D028DF82480ADF82820BC
S315000013100193009794E80F00CDE907778DF81B70CD
S315000013200BF078FDBDF82010079842F6372201EB46
S3150000133008030131ADF8282000929BB2102289B231
S31500001340FFF7A4FFBDF820602F4B4644B6B21E80BF
S31500001350062305932D4B0493102303930BAD95E8B9
S3150000136007008DE80700079894E80C003146FFF760
S315000013704DFFBDF82010079842F638224B1D043168
S31500001380ADF8282000929BB2424689B2FFF77EFF55
S315000013900DF11A03CDE903834FF00109CDF814903E
S315000013A095E807008DE80700BDF820600798053628
S315000013B094E80C00B1B2FFF729FFBDF8201007989A
S315000013C042F63922CB1D0631ADF8282000929BB299
S315000013D0082289B2FFF75AFF0DF11B030493082375
S315000013E0CDF81490039395E807008DE80700BDF843
S315000013F020600798073694E80C00B1B2FFF706FFA5
S3150000140038460FB0BDE8F083E41A00001000000073
S315000014101F2895BF064A074A1168116888BF2038F9
S31500001420012383400B431360034B186801F0C2BAD3
S31500001430281C0000241C0000AC1900000920FFF73E
S31500001440E7BF000070B5174D2B78012B044627D057
S315000014501F2200211448154E11F090F8E279124827
S3150000146004F108010BF0BCFC2146114811F8013BC0
S3150000147033700CF0C0FF2B7893B90E490A4811F06F
S31500001480E2F830B133785BB90B49094811F0DBF863
S3150000149030B901232B70BDE870400020FFF7B8BFBC
S315000014A070BD00BFEC1B0000FF1B00001E1C0000EF
S315000014B0ED1B0000405521084755210810B40A4B82
S315000014C001461A4611F8014B02F8014BD0F80140CB
S315000014D0C3F80140898891805DF8044B828B1A819C
S315000014E00120FFF795BF00BFE21B000008B50448C6
S315000014F0942211F00DF9BDE808400520FFF788BFDA
S31500001500501A0000044B0A681A604A685A600A8931
S315000015101A810420FFF77CBF441A00000720FFF75A
S3150000152077BF000008B50448802211F0F1F8BDE845
S3150000153008400620FFF76CBFC419000038B5244CDC
S3150000154024480D46218910F0B9FEFB222946204683
S3150000155011F0DEF8204B22891B880133934207D114
S31500001560E37A012B1CD11D4A08201370FFF750FFA8
S315000015701B4B22891B88013393420CD1E37A012B42
S3150000158018D1164A1748137010F008FF00F074FBC4
S315000015900B20FFF73DFFBDE838400320FFF738BFBB
S315000015A0002BE5D10D4A13700F4A136823F480739C
S315000015B01360DDE7002BEED1084A0C48137010F0DB
S315000015C0EDFE094A136823F400631360E3E700BFE6
S315000015D0E61A000059552108E41A0000C219000055
S315000015E02C1C00007A552108281C00009055210863
S315000015F00220FFF70DBF0000044B02681A60426824
S315000016005A6002891A810120FFF702BFE21B00001F
S3150000161037B502AB03E903009DF900509DF901308F
S315000016201570E90714461CD4542B18DC10F0C2F8C8
S31500001630642390FBF3F202FB130040B260700220B9
S315000016402A0742BF9DF9043023520230EB0642BFFF
S315000016509DF9053023520230C0B203B030BD4B2095
S31500001660ECE7BDF80230A2F801300320E8E70000FD
S315000016702DE9F04F0024F5B00E2221461FA8CDE932
S315000016801744CDE91B44ADF874401E9410F076FF64
S31500001690BC4B28931B22214629A810F06FFFBA4A9B
S315000016A0BA4821460FF0A0F8002840F04082B8481A
S315000016B010F074FE1BA80FF0BEF810B91BA802F0BC
S315000016C0EDFCB4480CF0C0FD0646002840F02F8221
S315000016D0B0491EA80DF1570A0CF08DFE23AFFFF797
S315000016E001FE37238AF8003010233B60AA4BADF881
S315000016F0586019AD24AAC5E9006616AC03F1100EB0
S315000017001646186859689446ACE8030008337345D2
S315000017106246F6D101953B69009397E80F000BF0FE
S3150000172079FB014680469D4810F0C8FD9C4B324629
S3150000173003F1100C18685968164603C6083363454A
S315000017403246F7D1A988DFF8C0924EF6EC420092F5
S315000017508B1C013128689BB2102289B2FFF796FDD7
S31500001760AE880236B6B24FF0020BA9F80060CDE99A
S31500001770044B1023039325AC94E807008DE807007B
S31500001780314697E80C002868FFF740FD4FF4887251
S31500001790002130A810F0F2FE2B683093AB888DF84C
S315000017A0C8B00333ADF8C43042F60213ADF8CC30FE
S315000017B030A80A238DF8DC30ADF8DEB00BF042FB22
S315000017C0784B24AE03F1100C18685968324603C2F0
S315000017D0083363451646F7D1A9884FF6EA220092E8
S315000017E04B1D043128689BB2022289B2FFF74EFDD9
S315000017F00123AE88CDE904A30223039394E80700EE
S315000018008DE80700053697E80C002868B1B2FFF7A7
S31500001810FDFCB8F1000F64D06348414610F04EFD60
S31500001820624B634A634964480024CDE90143634B34
S315000018300093CDE90444234603940BF051FF604B1B
S315000018400C93604B0B93604B0A93604B0794CDE966
S3150000185008435F4B0494CDE905435E4B2246CDE930
S315000018600243214623462046CDE90044CDE91144F2
S31500001870CDE90F44CDE90D440BF04CFF224621463D
S31500001880012001F005F8544B1860002800F04F8144
S31500001890524B534E534834604FF0FF321A601A6869
S315000018A01A600CF0ADFC09234E498DF8A3300DF1FA
S315000018B0A5008DF8A43010F0D0FE0D2128A80BF05D
S315000018C05BFA0BF02BFADFF844A1A04600230121B6
S315000018D01F2B35D8326801FA03F0104214D10133B8
S315000018E0F6E7414810F05AFDB9F800103F480139B3
S315000018F010F0E4FCB9F800103D4810F0DFFCB9F830
S3150000190000103C48013189E7013B0A2BDED801A2D1
S3150000191052F823F065292008112A2008352A2008C4
S31500001920CD282008CD282008CD282008CD2820083D
S31500001930452A2008272B2008E72A2008732A200892
S315000019402D4A1068A3F1200201FA02F20242BDD12B
S315000019500133402BBCD1204B4FF0FF31186800F00B
S31500001960EFFFB3E733682549254823F002033360C8
S315000019700CF041FD2249234810F0A0FC4FF001086D
S31500001980A4E700BF02010600F918210864572108E0
S31500001990A7552108A41900002E572108CA55210869
S315000019A03F57210850572108E8552108BD24200833
S315000019B0F1252008F9252008452420083D24200883
S315000019C0ED242008052520081D25200825252008AA
S315000019D0652220083D252008AC190000201C0000C7
S315000019E0281C00007E562108095621082756210882
S315000019F04456210861562108241C0000E31B000000
S31500001A00B0190000875621082C1C000016000000A3
S31500001A10484B00221A70336823F4807333603368AE
S31500001A2023F0040333600BF079F904460028FAD159
S31500001A3080464BE7404810F0B1FC336823F00803BA
S31500001A40336043E7B8F1000F3FF440AF394B93F9E9
S31500001A500030012B92D1394B17AA99881868FFF7E5
S31500001A60D7FD374B014617AA18880BF0F0F9044644
S31500001A702CE7B8F1000F3FF429AF2E4B93F9003055
S31500001A80012B7FF423AF1CB12E48214610F016FC23
S31500001A9001234FF000082C482B7087F800802A4657
S31500001AA030A900F039F920B10DF1C00B2A78424572
S31500001AB005DC002C3FF462AF244821465CE79BF826
S31500001AC00010234810F0FAFB1BF8012B3A70C820CF
S31500001AD000F040FDB9F800003A4601210BF0B7F9D5
S31500001AE008F10108E2E7336823F480633360B8F154
S31500001AF0000F3FF4EBAE9AF80020022A4FF00003E5
S31500001B0007D1144811460BF053F98AF800800446B1
S31500001B10DCE61048424641460BF04AF902230446E9
S31500001B208AF80030D2E6336823F4007388E775B08C
S31500001B30BDE8F08FC2190000AE5621081000000063
S31500001B40E41A0000D0562108AA19000009572108F6
S31500001B50F1562108E31B000030B5164D0FCD8DB0B0
S31500001B6003AC0FC40FCD0FC42B681348236003AA20
S31500001B70002100F073FC00F041F8104810F00EFC54
S31500001B8003220021012001F052FA0D4B186018B90A
S31500001B900C4810F003FCFEE700230522CDE90023E4
S31500001BA009490A484FF4007212F06AFC00F008F97D
S31500001BB00DB030BDE8572108712620089C57210832
S31500001BC0301C0000AA572108CD572108C12F200834
S31500001BD008B5084B1B7883420BD1012909D1064B66
S31500001BE0187803F091FB00F01DF9BDE8084000F0FD
S31500001BF043B808BD195921081E59210810B51A48BD
S31500001C001A4C10F0CBFB0D2010F06AFB00200AF0F6
S31500001C10E1FB0120212820701ED92E200AF0C4FBEA
S31500001C200022012310462E210AF0DAFA002210467D
S31500001C300F4C2E210AF054FB0123C4F8E432D4F8E9
S31500001C40E4120C48C9B210F039FB0D2010F048FB25
S31500001C500023C4F8E43210BD092801D00AF032F995
S31500001C6020780130C0B2D5E70C58210817000000D3
S31500001C70000013462958210808B500F0D3F8084A91
S31500001C800023C2F8E432074B00BF013BFCD101231D
S31500001C90C2F8E4320448BDE8084010F07FBB00BF3C
S31500001CA000001346E00407003E58210808B500F07E
S31500001CB057FBFFF751FF00F060FB002008BD000056
S31500001CC043292DE9F0410C461DD8DFF848800F4B1B
S31500001CD098F800701B787D1C05F00705AB4212D002
S31500001CE00B4E07EB07130A46014606EB830010F07E
S31500001CF00FFD442303FB076688F8005086F843402F
S31500001D000120BDE8F0810020FBE700BF341C000085
S31500001D10361C0000351C0000F8B504461646104A6D
S31500001D20237812789A42084618D00E4D442707FBAE
S31500001D30035203EB031305EB830192F8432010F0E3
S31500001D40E7FC237807FB0355012095F843303370F1
S31500001D502378013303F007032370F8BD0020FCE766
S31500001D60351C0000361C0000054A064913889BB244
S31500001D70C8541388013303F07F031380704700BFF4
S31500001D80601F0000DE1E00000A4B0B4A19881388EC
S31500001D9089B29BB299420BD0138808499BB2CB5C9F
S31500001DA003701388013303F07F031380012070470B
S31500001DB000207047601F00005E1F0000DE1E00004E
S31500001DC010B5114810F0EAFA1049022009F07CFF1C
S31500001DD010B10F4810F0E2FA0C4C0E4920680022B0
S31500001DE009F0BEFF10B10C4810F068FA0B492068E4
S31500001DF00AF03CF8002003F027F8094B00221A707D
S31500001E0083F8442010BD00BF4B582108641F000012
S31500001E106B582108F402000077582108512E20083B
S31500001E20561E000008B5074B07491868432209F0FB
S31500001E30F5FF014620B1BDE80840044810F03EBA5F
S31500001E4008BD00BF641F00009B1E00008C582108BF
S31500001E50C30737B521D51248124D10F09FFA00245A
S31500001E60013415F8010BE4B2FFF77EFF432CF7D1DE
S31500001E70002301930C4B01A9186801F08EFA019B0F
S31500001E804BB14FF0E0234FF08052C3F8042DBFF35F
S31500001E904F8FBFF36F8FFFF7C5FF03B030BD00BF95
S31500001EA0A15821089B1E0000301C000030B50446D6
S31500001EB093B00146432201A810F02AFC61782378EA
S31500001EC094F842004B400DF105040022D5B2A94218
S31500001ED004D81B1A5842584113B030BD14F8015F9C
S31500001EE001326B40F2E70000F0B5054691B00024E0
S31500001EF01448154F10F052FAAE1C3C22214601A898
S31500001F00009410F03BFB6A783146684610F000FCFE
S31500001F106978E3B2994209D83046FFF7D1FE70B925
S31500001F200A4811B0BDE8F04010F038BA40336B44AF
S31500001F30384613F8401C10F0C1F90134E8E711B037
S31500001F40F0BD00BFB4582108CC582108E358210839
S31500001F5010B5184C2378032B08D8DFE803F00208E5
S31500001F60131FB62802D160700123237010BD002311
S31500001F7084F844300223A0702370BDE810400E4858
S31500001F8010F00CBA94F84420531CDBB222443F2BC9
S31500001F9084F84430D070E9D90323E6E784F8430097
S31500001FA00648FFF783FF10B10448FFF79DFF0023A3
S31500001FB0DBE700BF561E000008592108571E000027
S31500001FC007B5094C20684FF0FF3101F0E1FA01280E
S31500001FD0F8D10DF10700FFF7D7FE0028F2D09DF8E3
S31500001FE00700FFF7B5FFF4E7301C000008B502F064
S31500001FF0F1F902F053FD07F071FE0AF0B5FC02F0AC
S315000020001FF802F019FBBDE8084000F0C5B900F062
S31500002010EDB908B500F008F8BDE8084000F00AB8C8
S3150000202000F0D0B870477047014803F06FB800BFA2
S3150000203019592108014803F04EB900BF1E5921085D
S31500002040EFF3108072B6704710B962B6BFF36F8FA8
S315000020507047EFF311800C2383F31188704780F3E8
S315000020601188BFF36F8F7047034638B10020814255
S3150000207004D01A5C02B970470130F8E770474FF098
S31500002080FF31FFF7F1BF000040B1054A1378012B7D
S3150000209004D8037001331370002070470120704785
S315000020A0681F000008B512F01FFA002008BD0000E6
S315000020B030B50E4C416123688BB9206083600DE01A
S315000020C0891A9A6841611D466AB113465A698A425D
S315000020D0F6D935B1A860521A83605A6130BD002521
S315000020E0F4E72060F7E798608260F7E7781F000062
S315000020F038B507F067FE094C094B1A6823680025B6
S31500002100C31A2AB123B15169994203D3C91A51613D
S31500002110206038BD55615B1A9268F2E7741F0000B3
S31500002120781F000038B5154D2B682BB35B69A3B13A
S31500002130134A146802201C4407F04EFE204607F09E
S3150000214055FE10492A6800230B7022B1D0888007FB
S315000021500AD501230B70002038BD022007F03CFE93
S31500002160022007F097FEECE79268002AF3D0506948
S315000021700344012BEAD9EEE72220EDE7781F0000A1
S31500002180741F0000701F00000D490B6898B10022F3
S315000021909BB1834203D1836822B90B6003E01A46E0
S315000021A09B68F5E7936083681BB15A6941690A44E5
S315000021B05A6100207047222070470220704700BFF6
S315000021C0781F000070B5154EFFF743FF34780546BB
S315000021D0FCB9134B1C60134B1C60134B1C6007F0BF
S315000021E0ABFD012007F0F8FD07F07CFE0F4B024621
S315000021F0186020B92846FFF732FF232070BD23461A
S315000022000B4840F2E7310FF089F80A4B18600123BA
S3150000221033702846FFF723FF0020EFE7711F000009
S31500002220781F0000741F0000801F00007C1F000044
S3150000223018FCFFFF6C1F0000C2072DE9F843044697
S3150000224007D5444A136801331360FFF751FFFFF7C0
S3150000225069FFA3077CD5FFF7FCFE0546FFF748FF9D
S315000022604FF000083C4F46463C680CB16369A3B189
S315000022703A4B0022012E1A7003D118F0020F18BF34
S315000022801E70FFF74FFF222802D1022007F0ECFD57
S315000022902846BDE8F843FFF7E2BE23465A693AB935
S315000022A01A792179914288BF1C469B68002BF5D18B
S315000022B02846FFF7D4FE2569DDB107F083FDA26944
S315000022C0A0EB02084FEAE873A84573F1000311DB9F
S315000022D023691344A361E36813B121682046984734
S315000022E0B4F80680FFF7B5FE01360546FFF700FF96
S315000022F0BAE7A846FFF7ADFE81462046FFF744FF42
S315000023004846FFF7ACFE2369002BE4D0A38BB5EB60
S31500002310080533B1E28B13449BB2B3F57A7F0FD233
S31500002320E383FFF796FE294680462046FFF7C0FE68
S31500002330A36922691344A3614046FFF790FECAE7EA
S31500002340A3F57A73E383A369013B013DA361E8E743
S31500002350BDE8F883801F0000781F0000691F000099
S3150000236008B5FFF743FEFFF754FEFFF759FEFFF7E8
S3150000237059FEBDE80840FFF756BEFFF748BE08B550
S315000023804FF0E0231B6912F06BF8012803D0BDE87B
S31500002390084001F05FBD08BDEFF3058373B9EFF3A5
S315000023A01082094B12B9EFF3118212B11A68022A90
S315000023B004D0186828B901221A6070476FF005002A
S315000023C070474FF0FF307047742C000008B512F0CC
S315000023D047F838B1022804D0034B1868431E584208
S315000023E0584108BD0320FCE7742C000010B5EFF33C
S315000023F00583ABB9EFF310820C4B12B9EFF31182E0
S3150000240012B11A68022A0BD01A68012A0BD1084A9F
S315000024100024D47702221A6012F056F8204610BD26
S315000024206FF00500FBE74FF0FF30F8E7742C000073
S3150000243000ED00E0EFF305834BB9EFF3108313B91A
S31500002440EFF311832BB1044B1B68022B01D112F061
S315000024500FB812F041B800BF742C0000F0B587B079
S31500002460144600220B460592EFF3058222BBEFF3DA
S31500002470108212B9EFF311821AB1214A1268022AA8
S315000024801AD0C8B1002C35D0A56925B16A1E372AE5
S3150000249002D9002011E018256268D207F9D46669CE
S315000024A06EB1B208D4E9027C21685FB1BCF1770F46
S315000024B002D9246904B1B6B9059807B0F0BD4FF446
S315000024C08072EFE7BCF1000FF6D12469002CF3D13E
S315000024D005ACCDE9005492B211F0D2FF01281CBF21
S315000024E000230593E8E7CDE90147009511F0B4FF15
S315000024F00590E1E7214618254FF48072E8E700BF12
S31500002500742C000011F0C4BF10B50446EFF3058328
S31500002510A3B9EFF3108313B9EFF311831BB10C4B7F
S315000025201B68022B0AD064B1204611F0C1FF0428B3
S315000025300AD0204611F098FF002010BD6FF005006C
S31500002540FBE76FF00300F8E76FF00200F5E700BF66
S31500002550742C000008B5EFF3058373B9EFF310830D
S3150000256013B9EFF311831BB1054B1B68022B04D083
S3150000257008B111F06DFF002008BD6FF00500FBE704
S31500002580742C00000346EFF3058292B9EFF3108234
S3150000259012B9EFF311821AB1084A1268022A08D05A
S315000025A04BB1D3E9020318B11F2B02D900F050BA80
S315000025B00BB10020704700F06FBA00BF742C00000A
S315000025C013B50C4658B3B1F1807F28D2EFF30583DB
S315000025D04BB9EFF3108313B9EFF31183CBB1134B60
S315000025E01B68022B15D1002301AA2146019300F096
S315000025F07BFBB8B1019B4BB14FF0E0234FF080520B
S31500002600C3F8042DBFF34F8FBFF36F8F204602B080
S3150000261010BD214602B0BDE8104000F01FBB6FF0B0
S315000026200304F3E76FF00204F0E700BF742C000028
S3150000263070B50E46054618B3B1F1807F20D2EFF390
S3150000264005834BB9EFF3108313B9EFF311838BB105
S315000026500D4B1B68022B0DD1284600F0F1FA3146CE
S315000026600446284600F0E4FA002808BF6FF002048A
S31500002670204670BD31462846BDE8704000F0B2BA2B
S315000026806FF00304F4E700BF742C000073B50C462A
S315000026901D4650B3B1F1807F27D2EFF305833BBBD4
S315000026A0EFF3108313B9EFF311831BB1124B1B68C1
S315000026B0022B1DD002F0010682F00202C2F3400294
S315000026C000953346214600F0F5F904EA00024EB1C2
S315000026D0A24205D0002D14BF6FF001006FF002007A
S315000026E002B070BD002AF5D0FAE76FF00300F7E7F5
S315000026F06FF00500F4E700BF742C000038B50546FE
S31500002700EFF3058313B10024204638BDEFF31083A1
S3150000271013B9EFF311831BB11C4B1B68022BF2D0CC
S315000027202DB36B681A07EED4D5E9021203F0010344
S3150000273071B14F2AE7D993B1042000F080FD044619
S315000027400028E0D0296801F059F844F00104DBE7DD
S31500002750002AD8D1ABB1042000F0A5FDEFE7012097
S3150000276000F06DFD04460028CDD0296806E0012062
S3150000277000F099FD04460028C5D0294601F03EF830
S31500002780C2E7012000F08FFDECE700BF742C0000CB
S31500002790034610B520F001000C4603F00102EFF3EA
S315000027A00581E9B9EFF3108111B9EFF3118119B180
S315000027B00E490968022913D0012B14D9214662B1AA
S315000027C000F0A3FF012801D1002010BD002C14BF8A
S315000027D06FF001006FF00200F7E700F0D9FEF1E7B5
S315000027E06FF00500F1E76FF00300EEE7742C0000D0
S315000027F0024608B520F0010002F00103EFF305815F
S31500002800C9B9EFF3108111B9EFF3118119B10D496F
S31500002810096802290FD0012A10D93BB100F024FD26
S3150000282001280CBF00206FF0020008BD1A461946A9
S3150000283000F049FCF4E76FF00500F6E76FF00300DF
S31500002840F3E700BF742C000010B5034620F0010426
S31500002850EFF305829AB9EFF3108212B9EFF3118202
S315000028601AB10A4A1268022A09D0012B0AD920464F
S3150000287000F0D6FF204600F0EBFF002010BD6FF001
S315000028800500FBE76FF00300F8E700BF742C0000BB
S3150000289073B50E461546EFF30583D3BBEFF31083EE
S315000028A013B9EFF311831BB1244B1B68022B30D0F5
S315000028B078B3B0422DD375B9012837D10322002150
S315000028C000F0B5FB044620B3AEB96DBB29462046E1
S315000028D000F094FF1EE0D5E90232C3B14F2A18D9A1
S315000028E001281AD1032200920022114600F04CFB67
S315000028F0044670B1C6B100231A461946204600F0B8
S31500002900E2FB0128E1D0204600F0A2FF01E0002A08
S31500002910D2D00024204602B070BD1A46314600F0DF
S3150000292092FB04460028F4D02D68CFE7314600F02C
S31500002930ACFB04460028C8D1EBE700BF742C0000AE
S3150000294013B50C4688B3EFF305834BB9EFF3108349
S3150000295013B9EFF31183F3B1154B1B68022B1AD190
S315000029601CBB01AA2146019400F0F0FE012803D009
S315000029706FF0020002B010BD019B0BB90020F9E711
S315000029804FF0E0234FF08052C3F8042DBFF34F8F72
S31500002990BFF36F8FF2E7214600F0FAFD0128EDD074
S315000029A0002CE5D06FF00100E4E76FF00300E1E7EB
S315000029B0742C000007B570B3EFF305834BB9EFF342
S315000029C0108313B9EFF31183EBB1144B1B68022B81
S315000029D019D1002301A9019300F0DFFC012804D0DE
S315000029E06FF0020003B05DF804FB019B4BB14FF0A2
S315000029F0E0234FF08052C3F8042DBFF34F8FBFF38F
S31500002A006F8F0020EEE700231A46194600F05BFBA5
S31500002A100128F6D0E4E76FF00300E3E7742C00002A
S31500002A20034B0360034B0B604FF4807313607047D6
S31500002A30FC2B0000FC270000034B0360034B0B60DC
S31500002A404FF400731360704784270000841F000052
S31500002A5013B5044640B94FF0140383F31188BFF34E
S31500002A606F8FBFF34F8FFEE720230193019B202B2F
S31500002A7008D04FF0140383F31188BFF36F8FBFF3B1
S31500002A804F8FFEE7002340F8043B00F035F90123A1
S31500002A902046237702B010BD38B5202001F0B6FAE3
S31500002AA0044628B1002540F8045B00F025F9257797
S31500002AB0204638BD2DE9F843DDF820900C46174630
S31500002AC09846064640B94FF0140383F31188BFF3C6
S31500002AD06F8FBFF34F8FFEE7B1F1807F08D34FF0C2
S31500002AE0140383F31188BFF36F8FBFF34F8FFEE795
S31500002AF041B94FF0140383F31188BFF36F8FBFF30F
S31500002B004F8FFEE711F0ACFCD0B9B9F1000F08D039
S31500002B104FF0140383F31188BFF36F8FBFF34F8F0A
S31500002B20FEE711F0E5FC356804EA0503B8F1000F8D
S31500002B3032D09C4232D18FB325EA040434602DE0B2
S31500002B4011F0D6FC356804EA0503B8F1000F2AD166
S31500002B50002BF0D1B9F1000F20D0391E18BF01218A
S31500002B6009064A462143301D11F0A6FC11F0A8FCC7
S31500002B7028B311F0C1FC830105460AD401F002F91D
S31500002B80356804EA0503B8F1000F23D123BB01F031
S31500002B9019F925F07F4503E0002BCCD111F090FC0C
S31500002BA02846BDE8F8839C42C5D0B9F1000FF5D0A0
S31500002BB0391E18BF0121090641F08061D1E74FF0A7
S31500002BC0E0234FF08052C3F8042DBFF34F8FBFF3BD
S31500002BD06F8FCEE79C42DAD1002FD8D025EA0404C5
S31500002BE03460D4E770B50C46054640B94FF014037F
S31500002BF083F31188BFF36F8FBFF34F8FFEE7B1F1F9
S31500002C00807F08D34FF0140383F31188BFF36F8FCF
S31500002C10BFF34F8FFEE701F0B5F82E6826EA0404ED
S31500002C202C6001F0CFF8304670BDFFF7DBBF000027
S31500002C300A4600230146014801F02AB82B3C200829
S31500002C40EFF311834FF0140282F31188BFF36F8FF5
S31500002C50BFF34F8F006883F3118870472DE9F04169
S31500002C600D46044640B94FF0140383F31188BFF3B1
S31500002C706F8FBFF34F8FFEE7B1F1807F08D34FF020
S31500002C80140383F31188BFF36F8FBFF34F8FFEE7F3
S31500002C9000F10C0611F02CFC236820692B432360FD
S31500002CA000258642216807D121EA0501216011F03D
S31500002CB007FC2068BDE8F081D0E9002822F07F43B8
S31500002CC012F0806F03EA010702D11FB94046E8E718
S31500002CD0BB42FBD1D20141F0007148BF1D4311F048
S31500002CE0DBFBF3E7FFF7BABF13460A460146014886
S31500002CF000F0CEBFE53C200800F108034FF0FF329C
S31500002D00C0E9022343600361002303607047002388
S31500002D100361704743684B609A688A6051609960A6
S31500002D200368086101330360704730B50C68631CA3
S31500002D300AD103695A684A6091608B6059600368DA
S31500002D4008610133036030BD00F108021346526882
S31500002D501568A542FAD9EDE7D0E9011203698A6040
S31500002D6051605968814208BF5A60002202611A68A0
S31500002D70013A1A601868704710B5044601F002F867
S31500002D80A46B01F01FF8B4FA84F0400910BD70B5C9
S31500002D901646026C856B044642B906689EB9806881
S31500002DA011F082FBA6600135A56370BD6EB940685F
S31500002DB00FF0AEFC6368226C1344A2686360934212
S31500002DC024BF236863600020EDE7C0680FF0A0FC15
S31500002DD0226CE36851429B1A2268E36093423EBF2D
S31500002DE0A3685B18E360022EEDD10DB1013DEAE761
S31500002DF02846D8E7034610B41A6C08466AB1DC6860
S31500002E00996814448C4228BF1968DC6028BFD960D1
S31500002E10D9685DF8044B0FF07BBC5DF8044B704736
S31500002E2070B5044600F0AEFF94F8455004F1240650
S31500002E306DB2002D14DCFF2384F8453000F0C2FF8C
S31500002E4000F0A0FF94F8445004F110066DB2002D76
S31500002E5012DCFF2384F84430BDE8704000F0B2BFB6
S31500002E60636A002BE7D0304611F052FB08B111F02F
S31500002E7047FB013D6DB2DCE72369002BE9D0304604
S31500002E8011F046FB08B111F03BFB013D6DB2DEE7E8
S31500002E9038B50D46044640B94FF0140383F3118844
S31500002EA0BFF36F8FBFF34F8FFEE700F06BFFD4E9E0
S31500002EB00F31226862604B43D0185B1A1A44A06037
S31500002EC0FF230020A063E26084F8443084F8453094
S31500002ED0A5B9236973B104F1100011F019FB48B1CB
S31500002EE04FF0E0234FF08052C3F8042DBFF34F8F0D
S31500002EF0BFF36F8F00F066FF012038BD04F11000AC
S31500002F00FFF7FAFE04F12400FFF7F6FEF2E7F8B544
S31500002F10064617460D46C9B14843B0FBF1F39E423B
S31500002F2008D04FF0140383F31188BFF36F8FBFF3FC
S31500002F304F8FFEE710F1510F19D94FF0140383F3A9
S31500002F401188BFF36F8FBFF34F8FFEE7502001F05C
S31500002F505DF888B180F8465004462060C4E90F65E4
S31500002F6001212046FFF794FF84F84C7005E05030AD
S31500002F7001F04CF8044610B900242046F8BD0023A1
S31500002F8080F846305030E8E737B50D461C4640B964
S31500002F904FF0140383F31188BFF36F8FBFF34F8F86
S31500002FA0FEE743B94FF0140383F31188BFF36F8F25
S31500002FB0BFF34F8FFEE74AB191BB4FF0140383F383
S31500002FC01188BFF36F8FBFF34F8FFEE741B14FF00C
S31500002FD0140383F31188BFF36F8FBFF34F8FFEE7A0
S31500002FE050230193019B502B08D04FF0140383F319
S31500002FF01188BFF36F8FBFF34F8FFEE7019B224609
S315000030000121C4E90F0584F8461022602046FFF727
S315000030103FFF9DF8183084F84C30204603B030BD91
S3150000302050230193019B502BDFD1019BE8E740B968
S315000030304FF0140383F31188BFF36F8FBFF34F8FE5
S31500003040FEE7FFF764BF13B513460C4640B94FF0D1
S31500003050140383F31188BFF36F8FBFF34F8FFEE71F
S31500003060884208D24FF0140383F31188BFF36F8FA1
S31500003070BFF34F8FFEE70222009200221146FFF7B0
S3150000308083FF00B1846302B010BD10B50C4640B991
S315000030904FF0140383F31188BFF36F8FBFF34F8F85
S315000030A0FEE7884208D24FF0140383F31188BFF37A
S315000030B06F8FBFF34F8FFEE702220021FFF7B7FFA6
S315000030C000B1846310BDF0B585B00E4601921D4671
S315000030D0044640B94FF0140383F31188BFF36F8F92
S315000030E0BFF34F8FFEE751B9036C43B14FF01403A2
S315000030F083F31188BFF36F8FBFF34F8FFEE7022D67
S315000031000BD1E36B012B08D04FF0140383F3118826
S31500003110BFF36F8FBFF34F8FFEE711F0A1F908B928
S31500003120019B03BB00F02EFEA26BE36B9A4223D2F7
S315000031302A4631462046FFF72AFE636A1BB104F190
S31500003140240011F0E5F948B14FF0E0234FF080522A
S31500003150C3F8042DBFF34F8FBFF36F8F00F032FE1D
S31500003160012005B0F0BD4FF0140383F31188BFF3BF
S315000031706F8FBFF34F8FFEE7022DD9D000231F4676
S3150000318037E013B902A811F057F900F01BFE11F051
S31500003190AFF900F0F7FD94F84430FF2B08BF84F830
S315000031A0447094F84530FF2B08BF84F8457000F052
S315000031B009FE01A902A811F047F9002839D100F04B
S315000031C0E1FDA26BE36B9A421AD100F0FBFD019977
S315000031D004F1100011F034F92046FFF721FE11F03A
S315000031E06FF9D8B100F0CEFDA36BE26B9A429FD87F
S315000031F00123019A002AC4D100F0E4FD0020B0E7C3
S3150000320000F0E0FD2046FFF70BFE11F059F900F043
S31500003210B9FDA26BE36B9A42EAD289E74FF0E0234D
S315000032204FF08052C3F8042DBFF34F8FBFF36F8F5B
S31500003230EDE72046FFF7F4FD11F042F9DEE713B59E
S3150000324000220B46009011460120FFF79DFE044622
S3150000325038B1002383600360C3601A461946FFF73E
S3150000326032FF204602B010BD38B5044640B94FF0D3
S31500003270140383F31188BFF36F8FBFF34F8FFEE7FD
S31500003280856811F005F985420BD1E368013BE360DF
S315000032900BB1012038BD1A4619462046FFF713FF29
S315000032A0F7E70020F6E710B5024600210120FFF7F8
S315000032B02EFE044638B1002383600360C3601A46BD
S315000032C01946FFF700FF204610BD2DE9F843894651
S315000032D017461E46044640B94FF0140383F311887F
S315000032E0BFF36F8FBFF34F8FFEE751B9036C43B146
S315000032F04FF0140383F31188BFF36F8FBFF34F8F23
S31500003300FEE7022E0BD1E36B012B08D04FF014031E
S3150000331083F31188BFF36F8FBFF34F8FFEE700F083
S3150000332047FEEFF311884FF0140383F31188BFF3C0
S315000033306F8FBFF34F8FA26BE36B9A4201D3022EBE
S3150000334029D194F84550A36B6DB2324649462046C2
S31500003350FFF71DFD6B1C0ED1636A3BB104F124001F
S3150000336011F0D6F810B10FB101233B60012088F3AC
S315000033701188BDE8F8837F2D08D14FF0140383F33D
S315000033801188BFF36F8FBFF34F8FFEE701356DB224
S3150000339084F84550EAE70020E9E770B50D46044693
S315000033A040B94FF0140383F31188BFF36F8FBFF357
S315000033B04F8FFEE7036C43B14FF0140383F311887C
S315000033C0BFF36F8FBFF34F8FFEE7036853B9836870
S315000033D043B14FF0140383F31188BFF36F8FBFF32C
S315000033E04F8FFEE700F0E4FDEFF311864FF0140374
S315000033F083F31188BFF36F8FBFF34F8FA26BE36B1D
S31500003400934224D994F845100132FF294BB2A263A6
S315000034100DD1636A3BB104F1240011F079F810B1C3
S315000034200DB101232B60012086F3118870BD7F2B1F
S3150000343008D14FF0140383F31188BFF36F8FBFF3E6
S315000034404F8FFEE701335BB284F84530EBE700208F
S31500003450EAE7F0B585B00E460192044640B94FF052
S31500003460140383F31188BFF36F8FBFF34F8FFEE70B
S3150000347051B9036C43B14FF0140383F31188BFF3C2
S315000034806F8FBFF34F8FFEE710F0EAFF50B9019B35
S3150000349043B14FF0140383F31188BFF36F8FBFF36B
S315000034A04F8FFEE700F06EFCA56BDDB1314620467E
S315000034B0013DFFF79FFCA563236973B104F110007A
S315000034C011F026F848B14FF0E0234FF08052C3F8D0
S315000034D0042DBFF34F8FBFF36F8F00F073FC0120F5
S315000034E005B0F0BD019B1BB900F06CFC0020F7E7AE
S315000034F002A810F0A1FF2F4600F064FC10F0F8FFC0
S3150000350000F040FC94F84430FF2B08BF84F8447068
S3150000351094F84530FF2B08BF84F8457000F052FC44
S3150000352001A902A810F090FF38BB2046FFF724FC43
S31500003530E8B1019904F1240010F082FF2046FFF75C
S315000035406FFC10F0BDFF48B94FF0E0234FF08052FA
S31500003550C3F8042DBFF34F8FBFF36F8F00F012FC3B
S31500003560A56B002DA2D1019B002BC5D1BCE720463F
S31500003570FFF756FC10F0A4FFF0E72046FFF750FCDB
S3150000358010F09EFF2046FFF7F7FB0028E6D0ADE7D8
S31500003590F0B585B00446019140B94FF0140383F3AA
S315000035A01188BFF36F8FBFF34F8FFEE7056C45B1F0
S315000035B04FF0140383F31188BFF36F8FBFF34F8F60
S315000035C0FEE710F04DFF064620B32E46002700F01A
S315000035D0D9FBA36B53B3013BA363236813B910F064
S315000035E04BFFA060236973B104F1100010F090FF47
S315000035F048B14FF0E0234FF08052C3F8042DBFF3DB
S315000036004F8FBFF36F8F00F0DDFB012005B0F0BDDB
S315000036103546DBE7019B002BFAD04FF0140383F30A
S315000036201188BFF36F8FBFF34F8FFEE7019B53B92E
S31500003630002D66D04FF0140383F31188BFF36F8F0C
S31500003640BFF34F8FFEE716B902A810F0F5FE00F0A3
S31500003650B9FB10F04DFF00F095FB94F84430FF2BBA
S3150000366008BF84F8447094F84530FF2B08BF84F8EF
S31500003670457000F0A7FB01A902A810F0E5FE50BBBB
S315000036802046FFF779FB00B323683BB900F07AFBCD
S31500003690A06810F005FF054600F094FB019904F1BF
S315000036A0240010F0CDFE2046FFF7BAFB10F008FF0D
S315000036B048B94FF0E0234FF08052C3F8042DBFF312
S315000036C04F8FBFF36F8F012681E72046FFF7A8FBD8
S315000036D010F0F6FEF7E72046FFF7A2FB10F0F0FE2B
S315000036E02046FFF749FB0028EDD065B100F04AFB04
S315000036F0616A19B1236B1968C1F13801A06810F02D
S31500003700E7FE00F05FFB002080E770B50D4604463B
S3150000371040B94FF0140383F31188BFF36F8FBFF3E3
S315000037204F8FFEE7866810F0B3FE864204D1E36849
S315000037300133E360012070BD29462046FFF728FFCC
S315000037400028F8D0E3680133E360F4E72DE9F84395
S3150000375089469046044640B94FF0140383F3118816
S31500003760BFF36F8FBFF34F8FFEE751B9036C43B1C1
S315000037704FF0140383F31188BFF36F8FBFF34F8F9E
S31500003780FEE700F015FCEFF311874FF0140383F307
S315000037901188BFF36F8FBFF34F8FA66B66B394F894
S315000037A0445049466DB22046FFF724FB013E6B1C90
S315000037B0A66311D1236953B104F1100010F0A8FEDD
S315000037C028B1B8F1000F02D00123C8F8003001205B
S315000037D087F31188BDE8F8837F2D08D14FF01403D5
S315000037E083F31188BFF36F8FBFF34F8FFEE7013569
S315000037F06DB284F84450EAE73046E9E730B5074A47
S31500003800002352F8335002EBC3041DB942F83310BB
S31500003810606030BD0133082BF3D1FAE7782C000045
S3150000382010B5094A002352F8331081424FEAC30407
S3150000383006D1064A002142F833102244516010BDD9
S315000038400133082BEFD1FAE77C2C0000782C00001E
S3150000385010B540B94FF0140383F31188BFF36F8F8F
S31500003860BFF34F8FFEE7FFF7DBFF90F846301BB93B
S31500003870BDE8104000F0D6BB10BD70B504460D463D
S31500003880164600F07FFA94F84430FF2B04BF00235D
S3150000389084F8443094F84530FF2B04BF002384F8A5
S315000038A0453000F08FFAA36B2BB93246294604F156
S315000038B0240010F015FE2046BDE87040FFF7B0BAB0
S315000038C0914208B5416000610AD8D21A83699A42CA
S315000038D00DD2084B011D1868FFF727FA002008BD16
S315000038E09A4201D2994202D2034B011DF3E701200D
S315000038F0F5E700BF6432000068320000F7B5114CEE
S3150000390000F040FA2568BDB90F4F104E3846FFF754
S31500003910F3F93046FFF7F0F90D4B0E4A1F600E4BD8
S3150000392010211E6005200D4B0095FFF72DFB206032
S3150000393010B10B49FFF762FF03B0BDE8F04000F09D
S3150000394041BA00BF60320000803200006C320000D5
S31500003950683200000832000064320000B83100000E
S315000039602659210810B588B0FFF7C8FF124B1B680F
S31500003970B3B1002407AA06A905A8CDE90544FFF7B7
S315000039805BF8059B0293069B019337230093079AE6
S315000039900A490B48234610F05FFD0A4B186040B9F0
S315000039A04FF0140383F31188BFF36F8FBFF34F8F6C
S315000039B0FEE7012008B010BD603200002B59210837
S315000039C0C54A20085C3200007FB5164604461A46F2
S315000039D040B94FF0140383F31188BFF36F8FBFF321
S315000039E04F8FFEE70D4D286880B10529CDE90016F9
S315000039F002940DDC10F034FD0023022808BF089A5B
S31500003A00286818BF1A466946FFF75DFB04B070BD0B
S31500003A1000236946FFF759FCF8E700BF6032000053
S31500003A202DE9F347DFF89880064610F055FDD8F8E3
S31500003A3000308342054609D91F4F3B681A686AB9A8
S31500003A401E4A116839601360012300E000232846EE
S31500003A503360C8F8005002B0BDE8F087DB68DC6868
S31500003A60D3F8009004F1040A5046FFF775F9236A6B
S31500003A702046984794F828305B07DED5A3694B4467
S31500003A80994506D23868636024615146FFF74DF9BF
S31500003A90D3E7002300934A4619462046FFF794FFD2
S31500003AA00028CAD14FF0140383F31188BFF36F8F38
S31500003AB0BFF34F8FFEE700BF68320000643200009C
S31500003AC0583200002DE9F0436E4D6F4E89B02B68D9
S31500003AD0D3F80080B8F1000F35D0DB68D3F800804A
S31500003AE0002410F005FD04A8FFF79AFF049B814609
S31500003AF0002B69D1002C4CD1404550D310F0E0FC8E
S31500003B002B68DB68DF68381DFFF726F997F8283041
S31500003B1058071AD5B96943464A4641443846FFF71D
S31500003B20CFFEB0B100942346424621463846FFF701
S31500003B304BFF70B94FF0140383F31188BFF36F8FF7
S31500003B40BFF34F8FFEE70124CBE723F0010387F88D
S31500003B5028303B6A384698473068002204A9FFF7A8
S31500003B6078FC0028B3D0049B0698002B2FDB069C1C
S31500003B706369002B32D103A8FFF752FF049B02466C
S31500003B80092BE9D8DFE803F02E2E2E575E762E2E6F
S31500003B90575E3E4B1B681C68B4FA84F464093068AF
S31500003BA02246A8EB0901FFF768FE10F089FC002801
S31500003BB0D2D14FF0E0234FF08052C3F8042DBFF36B
S31500003BC04F8FBFF36F8FC7E710F07AFCC4E7059BF2
S31500003BD007999847049B002BBEDBC8E7201DFFF71B
S31500003BE0BBF8C8E794F82830A16943F0010384F8CC
S31500003BF02830059B20461944FFF762FE0028ABD00B
S31500003C00236A2046984794F828305907A4D5A26914
S31500003C10059900230A44009319462046FFF7D4FE6F
S31500003C20002899D14FF0140383F31188BFF36F8FE7
S31500003C30BFF34F8FFEE794F8283023F0010384F892
S31500003C40283089E794F8283043F0010384F82830B7
S31500003C500599A16141B94FF0140383F31188BFF3AD
S31500003C606F8FBFF34F8FFEE7034601442046FFF7F1
S31500003C7027FE71E794F828309A07DED4204600F034
S31500003C80D1F969E768320000603200006432000052
S31500003C901FB514461A466FF00103CDE900300548FA
S31500003CA0CDE90214002369460068FFF70EFB04B055
S31500003CB010BD00BF6032000008480068006880F34D
S31500003CC008884FF0000080F3148862B661B6BFF32F
S31500003CD04F8FBFF36F8F00DF00BF000008ED00E0DD
S31500003CE0DFF80C00016841F47001016070470000C4
S31500003CF088ED00E082B0002301930D4B1B68013371
S31500003D0008D04FF0140383F31188BFF36F8FBFF30E
S31500003D104F8FFEE74FF0140383F31188BFF36F8FC5
S31500003D20BFF34F8F019B002BFCD002B0704700BF42
S31500003D301C0000004FF0807340F8043C074B40F82D
S31500003D400C3C21F001016FF0020340F8081C40F81A
S31500003D50202C40F8243C4438704700BFF54C20081E
S31500003D60074B19680868B0E8F04F80F30988BFF37D
S31500003D706F8F4FF0000080F311887047AFF300801B
S31500003D80B43100004FF0140383F31188BFF36F8F33
S31500003D90BFF34F8F0A4A13680133012B13600ED10C
S31500003DA04FF0E023D3F8043DDBB243B14FF01403E8
S31500003DB083F31188BFF36F8FBFF34F8FFEE7704712
S31500003DC01C000000084A136843B94FF0140383F33C
S31500003DD01188BFF36F8FBFF34F8FFEE7013B136070
S31500003DE00BB983F3118870471C0000000000000027
S31500003DF0EFF30980BFF36F8F154B1A681EF0100F93
S31500003E0008BF20ED108A20E9F04F10602DE9090067
S31500003E104FF0140080F31188BFF34F8FBFF36F8FFD
S31500003E2010F032FB4FF0000080F3118809BC1968CE
S31500003E300868B0E8F04F1EF0100F08BFB0EC108A0B
S31500003E4080F30988BFF36F8F704700BFAFF3008020
S31500003E50B431000008B54FF0140383F31188BFF3A3
S31500003E606F8FBFF34F8F10F04FFB28B14FF0E02359
S31500003E704FF08052C3F8042D002383F3118808BD48
S31500003E804FF0E022002313619361054B4FF47A71E2
S31500003E901B68B3FBF1F3013B5361072313617047C2
S31500003EA0FC3200004FF0E02337B5D3F8001D3A4A44
S31500003EB0914208D14FF0140383F31188BFF36F8F3B
S31500003EC0BFF34F8FFEE7D3F8002D344B9A4208D14B
S31500003ED04FF0140383F31188BFF36F8FBFF34F8F37
S31500003EE0FEE72F4B1A78D2B20192FF221A701B7886
S31500003EF02C4ADBB28DF803309DF8033003F014032F
S31500003F001370294A0723136000219DF80300000659
S31500003F1003F1FF340CD411B1012B136011D04FF013
S31500003F20140383F31188BFF36F8FBFF34F8FFEE740
S31500003F309DF803305B00DBB28DF803300121234688
S31500003F40E3E74FF480731360019B154A4FF0E024BA
S31500003F50DBB21370D4F8203D43F47C03C4F8203D53
S31500003F60D4F8203D43F07C43C4F8203DFFF788FF9A
S31500003F700E4B00251D60FFF7B3FED4F8343F43F027
S31500003F804043C4F8343FFFF797FE10F07DFAFFF781
S31500003F90B1FE284603B030BD71C20F4170C20F4159
S31500003FA000E400E098320000943200001C0000009B
S31500003FB0EFF305830F2B0ED9114A9B5C114A127839
S31500003FC09A4208D94FF0140383F31188BFF36F8F19
S31500003FD0BFF34F8FFEE74FF0E0230B4AD3F80C3DBB
S31500003FE0126803F4E063934208D94FF0140383F395
S31500003FF01188BFF36F8FBFF34F8FFEE7704700BF87
S31500004000F0E300E0983200009432000010B5044658
S3150000401010F06EFA20460DF017FB044610F050FA29
S31500004020204610BD10B5044640B110F061FA204696
S315000040300DF012FBBDE8104010F042BA10BD0000B2
S3150000404070B5134C134D23685E6C00231946284641
S315000040500222B04723681E6800231946022228461A
S31500004060B04723680C4DD3F8C03005209847236825
S315000040705E6C0023194628460A22B04723681C684E
S3150000408000232846A4460A22BDE870401946604728
S315000040900001300000C00424000013467FB50389E8
S315000040A00493837903934379029303790193C37845
S315000040B0009383784278017802480EF0FFF807B043
S315000040C05DF804FB335921080FB404B070470000B3
S315000040D030B5114B93F85830013BDBB2FD2B8FB056
S315000040E018D80E4D0FCD6C460FC40FCD0FC40FCD93
S315000040F00FC495E8030084E80300094C6846D4F829
S31500004100443711F077FB05F063FFD4F844370020FD
S315000041100FB030BD0120FBE700021F0858021F0840
S3150000412000800524134B0168D3F84437F0B5012706
S31500004130013900D2F0BDD0F808C04668CCF38455EA
S31500004140C5EBDC62346801320023013A0CD203FA73
S3150000415005F203EA0C03C3F3150324EA0202AB409B
S31500004160134333600830E3E707FA02FE43EA0E031F
S31500004170EBE700BF0080052408B51848FFF7D2FF1B
S315000041801748FFF7CFFF06F02BFA06F03DFA06F0C8
S3150000419047FA06F059FA06F063FA1248FFF7C2FF2B
S315000041A01148FFF7BFFF1148FFF7BCFF1048FFF7A4
S315000041B0B9FF1048FFF7B6FF0F48FFF7B3FF0F48E8
S315000041C0FFF7B0FF0E48FFF7ADFF0E48FFF7AAFF57
S315000041D0BDE808400C48FFF7A5BF00BF3419000032
S315000041E098180000D4140000A015000094150000D3
S315000041F0B415000074140000681400005C1400007C
S31500004200B0140000F8140000EC14000010B5254CA2
S31500004210FFF7B2FF94F8040600F00100FFF758FF1D
S315000042204FF4C023C4F86C34D4F840311E4843F42C
S315000042300023C4F84031D4F8403143F00103C4F8F8
S315000042404031D4F8403143F00203C4F84031FFF75F
S3150000425069FF16491648D1F8103543F00203C1F834
S315000042601035636923F400336361636943F4803373
S315000042706361D0F84027D0F87837C2F34342023A58
S3150000428023F4F07343EA4213C0F87837D1F8943434
S3150000429043F40023C1F89434236943F46013236183
S315000042A010BD00BF00800424C016000000A0052435
S315000042B00080052408B550B10748FFF733FF0748CB
S315000042C0FFF730FF0648BDE80840FFF72BBF05485B
S315000042D0FFF728FF0448F6E708170000B0170000AC
S315000042E0A41700007C170000281700000B48D0F820
S315000042F000D05DF804EB5DF804CB5DF804BB5DF817
S3150000430004AB5DF8049B5DF8048B80BC40BC20BC0C
S3150000431010BC08BC04BC02BC01BC7047A83200003B
S31500004320114AD2F8103623F48073C2F810360F4BB8
S31500004330596B41F001015963596B41F00201596310
S315000043400423C2F8383482B000238DF807309DF874
S315000043500730092B01D902B0704700BF9DF807301E
S315000043600133DBB2F1E700BF00800424008404249B
S31500004370FEE7FEE7054B064A06498B4200D3704727
S3150000438052F8040B43F8040BF7E700BF10000000D7
S31500004390186A210888190000064B0748DA1C121A09
S315000043A0C11E22F00302994288BF002200210EF0AE
S315000043B0E5B800BF744B00008819000008B5FFF788
S315000043C0D9FFFFF7E9FF00F0B3F8BDE80840FDF7B5
S315000043D06DBC000038B5374B374A1A60374B384A40
S315000043E093F80636374C03F00F030F2B15BF364BE9
S315000043F04FF00063D3F89312D3F837140CBF116053
S315000044001160324A0CBFD3F83634D3F892321360B7
S3150000441005F05EFF05F05EFF2D4BDB694FF0806116
S31500004420D3F880304FF08C409847E369022060F360
S315000044300E33E361274BDA696FF30202DA6105F0A6
S31500004440C3FF1E4B1A6A042161F302021A621A6A3A
S315000044501207FCD5A369022262F38403A361A36950
S315000044601B04FCD51C4B1D4D5A6E6FF341025A6658
S315000044705A6E6FF300025A66FFF752FF184B19483F
S315000044800D4A18614FF4FA44D86117485C6200215E
S315000044901C624FF40044C3E90022C3E90B05C3E9DB
S315000044A00F2299605961DA609C625A635864996177
S315000044B038BD00BFFC320000005A620200800424AE
S315000044C0A43200000081042400001F08A03200006E
S315000044D0000130000086042400840424002D3101EC
S315000044E0AC32000000B4C4040048E8014FF0E023F9
S315000044F084B0D3F8402F0192D3F8442F0292019949
S31500004500094A91420DD10299084A914209D1D3F83C
S31500004510882D0392039A42F470020392039AC3F819
S31500004520882D04B0704700BF210011101100001142
S3150000453013B50023009301932F4BD3F81025009257
S31500004540009A00922D4A116821F00F01116011683E
S315000045501160D3F89C1421F46071C3F89C14D3F84D
S31500004560041701910199C3F80415D3F800170191B6
S315000045700199C3F80015D3F8101541F01C01C3F8D2
S315000045801015D2F8024014F48074FAD11C4843691D
S3150000459043F480334361436964F351434361FFF756
S315000045A0A5FF184B4FF080725A60174BC0F8403188
S315000045B0164B5A6864F3C3025A60036A0E4A43F400
S315000045C080330362036A43F400330362D2F89434FF
S315000045D043F40023C2F89434036943F4601303617F
S315000045E00B4B1A6842F400221A601A6842F48022C1
S315000045F01A6002B010BD00BF00A00524000005240B
S3150000460000800424000030410300080000810424D7
S315000046100084042420F04040012802D0022805D05E
S315000046207047034A1368013313607047014AF9E77C
S31500004630043300000033000010B5124CE3689847BD
S31500004640A36811489847236902209847A46A012164
S315000046501520A04701211620A0474FF4E131012083
S31500004660A0470A4C206810B9FEF748F82060084BAE
S315000046704FF48052C3F88020BFF34F8FBFF36F8F84
S3150000468010BD00BFDC5A210815562008083300006B
S3150000469000E100E013B5094C00238DF804302360D7
S315000046A0074B01219B6901A8984723681BB19DF818
S315000046B0040002B010BD00F027FDF6E7003300004D
S315000046C0DC5A210813B5094C8DF807000023236036
S315000046D0074B01215B690DF10700984723680BB171
S315000046E002B010BD00F010FDF8E700BF0433000073
S315000046F0DC5A210803681B780022202B04D0093BD2
S31500004700042B01D9D0B270470368591C01605B784D
S315000047100132F2E70120704708B509F087FE16233B
S3150000472003604FF0FF3008BD08B509F07FFE162381
S315000047300360FEE770B50D461446FDF747FE0228F6
S3150000474005D10C4B4FF0FF311868FEF721F82E46C5
S31500004750731BA34209DBFDF739FE022803D1054B83
S315000047601868FEF745F8204670BD16F8010BFFF7EE
S31500004770A9FFEDE7083300004FF0FF3070474FF414
S3150000478000534B600020704701207047002070479F
S315000047900FB42DE9F0438BB012AB002453F8046B31
S315000047A001938DF81040FFF775FF0D288DF8100066
S315000047B0F7D00A28F5D0002425460134142C2ED033
S315000047C0FFF768FF04F128036B440D2803F8180C63
S315000047D001D00A28F0D105F128030DEB03050023CB
S315000047E005F8163C04AB03939DF81030019F029622
S315000047F0002B00F04E810025029B1B78002B3BD03E
S31500004800DDF80C9099F80060002E35D002A8FFF76D
S3150000481071FF044638B103A8FFF76CFFECE70023ED
S315000048208DF82430DEE7029A1346517813F8010B0F
S315000048300293252801D1252907D18E421CD109F1E1
S315000048400103023203930292D6E726462046A0468B
S315000048501A7806F07C01002A67D100B1029300297C
S3150000486067D109E0692A51D01ED8632A53D011D8DE
S31500004870392A07D82F2A35D8E8B20BB0BDE8F0435D
S3150000488004B07047582AF7D146F0200601334FF09E
S31500004890100833E0642AEFD146F4005646F02006AD
S315000048A001334FF00A0829E06F3AD1B20929E3D85B
S315000048B0092AE1D801A151F822F000BF01592008C8
S315000048C07958200879582008795820082559200851
S315000048D0795820089D5820087958200879582008CA
S315000048E089582008002CC7D10A211A78303A01FBD2
S315000048F0042413F8012F303A092AF6D90120A7E734
S3150000490046F0200601334FF00808F7E746F0200688
S3150000491001338846F2E7012C46F0040638BF01242D
S315000049200133EBE746F00806FAE700299AD000B112
S315000049300293002C08BF632408291BD0202940D0ED
S31500004940042999D157F8042B4946144400200E78BF
S315000049500B4601310EB938B94EE702F8016B9442A5
S315000049604FF00100F3D10B46994503933FF444AF52
S31500004970013541E703A8FFF7BDFEDDF80CC057F887
S31500004980042B664614440021307810F0DF0F3346BE
S3150000499006F1010601D161B92EE7A0F1090EBEF1BB
S315000049A0040FF8D902F8010BA2424FF00101EBD136
S315000049B033469C4503933FF41FAF374B00221A70D2
S315000049C0D6E703A8FFF796FE039BB8F1000F10D0B9
S315000049D0B8F1100F17D11A78302A14D15A7802F08C
S315000049E0DF02582A0FD102330393023C4FF010081E
S315000049F009E01A78302A16D15A7802F0DF02582ACE
S31500004A00F1D04FF00808039B1A782B2A0ED02D2AD6
S31500004A100FD101330393013C4FF0FF31039A00207D
S31500004A201444844614E04FF00A08ECE7013303937C
S31500004A30013C0121F2E7A9F14103052B02D910B38C
S31500004A40039220E0A9F1370315E00CFB083C012096
S31500004A5092F800909646B9F1000FF0D0A242EED03F
S31500004A60A9F13003DBB2092B06D9A9F16103052BA5
S31500004A70E1D8A9F15703DBB2984502F10102E4D867
S31500004A8008B1CDF80CE057F8043B0CFB01F11960B6
S31500004A906EE74FF0FF35EFE60C33000004480223C3
S31500004AA01421C21801334B2B82F80013F9D1704739
S31500004AB000E100E0064B1868002382B262F30F03A0
S31500004AC0000C60F31F4382B0184602B0704700BF67
S31500004AD0D85A21080E207047014803F03DBA00BF9E
S31500004AE0885A2108014803F037BA00BF385A21080E
S31500004AF0014803F031BA00BFE859210807B5002381
S31500004B00034A009303F01EF803B05DF804FB00BFF0
S31500004B10385A210837B5044602200D4600F094FCA9
S31500004B20E2B2132A0346084A02D11178A52908D011
S31500004B30127800922946054A204603F003F803B08E
S31500004B4030BD6FF00600FAE720000000885A210801
S31500004B5037B5044609200D4600F076FCE2B2132A6A
S31500004B600346084A02D11178A52908D01278009286
S31500004B702946054A204602F0E5FF03B030BD6FF036
S31500004B800600FAE720000000E8592108014802F073
S31500004B90CFBF00BF885A2108014802F0C9BF00BF35
S31500004BA0385A2108014802F0C3BF00BFE85921085E
S31500004BB01FB5064B1B680293054B0193054B0093EB
S31500004BC0054B02F0A7FE05B05DF804FBFC370000BC
S31500004BD08834000030000000885A21081FB5064BB3
S31500004BE01B680293054B0193054B0093054B02F09E
S31500004BF091FE05B05DF804FBFC3700008834000028
S31500004C0030000000385A21081FB5064B1B68029376
S31500004C10054B0193054B0093054B02F07BFE05B057
S31500004C205DF804FBF837000098330000240000000C
S31500004C30E859210807B5064B064A1B680193064B3F
S31500004C400093064B03F05EFB03B05DF804FB00BF68
S31500004C50FC370000885A2108883400003000000024
S31500004C6007B5064B064A1B680193064B0093064B95
S31500004C7003F048FB03B05DF804FB00BFFC370000FF
S31500004C80385A2108883400003000000007B5064B6A
S31500004C90064A1B680193064B0093064B03F032FB52
S31500004CA003B05DF804FB00BFF8370000E85921089F
S31500004CB0983300002400000007B5064B064A1B681F
S31500004CC00193064B0093064B03F058FA03B05DF8C8
S31500004CD004FB00BFFC370000885A21088834000016
S31500004CE03000000007B5064B064A1B680193064BC9
S31500004CF00093064B03F042FA03B05DF804FB00BFD5
S31500004D00FC370000385A21088834000030000000C3
S31500004D1007B5064B064A1B680193064B0093064BE4
S31500004D2003F02CFA03B05DF804FB00BFF83700006F
S31500004D30E85921089833000024000000014902F0D8
S31500004D405FBD00BF885A2108014902F059BD00BF66
S31500004D50385A2108014902F053BD00BFE85921081D
S31500004D600149024802F02CBD30000000885A210893
S31500004D700149024802F024BD30000000385A2108DB
S31500004D80034B044904484FF480029A6402F018BDAC
S31500004D900084042424000000E859210807B5074BC5
S31500004DA0074910229A60074B0193074B0093074A65
S31500004DB0074B02F061FB03B05DF804FB008404249A
S31500004DC0885A210880370000FC37000030000000B8
S31500004DD000FC020007B5074B074910229A60074BF3
S31500004DE00193074B0093074A074B02F045FB03B0BC
S31500004DF05DF804FB00840424385A2108803700003B
S31500004E00FC3700003000000000FC020007B5084B2C
S31500004E1008494FF480025A64074B0193074B0093ED
S31500004E20074A084B02F028FB03B05DF804FB00BFFD
S31500004E3000840424E859210808370000F8370000E8
S31500004E4024000000001C0624014B1870704700BFA8
S31500004E5020000000014803F08FB800BF885A2108DF
S31500004E60014803F089B800BF385A2108014803F009
S31500004E7083B800BFE8592108012808D1094BC9B2F7
S31500004E80D3F8F02061F30702C3F8F0207047022838
S31500004E9002D1054BC9B2F3E70328F7D1034BC9B2D8
S31500004EA0EEE700BF000002440000014500080424AC
S31500004EB0022808D1044B9A696FF303029A61DA69F2
S31500004EC06FF30302DA61704700000145012804D13F
S31500004ED0074BD87900F001007047022801D1054B35
S31500004EE0F7E7032801D1044BF3E70020704700BF22
S31500004EF08C330000643300003C3300007047704779
S31500004F00064B1868002382B262F30F03000C60F3AD
S31500004F101F4382B0184602B0704700BF505B21089D
S31500004F20014B1868704700BF3C000000014804F0C0
S31500004F3081BD00BF3C000000014904F039BD00BF3F
S31500004F403C000000014804F011BD00BF3C00000019
S31500004F5037B504460B200D4600F076FA064B1B6863
S31500004F600193064B00930246054B2946204604F062
S31500004F708DF803B030BD00BFF837000024000000F4
S31500004F803C000000014804F07DB800BF3C00000072
S31500004F90014804F074B800BF3C0000007FB5104B18
S31500004FA0D3E90354B2F5806F2E883ABF02F1FF337E
S31500004FB0C3F3090340F2FF3363F30D162E802588F1
S31500004FC063F30D15074B25801B680293064B01936F
S31500004FD0064B0093024B04F019F804B070BD00BFF5
S31500004FE03C000000F8370000983300002400000061
S31500004FF00D4B1A69B1F5806F13B538BF01F1FF3358
S31500005000148834BFC3F3090340F2FF3363F30D146E
S31500005010064B14801B680193054B0093024A054B0F
S3150000502003F056FF02B010BD3C000000F837000048
S3150000503098330000240000000D4BDA68B1F5806F4C
S3150000504013B538BF01F1FF33148834BFC3F3090326
S3150000505040F2FF3363F30D14064B14801B68019373
S31500005060054B0093024A054B03F084FE02B010BDC7
S315000050703C000000F83700009833000024000000D0
S31500005080024B034A1B68034903F0CCBDF837000006
S31500005090240000003C000000034B044904484FF480
S315000050A000129A6403F06EBD0084042424000000FC
S315000050B03C00000007B5064B0193064B0093064AD9
S315000050C0064B074903F0CEFC03B05DF804FB00BFB6
S315000050D008370000F837000024000000001C0624F2
S315000050E03C000000014803F095BB00BFC40000006F
S315000050F0014803F08FBB00BF80000000014803F0A9
S3150000510089BB00BF3C000000FFF7F8BF7FB5264E05
S3150000511003788DF80D308DF8093033784278234DB9
S315000051208DF80C20012104468DF80E108DF808200C
S31500005130B3B1039806F066FB03462860A8B9627807
S315000051402079052A13D12178194B1A4A43F82140B0
S3150000515006F0D0FBA278184901238B54337004E083
S3150000516006F0F2FB28600028E3D004B070BD042AE4
S3150000517010D1124D124A297842F821400093024676
S31500005180104B1148415C02A806F058FA2B780133FF
S315000051902B70DFE70D4D0E4A297842F82140009327
S315000051A002460C4B0C48EDE7AC380000B038000066
S315000051B09038000091622008A8380000AA38000044
S315000051C0983800008162200808010000AB38000012
S315000051D0A0380000716220081001000010B50446D6
S315000051E029B1042912D0BDE8104007F00DBA4B28AA
S315000051F004D90D4840F2DB1106F0BCFE240104F18F
S315000052008C4404F598146068C0B210BD0B2804D90C
S3150000521005484FF4EF7106F0ADFE240104F1105479
S3150000522004F59824EFE700BF545B210870B50446E7
S3150000523041780078FFF7D2FF43B2002561782078E5
S31500005240DEB2FFF7CBFF43B2B342F6D10135B5F577
S31500005250FA7FF3D10549A27820788A5C934214BF7D
S3150000526001210021FCF7B4FC70BD00BFA838000086
S31500005270024B53F82000FFF7D9BF00BFA03800004B
S31500005280024B53F82000FFF7D1BF00BF983800004B
S31500005290024B53F82000FFF7C9BF00BF903800004B
S315000052A00278052A15D8437822B93A2B34BF002054
S315000052B021207047511E012905D9032A05D0042A49
S315000052C005D0062BF2E7102BF0E70A2BEEE70C2BA6
S315000052D0ECE72120704713B5837804468BB901208B
S315000052E006F05EFA63788DF8043023788DF8053081
S315000052F000238DF80630019802B0BDE8104006F094
S3150000530081BA0020ECE7000037B5831E5D425D419F
S3150000531004468DF80500AD0001A88DF80450FFF78E
S31500005320BFFF80B98DB94B2C04D90B4840F24A21F6
S3150000533006F020FE240104F18C4404F598146368F9
S3150000534083F00103636003B030BD044A536A83F0FF
S3150000535001035362F7E700BF545B210800C0042431
S31500005360354BDFED366AD3F8102242F04002C3F81F
S31500005370102207EE900AD3F81022F4EEE67A42F0F5
S315000053801002F1EE10FA07EE101A82B0C3F81022DE
S3150000539006DCF0EE086AB4EEE67AF1EE10FA08D50D
S315000053A0D3F8102242F02002C3F81022002002B0E7
S315000053B070479FED237AF4EEC77AF1EE10FA10D516
S315000053C0D3F810226FF30302C3F81022D3F8102289
S315000053D06FF38612C3F81022D3F810226FF304126B
S315000053E0E2E777EEC77ADFED176A134A87EEA67A09
S315000053F0F7EE007A77EE277AFCEEE77ACDED017AC2
S315000054009DF80430F6EE007A77EE277A07EE103A2A
S31500005410B8EE477AB4EEE77AF1EE10FAC2BFFCEEC8
S31500005420E77ACDED017A9DF80430D2F8101263F3D5
S315000054300301C2F81012B9E70038042433333340AD
S31500005440CDCCCC3F0AD7A33DD0B50E2800F27C8246
S31500005450DFE810F00F005A009500D00004010F019C
S315000054604101710181019001B701DC01070232029D
S3150000547054024FF08C43DB6903F00703042B41D839
S31500005480DFE803F0033A34373D00844B9A6C013A67
S31500005490052A37D8DFE802F0032224222628586C92
S315000054A04FF08C43DC69DB69C4F3C30413F0005F7F
S315000054B060D094B10BF0FEFB064620460F460BF07B
S315000054C0F9FB774B00220BF0B9FA02460B46304641
S315000054D039460BF093FD0BF001FFD0BDD86ADFE72C
S315000054E0D86BDDE7186BDBE7586BD9E76B4BD869F0
S315000054F0D6E76A4B5869D3E7684B9868D0E7674B9D
S31500005500D868CDE70020CBE74FF08C43DB69C3F3C7
S31500005510C213042B2CD8DFE803F003251F22280032
S315000055205E4B9A6C013A052A22D8DFE802F0030D99
S315000055300F0D1113586C4FF08C43DC69DB69C4F313
S31500005540832413F0804FB3E7D86AF4E7D86BF2E709
S31500005550186BF0E7586BEEE7504BD869EBE74F4B0B
S315000055605869E8E74D4B9868E5E74C4BD868E2E7A1
S315000055700020E0E7002CB0D0B0FBF4F0ADE74FF030
S315000055808C439B69C3F3C233052B31D8DFE803F0A4
S31500005590032124272A2D414B9A6C013A052A27D844
S315000055A0DFE802F0030F110F1315586C4FF08C4310
S315000055B09B69C3F3C32213F4F04F8ED0B0FBF2F015
S315000055C08BE7D86AF2E7D86BF0E7186BEEE7586B13
S315000055D0ECE7324B9868E9E7304B1869E6E72F4B62
S315000055E05869E3E72D4BD869E0E72C4BD868DDE72F
S315000055F00020DBE74FF08C439B6AC3F34243032B47
S315000056002AD8DFE803F002202326244B9A6C013ABD
S31500005610052A21D8DFE802F0030F110F1315586C85
S315000056204FF08C439A6AC2F3055312F07C7F3FF425
S3150000563054AF5B004CE0D86AF2E7D86BF0E7186B22
S31500005640EEE7586BECE7154B5869E9E7134B98689A
S31500005650E6E7124BD868E3E70020E1E74FF08C421B
S31500005660936903F00703032B25D8DFE803F0081B33
S315000056701E214FF08C42D36FC3F34223F3E7074B4F
S31500005680D86A91699369D2698C05C3F3C503C2F3DD
S31500005690007212D5B2B9DBB91FE700BFAC32000009
S315000056A00000E03F824BD869EBE7814B5869E8E799
S315000056B07F4B9868E5E70020E3E71AB9002BB8D1DD
S315000056C040080AE7D9077FF508AF022B7FF605AF3A
S315000056D0B0FBF3F001E74FF08C439B69C3F3026321
S315000056E0042B00F23181DFE813F0DF0005001D0016
S315000056F0200023006E4B9A6C013A052A00F22481A1
S31500005700DFE812F0060008000B0008000D00F700A5
S31500005710586CE2E6664BD86ADFE6D86BDDE6644B8A
S31500005720186BDAE6624B9868D7E6614BD869D4E61F
S315000057305F4B5869D1E64FF08C42936913F4802F82
S315000057405B4B0CBF58699868936992691202C3F360
S31500005750C343B3D59FE74FF08C439A6A12F4806F28
S31500005760534A0CBF9069D0689A6AC2F3C52312F4F3
S31500005770FC3F5CE74F4A93691B0F062B1FD8DFE8F7
S3150000578003F0040C0F1215181B00494B5868936957
S31500005790C3F3464213F47E0F0FE7454B186AF6E74C
S315000057A0434B586AF3E7424B986AF0E7404BD86A96
S315000057B0EDE73F4B186BEAE73D4BD868E7E700207B
S315000057C0E5E73C4AD369C3F34303052B1CD8DFE85E
S315000057D003F0030C0F121518354B5868D369C3F341
S315000057E04713002B7FF425AF77E6314B186AF5E7B0
S315000057F02F4B586AF2E72E4B986AEFE72C4BD86A84
S31500005800ECE72B4B186BE9E70020E7E7294A136A18
S31500005810C3F34303072B22D8DFE803F0040C0F126F
S3150000582015181B1E224B5868136AC3F3421213F055
S31500005830E00FC2E61E4B186AF6E71D4B586AF3E7FF
S315000058401B4B986AF0E71A4BD86AEDE7184B186BB2
S31500005850EAE7174BD868E7E7154B586BE4E70020F3
S31500005860E2E7144B1B6BC3F34303062B6CD801A270
S3150000587052F823F091682008976820089D68200850
S31500005880A3682008156720081F672008A968200854
S31500005890074B586821E6064B186A1EE6044B586A01
S315000058A01BE6034B986A18E6014BD86815E600BF5D
S315000058B0AC32000000140424244B5B6BC3F3430397
S315000058C0082B41D801A252F823F000BF91682008A6
S315000058D0976820089D682008A36820081567200897
S315000058E01F672008A9682008F1682008F7682008C3
S315000058F0174B586BF1E5164B9869EEE5134AD36AD8
S31500005900C3F34303062B1DD8DFE803F0040A0D108A
S31500005910131619000E4B5868D36AC3F34713BAE639
S315000059200B4B186AF8E70A4B586AF5E7084B986A72
S31500005930F2E7074BD86AEFE7054B186BECE7044B29
S31500005940D868E9E70020E7E70020C6E5001404244C
S31500005950AC320000024B1B68D3F8BC30184700BFBE
S3150000596000013000024B1B68D3F8CC30184700BF4B
S3150000597000013000024B1B68D3F8EC30184700BF1B
S3150000598000013000024B01219B69C0B2184700BFDD
S31500005990D4380000FFF7F6BF1346054A126810B464
S315000059A0546C0A46A44600215DF8044B604700BFCC
S315000059B000013000034B1B6A02469B6A0248012124
S315000059C0184700BF0001300000140424104B114A90
S315000059D01B7F82B0012BADF804000F4BC0B24FF411
S315000059E000610DD9116020B9D3F808220A43C3F823
S315000059F008225A68002042F001025A6002B070473D
S31500005A0011600028F5D1D3F8082242F40062EEE7CF
S31500005A10D438000000E100E0003804242DE9F04FFE
S31500005A20224B234893F81CE0224B1A7800231C468D
S31500005A3002F59875D9B28E450CD8DFF88080002320
S31500005A40A8F5107902F5907CDAB2964509D80020BF
S31500005A50BDE8F08F30F815108C4238BF0C46013384
S31500005A60E8E743B929F81C300133EDE7B5F820B073
S31500005A70594489B20AE000271FFA83FABEB2B4423B
S31500005A80F2D900220C4D104635F8021FA14203D26E
S31500005A90B142EBD1013292B2013080B25045F3D31C
S31500005AA00137002AEAD128F81360DDE7D438000070
S31500005AB0F4380000D0380000323B0000343B0000D0
S31500005AC0012800D17047C30701D44008F8E7002039
S31500005AD0704703460120834208DC00EBD072A3EB3B
S31500005AE06203B3EBA00FB8BF400870474000F2E76F
S31500005AF007EE100ADFED087A084837EE277AF7EE48
S31500005B00006AC6EE877AFCEEE77A17EE903A834291
S31500005B1028BF03461846704795BFD633404B4C0006
S31500005B2084B0F0B506AC84E80E00DFED957A00216E
S31500005B3023AC0DF16B050A460B46CEB2B04200F21D
S31500005B40AF80002B00F0A380B0EE007AF4EEC77AA7
S31500005B50F1EE10FAB0EE047A05DBF4EEC77AF1EE58
S31500005B6010FA00F1DF80F4EEC77AF1EE10FAB0EE2B
S31500005B70087A05DBF4EEC77AF1EE10FA00F1D88068
S31500005B80F4EEC77AF1EE10FAB1EE007A05DBF4EE28
S31500005B90C77AF1EE10FA00F1CE80F4EEC77AF1EE94
S31500005BA010FAB1EE047A05DBF4EEC77AF1EE10FADC
S31500005BB000F1C480F4EEC77AF1EE10FA07DBB1EE1D
S31500005BC0087AF4EEC77AF1EE10FA00F1BA80B1EE77
S31500005BD00C7AF4EEC77AF1EE10FAB2EE007A05DB33
S31500005BE0F4EEC77AF1EE10FA00F1AE80F4EEC77A61
S31500005BF0F1EE10FAB2EE027A05DBF4EEC77AF1EEB8
S31500005C0010FA00F1A480F4EEC77AF1EE10FA06DB82
S31500005C10B2EE047AF4EEC77AF1EE10FA6FD4B2EE71
S31500005C20087AF4EEC77AF1EE10FA06DBB2EE0C7AD9
S31500005C30F4EEC77AF1EE10FA6ED4B3EE017AF4EE12
S31500005C40C77AF1EE10FA06DBB3EE027AF4EEC77A03
S31500005C50F1EE10FA63D4B3EE097AF4EEC77AF1EEF8
S31500005C6010FA06DBB3EE0A7AF4EEC77AF1EE10FA12
S31500005C7070D9B3EE0B7AF4EEC77AF1EE10FA06DBC2
S31500005C809FED407AF4EEC77AF1EE10FA74D9DFEDA3
S31500005C903E7A9FED3E7A002A18BFF0EE477A65E01D
S31500005CA015F8016FA6F1140CBCF1020F2F7C0FD86A
S31500005CB094ED007AB4EEE77AF1EE10FA03DD0133E3
S31500005CC0DBB2F0EE477A0D2F16D00131043434E7FB
S31500005CD0A7F10A0CBCF1020F0CD894ED007AB4EED1
S31500005CE0E77AF1EE10FA03DD0133DBB2F0EE477A24
S31500005CF0182EE9E7182EE6D10132D2B2E5E7DFED3C
S31500005D00247A9AB39FED217AF4EEC77AF1EE10FA6F
S31500005D1023D5F0EE477A29E0DFED1E7AF1E7DFEDD5
S31500005D201E7AEEE7DFED1D7ABAB1DFED187A1DE0D7
S31500005D30DFED1B7AF8E7DFED1B7AF5E7DFED1A7A80
S31500005D40F2E7DFED1A7AEFE7DFED197AECE7DFED40
S31500005D50197AE9E7DFED187A42B19FED0B7AF4EE96
S31500005D60477AF1EE10FA48BFF0EE477ABDE8F04008
S31500005D7017EE900A04B07047DFED107AECE700BF2B
S31500005D800000000000004C4295BFD6338BE16A3616
S31500005D90ACC5A735EFE608369F9D42362E5A8233AC
S31500005DA001A90C3437F859342439EC3434580F35FA
S31500005DB0AD186335883E8A35B1B49D36F2DD1C37A1
S31500005DC070B50D4616460446D0B9FFF7D3FDAA486E
S31500005DD007222146FFF7E0FD002D40F0AA81012EA3
S31500005DE000F09F810B2C1DD00C2C40F0F580052077
S31500005DF0FFF7C0FDA04807220521FFF7CDFD98E07B
S31500005E00012818D10220FFF7B5FD9B480722022181
S31500005E10FFF7C2FD002D76D1012E00F082810B2CFA
S31500005E2040F0DA800320FFF7A5FD07220321924800
S31500005E30FFF7B2FD96E002280ED10420FFF79AFD87
S31500005E40072204218C48FFF7A7FD002D00F066818C
S31500005E50012D40F0778155E1032805D10620FFF793
S31500005E6089FD07220621EDE7042805D10820FFF762
S31500005E7081FD07220821E5E7052805D10A20FFF75D
S31500005E8079FD07220A21DDE706280CD17B4B20226B
S31500005E905A601920FFF766FD1920FFF75BFD784869
S31500005EA00E221921B4E707281ED1744B20225A600E
S31500005EB01B20FFF757FD1B20FFF74CFD0E221B2171
S31500005EC06F48FFF769FD002D00F02881012D40F095
S31500005ED0D980012E00F019810C2C21D10520FFF765
S31500005EE049FD07220521A2E7082840F0FD80634B03
S31500005EF020225A601D20FFF735FD1D20FFF72AFDE1
S31500005F000E221D21DCE70B2C1ED0012D40F01A813C
S31500005F10012E00F0FA800C2CE0D00D2C00F0C18090
S31500005F200E2C50D00F2C6FD0102C75D12EE0022DD8
S31500005F3040D0032D52D1012E59D00E2C70D00F2CEB
S31500005F4062D0102C30D121E00320FFF713FD4A4820
S31500005F5007220321FFF720FD022D2BD0032D03D1AD
S31500005F60012E44D0002070BD042D00F0A480052D24
S31500005F70DAD1012E40F0A3800720FFF7FBFC0722B1
S31500005F803D481146FFF708FD102C5ED13B4B202201
S31500005F905A601A20FFF7E6FC1A20FFF7DBFC3848A8
S31500005FA00E221A21FFF7F8FC112C50D0072D5CD1D8
S31500005FB0012E88E0012ED5D169E0012E67D00D2C87
S31500005FC00FD00E2CBBD10920FFF7D4FC2A4807229C
S31500005FD00921FFF7E1FCCAE70D2C62D00E2C68D12F
S31500005FE0F1E70B20FFF7C6FC07220B211FE70B206A
S31500005FF0FFF7C0FC204807220B21FFF7CDFC8FE7F7
S315000060000E2CE0D00F2CB2D10720FFF7B3FC0722ED
S3150000601019481146FFF7C0FC062DC5D1012E4FE0E9
S315000060200920FFF7A7FC0722092100E70920FFF74F
S31500006030A1FC114807220921FFF7AEFC7FE70720E4
S31500006040FFF798FC07221146F1E6112C0DD10B4BF8
S3150000605020225A601C20FFF785FC1C20FFF77AFCE3
S3150000606007480E221C21FFF797FC122C2FD0082D73
S315000060707FF478AF012E28E000C0042400003041F0
S3150000608000001346022D7FF454AF012E99D105204E
S31500006090FFF770FC2E4807220521FFF77DFC0D2C2B
S315000060A0AED10B20FFF766FC294807220B21FFF72C
S315000060B073FC042DA6D1012EB8D00F2CBFD0102C06
S315000060C03FF464AF112CC2D0122C7FF44BAF214B9E
S315000060D020225A601E20FFF745FC1E20FFF73AFCDF
S315000060E01D480E221E21A3E60A287FF475AE012064
S315000060F0FFF740FC164807220121FFF74DFC012D52
S315000061007FF415AF012E7FF42DAF0320FFF732FC8D
S315000061100F4807220321FFF73FFC65E6012E7FF4B7
S3150000612021AF0120FFF726FC094807220121FFF7CE
S3150000613033FC0B2C3FF408AF012D3FF4E9AE0C2CD9
S315000061403FF455AE022D3FF438AF0D2CA9D0F0E642
S3150000615000C0042400003041000013462DE9F04140
S315000061600F29BDF81850BDF81C609DF820809DF8D9
S3150000617024E055D845EA0604B4F5806F50D22B4C7E
S3150000618001F1100701F1400C44F8273001F15007E6
S315000061909A4244F8212024F81C5024F8176041D074
S315000061A0B8F1000F17D001F1300802EB4502C0F834
S315000061B0D42144F8282045EAC12242F40048C0F818
S315000061C0D881D0F8D881C0F8D821D0F8D82144F8A1
S315000061D02C8044F82720BEF1000F02D10020BDE834
S315000061E0F08101F1600205EB46052B44C0F8D4317D
S315000061F044F82230CB0203F58063334343F4004274
S31500006200C0F8D82101F17002D0F8D85144F82250D4
S315000062108031C0F8D831D0F8D83144F82130DDE7E4
S315000062200120DCE742F20210D9E700BFF438000093
S315000062300F2910B528D892B1144A01F1300452F84A
S315000062402440C0F8D44101F1400452F82440C0F87B
S31500006250D84101F1500452F82420C0F8D8218BB15E
S315000062600A4B01F1600253F82220C0F8D42101F153
S315000062707002803153F8222053F82130C0F8D8211B
S31500006280C0F8D831002010BD0120FCE7F43800002A
S3150000629010B5274B27485A685A6842F001025A60DF
S315000062A0D3F8082242F48062C3F8082203F5B43317
S315000062B01A68026852BBD3F8402442F46752C3F806
S315000062C040241D4AD2F80230DC05FBD41B4BD3F820
S315000062D00427D107FBD5D3F80427D207FBD4D3F87C
S315000062E04824174C174B21681A60930803F4F85397
S315000062F00B43910001F07C0112020B4302F4783249
S31500006300134343F081032360012303600C4B1A6897
S315000063100A4BC3F84424084AD2F8023013F48073B7
S31500006320FAD1034A516863F30001516010BD00BF02
S3150000633000380424C43800000000052400A0052409
S31500006340CC380000C83800000F29024610B54FF0BF
S3150000635001000CD8D2F8CC4100FA01F32343D2F85D
S31500006360CC119BB263F30F01C2F8CC11002010BD13
S315000063700F29024610B54FF001000DD8D2F8CC41D6
S3150000638000FA01F343EA1443D2F8CC119BB263F34B
S315000063901F41C2F8CC11002010BD30B50F299DF861
S315000063A00C402CD81F2A2AD80F2B28D8012C26D8E7
S315000063B045686D060FD5090134B14518AC6B44EA42
S315000063C0835343F08063AB6301448B6B43EA4243E0
S315000063D08B63002030BD5CB1D0F8081241F4007127
S315000063E0C0F80812D0F8081263F34811C0F8081272
S315000063F0D0F8083262F30403C0F80832E9E7012056
S31500006400E8E7000029B9D0F8083261F3CB23C0F8D9
S315000064100832064B5B68DB0741BF43686FF3000336
S315000064204360002058BF4FF0FF3070470038042407
S31500006430C1B2024882B002B0FFF7E4BF00380424BC
S315000064400F2915D80D4B5A68520603D4D3F8DC3100
S31500006450002B0FDAD0F8DC2101238B401343D0F850
S31500006460DC219BB263F30F02C0F8DC2100207047E9
